:020000040800F2
:10000000000002201D090008F1080008F30800089C
:10001000F5080008F7080008F908000800000000CB
:10002000000000000000000000000000FB080008C5
:10003000FD08000800000000FF0800080109000892
:100040006D0900086D0900086D0900086D090008B8
:100050006D0900086D0900086D0900086D090008A8
:100060006D0900086D0900086D0900086D09000898
:100070006D0900086D0900086D0900086D09000888
:100080006D0900086D0900086D0900086D09000878
:100090006D0900086D0900086D0900086D09000868
:1000A0006D0900086D0900086D0900086D09000858
:1000B0006D0900086D0900086D0900086D09000848
:1000C0006D0900086D0900086D0900086D09000838
:1000D0006D0900086D0900086D0900086D09000828
:1000E0006D0900086D0900086D0900086D09000818
:1000F0006D0900086D0900086D0900086D09000808
:100100006D0900086D0900086D0900086D090008F7
:100110006D0900086D0900086D090008090900084B
:100120006D0900086D0900086D0900086D090008D7
:100130006D09000800000000000000006D090008C3
:100140006D0900086D0900086D0900086D090008B7
:100150006D0900086D0900086D0900086D090008A7
:100160006D0900086D0900086D0900086D09000897
:100170006D0900086D0900086D0900080000000005
:10018000000000006D0900080000000000000000F1
:100190006D09000800000000000000006D09000863
:1001A0000000000000000000000000006D090008D1
:1001B0006D0900086D0900086D0900086D09000847
:0401C0006D090008BD
:1001C40010B5054C237833B9044B13B10448AFF38D
:1001D40000800123237010BD74040020000000007F
:1001E4002C19000808B5034B1BB103490348AFF3AE
:1001F400008008BD00000000780400202C190008CD
:1002040053B94AB9002908BF00281CBF4FF0FF3179
:100214004FF0FF3000F06CB9ADF1080C6DE904CE7D
:1002240000F006F8DDF804E0DDE9022304B07047CD
:100234002DE9F047089E0D4604468E46002B40F0FB
:1002440082808A42174646D9B2FA82F24AB1C2F192
:10025400200105FA02F320FA01F1974041EA030E66
:1002640094404FEA1748230CBEFBF8FCB9B208FBD4
:100274001CEE43EA0E430CFB01F098420AD9FB182A
:100284000CF1FF3580F01681984240F21381ACF1F5
:10029400020C3B441B1AA4B2B3FBF8F008FB103366
:1002A40044EA034400FB01F1A14209D93C1900F1DD
:1002B400FF3380F00181A14240F2FE8002383C44C9
:1002C400641A40EA0C4000211EB1D4400023C6E960
:1002D4000043BDE8F08702B9FFDEB2FA82F2002AD9
:1002E4004FD1CB1B4FEA174E1FFA87F80121B3FBFE
:1002F400FEFC250C0EFB1C3345EA034508FB0CF3FE
:10030400AB4207D97D190CF1FF3002D2AB4200F2A7
:10031400E7808446ED1AA3B2B5FBFEF00EFB105540
:1003240043EA054408FB00F8A04507D93C1900F14D
:10033400FF3302D2A04500F2D7801846A4EB08048C
:1003440040EA0C40C0E78B4208D9002E00F0AF8091
:100354000021C6E900050846BDE8F087B3FA83F139
:1003640000294BD1AB4202D3824200F2B780841AF7
:1003740065EB030301209E46002EAAD0C6E9004E79
:10038400A7E7C2F1200C01FA02F3974020FA0CF01F
:100394004FEA174E21FA0CFC1843BCFBFEF1050C86
:1003A4000EFB11CC1FFA87F845EA0C4501FB08F354
:1003B400AB4204FA02F409D97D1901F1FF3C80F043
:1003C4008B80AB4240F2888002393D44EB1A85B2FF
:1003D400B3FBFEF00EFB103345EA034500FB08F3C4
:1003E400AB4207D97D1900F1FF3C71D2AB426FD902
:1003F40002383D44EB1A40EA014178E7C1F1200C90
:100404008B4022FA0CF71F4320FA0CF405FA01F38F
:100414004FEA174E25FA0CF51C43230CB5FBFEF9E5
:100424001FFA87F80EFB195543EA054509FB08FA3C
:10043400AA4502FA01F200FA01F308D97D1909F17B
:10044400FF3047D2AA4545D9A9F102093D44A5EB9D
:100454000A05A4B2B5FBFEF00EFB105544EA0544B0
:1004640000FB08F8A04507D93C1900F1FF352DD24F
:10047400A0452BD902383C4440EA0940A4EB0804C7
:10048400A0FB02894C45C6464D4619D316D05EB131
:10049400B3EB0E0264EB050404FA0CFCCA404CEA0C
:1004A4000202CC40C6E900240021BDE8F0873146B1
:1004B40030460EE7AC46EDE6184601E74345E6D282
:1004C400B8EB020E69EB07050138E0E72846D3E7ED
:1004D40060468FE78146BAE7614677E708464BE70F
:1004E400ACF1020C3D4415E702383C4426E700BF5A
:1004F400704700BF2DE9F04188B0002403940494B0
:100504000594069407940094324B1A6B42F001024E
:100514001A631A6B02F001020092009A01941A6B9A
:1005240042F002021A631A6B02F002020192019A6B
:1005340002941A6B42F004021A631B6B03F0040367
:100544000293029B244F22464FF47071384600F008
:10055400C8FB224E22464FF48861304600F0C1FBAE
:10056400DFF87C8022468021404600F0BAFB4FF43D
:1005740070730393012504950594069403A93846E2
:1005840000F0C4FA4FF48863039304950594069429
:1005940003A9304600F0BAFA802303930495059426
:1005A400069403A9404600F0B1FA4FF48063039324
:1005B4000494059503A9384600F0A8FA3823039358
:1005C4000494059503A9304600F0A0FA08B0BDE8EC
:1005D400F08100BF003802400000024000040240E5
:1005E4000008024038B5054600240AE000228021B4
:1005F4000D4800F076FB012240210B4800F071FB0E
:100604000134072C0EDC00224021074800F069FB6E
:10061400802323411D42E9D001228021024800F0B9
:1006240060FBE8E738BD00BF000002400268114BE0
:100634009A4200D0704770B50F4D002240212846E1
:1006440000F04FFB0D4C23780D4AD05CFFF7CAFF36
:100654002078012606FA00F0C0B2FFF7C3FF324645
:100664004021284600F03DFB2378334403F0070380
:10067400237070BD00140040000402409204002066
:100684000000002072B6FEE700B583B0002300939B
:1006940001930E480E4A026040F23F62426083605A
:1006A4000922C260836100F0E9FF50B9002300937E
:1006B40001936946054801F00DF820B903B05DF8CF
:1006C40004FBFFF7DFFFFFF7DDFF00BF940400200A
:1006D4000014004000B595B03422002107A801F0B1
:1006E40063F8002302930393049305930693009302
:1006F400194A116C41F080511164126C02F080525D
:100704000092009A019315490A6822F4404242F487
:1007140080420A600A6802F440420192019A02226D
:10072400079201220A9210220B920D9307A800F05F
:100734001BFC68B90F2302930021039104910591D6
:10074400069102A800F0D4FA20B915B05DF804FBB4
:10075400FFF798FFFFF796FF003802400070004053
:1007640010B500F029F9FFF7B5FFFFF7C3FEFFF757
:100774008BFF364800F018FE23E00122344B33F897
:100784001410344B53F8240000F0ABFA0134032C5A
:10079400F3DD314B1B7800222D4931F813102D481D
:1007A40050F8230000F09DFA2C4B00221A702B4BBA
:1007B4001B78032B07D9284A1378013303F003036A
:1007C40013700024E3E7264A32F81310254A52F83E
:1007D400230000F07FFA20B1204A1378013313700C
:1007E400E5E7142000F014F91C4B1B781C4A32F87E
:1007F40013101C4A52F8230000F06CFA0028DAD1D6
:10080400154B1B78154A147804EB8304E4B2164B99
:100814001C700723002B05DD5A1E1449885CC8543C
:100824001346F7E7124B1A5D104B1A700B4B1B78EB
:100834000B4A32F813100B4A52F8230000F04AFA1C
:100844000028F3D0142000F0E3F8B4E79404002067
:1008540020000020280000209104002090040020A3
:100864000800002010000020DC040020000000200C
:100874004419000882B0002100910B4B5A6C42F4D9
:1008840080425A645A6C02F480420092009A0191A8
:100894001A6C42F080521A641B6C03F0805301936B
:1008A400019B02B0704700BF0038024002680E4B43
:1008B4009A4200D0704700B583B00021019103F53E
:1008C40009331A6C42F020021A641B6C03F02003F3
:1008D4000193019B0A46372000F0C0F8372000F04E
:1008E400F1F803B05DF804FB00140040FEE7FEE7F6
:1008F400FEE7FEE7FEE770477047704708B500F073
:1009040075F808BD08B5024800F096FD08BD00BFA3
:100914009404002070470000DFF834D00D480E49DD
:100924000E4A002302E0D458C4500433C4188C4245
:10093400F9D30B4A0B4C002301E013600432A242AA
:10094400FBD3FFF7E7FF00F00BFFFFF709FF70474A
:100954000000022000000020740400208019000818
:100964007404002008050020FEE7000010B50446CA
:100974000E4B18784FF47A73B3FBF0F30C4A1068FB
:10098400B0FBF3F000F0ACF868B90F2C01D90120EA
:100994000AE0002221464FF0FF3000F05FF8054BDB
:1009A4001C60002000E0012010BD00BF3C000020BE
:1009B400380000204000002008B50B4B1A6842F4B0
:1009C40000721A601A6842F480621A601A6842F46B
:1009D40080721A60032000F02FF80F20FFF7C6FF83
:1009E400FFF748FF002008BD003C0240034A11689D
:1009F400034B1B780B441360704700BFE0040020D6
:100A04003C000020014B1868704700BFE004002040
:100A140038B50446FFF7F6FF0546B4F1FF3F02D0B0
:100A2400044B1B781C44FFF7EDFF401BA042FAD394
:100A340038BD00BF3C000020074AD36823F4E063BC
:100A44001B041B0C000200F4E060034343F0BF638B
:100A540043F40033D360704700ED00E030B4174B2B
:100A6400DB68C3F30223C3F10704042C28BF042466
:100A74001D1D062D18D9033B4FF0FF3505FA04F46C
:100A840021EA0401994005FA03F322EA0303194316
:100A940000280BDB0901C9B200F1604000F5614098
:100AA40080F8001330BC70470023E5E700F00F0026
:100AB4000901C9B2024B1954F4E700BF00ED00E08C
:100AC40014ED00E0002807DB00F01F0240090123B9
:100AD4009340024A42F82030704700BF00E100E032
:100AE4000138B0F1807F0AD2064B5860064AF021E3
:100AF40082F823100020986007221A6070470120B2
:100B0400704700BF10E000E000ED00E000230F2B71
:100B140000F2D780F0B482B05DE086685F00032401
:100B2400BC4026EA0406CC68BC4034438460466872
:100B340026EA02064C68C4F300129A40324342602B
:100B440057E0DC08083450F8247003F007029600DC
:100B54000F22B24027EA02070A69B2403A4340F83A
:100B640024205AE0062200E00022B2403A43023434
:100B7400544E46F82420544A9468EA4324EA05066D
:100B84004F6817F4801F01D045EA04064E4CA66056
:100B9400E46802EA04064F6817F4001F01D045EA2E
:100BA4000406494CE660646802EA04064F6817F4D8
:100BB400003F01D045EA0406434C666024682240A5
:100BC4004E6816F4803F01D045EA04023E4C226090
:100BD40001330F2B72D801229A400C6804EA0205F3
:100BE40032EA0404F4D14C6804F00304013C012CFF
:100BF40093D94A6802F00302032A09D0C4685E004C
:100C04000322B24024EA02048A68B2402243C2604A
:100C14004A6802F00302022A93D004685E000322A9
:100C2400B24024EA02044A6802F00302B2402243BA
:100C340002604A6812F4403FCAD000220192234A5B
:100C4400546C44F480445464526C02F48042019223
:100C5400019A9C08A61C1B4A52F8267003F0030252
:100C640096000F22B24027EA0207194A90423FF445
:100C74007BAF02F58062904216D002F5806290420A
:100C840014D002F58062904212D002F58062904244
:100C940010D002F5806290420ED002F5806290423C
:100CA4003FF460AF072260E701225EE702225CE7BF
:100CB40003225AE7042258E7052256E702B0F0BCA3
:100CC4007047704700380140003C01400038024042
:100CD400000002400369194201D00120704700203E
:100CE40070470AB18161704709048161704700004F
:100CF400002800F09B8070B50D4604464F4B1B68DE
:100D040003F00F038B4208D2CBB24C4A1370136822
:100D140003F00F038B4240F08B80236813F0020F23
:100D240017D013F0040F04D0454A936843F4E053FA
:100D34009360236813F0080F04D0414A936843F486
:100D4400604393603E4A936823F0F003A1680B4329
:100D54009360236813F0010F32D06368012B21D014
:100D64009A1E012A25D9364A126812F0020F61D060
:100D740033498A6822F0030213438B60FFF742FE73
:100D840006462F4B9B6803F00C036268B3EB820F9B
:100D940016D0FFF737FE801B41F288339842F0D912
:100DA400032042E0264A126812F4003FE0D10120F9
:100DB4003BE0234A126812F0007FD9D1012034E0CD
:100DC4001E4B1B6803F00F03AB4207D9EAB21B4B5F
:100DD4001A701B6803F00F03AB422DD1236813F084
:100DE400040F06D0164A936823F4E053E1680B43DA
:100DF4009360236813F0080F07D0114A936823F413
:100E04006043216943EAC103936000F021F80C4B6D
:100E14009B68C3F303130B4AD35CD8400A4B186096
:100E24000A4B1868FFF7A2FD002070BD012070472F
:100E34000120FAE70120F8E70120F6E7003C024030
:100E440000380240581900083800002040000020F3
:100E5400F8B5424B9B6803F00C03082B07D00C2B0E
:100E640041D0042B01D03E48F8BD3E48FCE73B4B43
:100E74005A6802F03F025B6813F4800F12D0374BBC
:100E84005968C1F3881100233648A1FB0001FFF71C
:100E9400B7F9324B5B68C3F3014301335B00B0FB2A
:100EA400F3F0E1E72D4B5B68C3F38813580100218D
:100EB400C01A61F100018E0146EA906687013C1A6E
:100EC40066EB0105E90041EA5471E000C01841F104
:100ED40000018B0243EA9053840220461946002302
:100EE400FFF78EF9D5E71D4B5A6802F03F025B68A5
:100EF40013F4800F10D0194B5968C1F388110023E3
:100F04001848A1FB0001FFF77BF9144B5B68C3F39E
:100F14000273B0FBF3F0A7E7104B5B68C3F38813CD
:100F24005C010025E41A65F10005AE0146EA946609
:100F3400A701381B66EB0501CC0044EA5074C500D8
:100F4400E81844F100018B0243EA905384022046DE
:100F540019460023FFF754F9D7E700BF00380240D1
:100F64000024F40040787D01002800F0018270B56F
:100F740082B00446036813F0010F41D0A54B9B686F
:100F840003F00C03042B32D0A24B9B6803F00C0338
:100F9400082B27D09F4B9B6803F00C030C2B59D0D4
:100FA4006368B3F5803F5BD0B3F5A02F5ED0994B57
:100FB4001A6822F480321A601A6822F480221A60B5
:100FC4006368002B5CD0FFF71DFD0546914B1B6841
:100FD40013F4003F14D1FFF715FD401B6428F5D925
:100FE4000320CCE18B4B5B6813F4800FD2D0894B88
:100FF4001B6813F4003F03D06368002B00F0BA8130
:10100400236813F0020F60D0824B9B6813F00C0F1F
:101014004AD0804B9B6803F00C03082B3FD07D4BD8
:101024009B6803F00C030C2B68D0E368002B74D08E
:10103400794B01221A60FFF7E5FC0546754B1B68E6
:1010440013F0020F60D1FFF7DDFC401B0228F5D935
:10105400032094E16F4B5B6813F4800FA0D0C6E7C4
:101064006C4A136843F480331360A9E7694B1A6828
:1010740042F480221A601A6842F480321A609FE7B0
:10108400FFF7C0FC0546634B1B6813F4003FB7D061
:10109400FFF7B8FC401B6428F5D903206FE15D4BD2
:1010A4005B6813F4800FBAD15A4B1B6813F0020F1C
:1010B40003D0E368012B40F05F81564A136823F0A4
:1010C400F803216943EAC1031360236813F0080F8E
:1010D40047D06369002B32D0504B01221A60FFF7CE
:1010E40091FC05464B4B5B6F13F0020F39D1FFF7B0
:1010F40089FC401B0228F5D9032040E1454B5B687D
:1011040013F4800F91D1CFE7424A136823F0F80318
:10111400216943EAC1031360D7E73F4B00221A60F9
:10112400FFF770FC05463B4B1B6813F0020FCCD055
:10113400FFF768FC401B0228F5D903201FE1374B59
:1011440000221A60FFF75EFC0546324B5B6F13F01A
:10115400020F06D0FFF756FC401B0228F5D90320E6
:101164000DE1236813F0040F78D02A4B1B6C13F0A5
:10117400805F33D100230193264B1A6C42F08052D6
:101184001A641B6C03F080530193019B0125244BCB
:101194001B6813F4807F23D0A368012B34D0052B64
:1011A40040D01C4B1A6F22F001021A671A6F22F00A
:1011B40004021A67A368002B3ED0FFF723FC0646FF
:1011C400144B1B6F13F0020F47D1FFF71BFC801B5E
:1011D40041F288339842F3D90320D0E00025D6E7C2
:1011E4000F4A136843F480731360FFF70BFC064641
:1011F4000B4B1B6813F4807FCED1FFF703FC801BDD
:101204000228F5D90320BAE0024A136F43F0010320
:101214001367CFE70038024000004742800E474280
:10122400007000405E4B1A6F42F004021A671A6F96
:1012340042F001021A67BDE7FFF7E4FB0646584B8C
:101244001B6F13F0020F08D0FFF7DCFB801B41F289
:1012540088339842F3D9032091E0EDB9A369002BB8
:1012640000F08C804E4A926802F00C02082A54D096
:10127400022B17D04B4B00221A60FFF7C3FB044626
:10128400474B1B6813F0007F45D0FFF7BBFB001BE7
:101294000228F5D9032072E0414A136C23F08053ED
:1012A4001364DBE73F4B00221A60FFF7ABFB0546F4
:1012B4003B4B1B6813F0007F06D0FFF7A3FB401BDA
:1012C4000228F5D903205AE0E369226A1343626ACB
:1012D40043EA8213A26A5208013A43EA0243E26AE9
:1012E40043EA0263226B43EA02732D4A53602D4B97
:1012F40001221A60FFF786FB0446294B1B6813F092
:10130400007F06D1FFF77EFB001B0228F5D90320DE
:1013140035E0002033E0002031E0012B31D0204BB8
:101324005B6803F48001E26991422CD103F03F022F
:10133400216A8A4229D1616A47F6C0721A40B2EB27
:10134400811F24D103F44031A26A5208013AB1EB5F
:10135400024F1ED103F07062E16AB2EB016F1AD141
:1013640003F0E043226BB3EB027F16D1002006E0CA
:1013740001207047012002E0012000E0002002B0BB
:1013840070BD0120FBE70120F9E70120F7E7012008
:10139400F5E70120F3E70120F1E70120EFE700BFC3
:1013A400003802406000474290F83D30DBB2012B28
:1013B40037D1022380F83D300268D36843F001033B
:1013C400D3600368194A934220D0B3F1804F1DD0F3
:1013D400A2F57C42934219D002F58062934215D063
:1013E40002F58062934211D002F5784293420DD007
:1013F40002F57052934209D0A2F59432934205D07B
:101404001A6842F001021A60002070479A6802F0DC
:101414000702062A07D01A6842F001021A60002067
:101424007047012070470020704700BF0000014052
:10143400704770477047704710B5044603681A69CF
:1014440012F0020F11D0DA6812F0020F0DD06FF013
:1014540002021A610123037703689B6913F0030FE7
:1014640070D0FFF7E6FF0023237723681A6912F090
:10147400040F12D0DA6812F0040F0ED06FF00402D9
:101484001A610223237723689B6913F4407F5FD09A
:101494002046FFF7CEFF0023237723681A6912F052
:1014A400080F12D0DA6812F0080F0ED06FF008029D
:1014B4001A61042323772368DB6913F0030F4ED0EA
:1014C4002046FFF7B6FF0023237723681A6912F03A
:1014D400100F12D0DA6812F0100F0ED06FF0100255
:1014E4001A61082323772368DB6913F4407F3DD016
:1014F4002046FFF79EFF0023237723681A6912F022
:10150400010F03D0DA6812F0010F36D123681A698B
:1015140012F0800F03D0DA6812F0800F34D1236800
:101524001A6912F0400F03D0DA6812F0400F32D17A
:1015340023681A6912F0200F03D0DA6812F0200F22
:1015440030D110BDFFF774FF2046FFF773FF8AE721
:101554002046FFF76DFF2046FFF76CFF9BE7204610
:10156400FFF766FF2046FFF765FFACE72046FFF76D
:101574005FFF2046FFF75EFFBDE76FF001021A61CF
:101584002046FFF753F8C1E76FF080021A61204646
:1015940000F0E5F8C3E76FF040021A612046FFF758
:1015A4004AFFC5E76FF020021A61204600F0D6F822
:1015B400C7E700000368304A904212D0B0F1804F70
:1015C4000FD0A2F57C4290420BD002F5806290428B
:1015D40007D002F58062904203D002F5784290422F
:1015E40003D123F070034A681343234A90422AD05C
:1015F400B0F1804F27D0A2F57C42904223D002F56F
:10160400806290421FD002F5806290421BD002F5A6
:101614007842904217D002F57052904213D002F5EE
:10162400806290420FD002F5806290420BD0A2F506
:101634009832904207D002F58062904203D002F5BE
:101644008062904203D123F44073CA68134323F0A9
:1016540080034A69134303608B68C3620B68836227
:10166400054B984203D003F58063984201D10B697E
:1016740003630123436170470000014040B310B588
:10168400044690F83D30F3B1022384F83D302146FE
:1016940051F8040BFFF78EFF012384F8463084F8D9
:1016A4003E3084F83F3084F8403084F8413084F888
:1016B400423084F8433084F8443084F8453084F868
:1016C4003D30002010BD80F83C30FFF7EFF8DBE739
:1016D4000120704790F83C30012B3BD030B40123FB
:1016E40080F83C30022380F83D3003685C689D68D4
:1016F40024F070040A6822435A600368164A93422D
:101704001AD0B3F1804F17D0A2F57C42934213D084
:1017140002F5806293420FD002F5806293420BD0AF
:1017240002F57842934207D002F57052934203D0F7
:10173400A2F59432934204D125F080054A681543FA
:101744009D60012380F83D30002380F83C3018462A
:1017540030BC70470220704700000140704770475A
:1017640070B50D4E0D4D761BB61006D0002455F8FD
:10177400043B01349847A642F9D1094E094D761B22
:1017840000F0D2F8B61006D0002455F8043B01341A
:101794009847A642F9D170BD74190008741900085D
:1017A4007C19000874190008F0B4860746D0541E4A
:1017B400002A3CD0CAB2034601E0013C37D303F807
:1017C400012B9D07F9D1032C2AD9CDB245EA052571
:1017D4000F2C45EA054534D9A4F1100222F00F0C70
:1017E40003F120071609674403F1100242E9045586
:1017F40042E902551032BA42F8D1721C14F00C0FAF
:1018040003EB021204F00F0613D0331F23F003037B
:101814000433134442F8045B9342FBD106F00304FF
:101824002CB1CAB21C4403F8012B9C42FBD1F0BC7E
:10183400704734461346002CF3D1F8E714460346A8
:10184400C1E71A462646E0E7024B13B1024800F00E
:1018540005B87047000000006D1800080023014619
:101864001A46184600F01AB838B5084B084D5B1BE9
:101874009C1007D0043B1D44013C55F8043998479B
:10188400002CF9D1BDE8384000F054B880190008A4
:101894007C190008704700BF704700BF2DE9F0476E
:1018A400DFF880A00646DAF8000098460F46914615
:1018B400FFF7F0FF1A4B1B68D3F8484124B365685F
:1018C4001F2D26DC5EB9AB1C0135DAF8000065601B
:1018D40044F82370FFF7E0FF0020BDE8F08704EB35
:1018E40085030121C3F88890D4F88821A9400A43CC
:1018F400022EC4F88821C3F80881E4D1D4F88C31CD
:101904001943C4F88C11DEE703F5A674C3F8484103
:10191400D5E7DAF80000FFF7BFFF4FF0FF30DCE750
:101924006819000870040020F8B500BFF8BC08BCB2
:101934009E467047F8B500BFF8BC08BC9E46704789
:10194400C0F9A4B0999282F880908883C6A1868E4B
:10195400BF000000000000000000000001020304BA
:081964000607080948000020F5
:08196C00C8E8FF7F0100000044
:081974004D180008E90100080C
:04197C00C501000899
:10198000FFFFFFFFFFFFFFFF100020000800000423
:101990000004024000040240000402400000024033
:1019A0008000000200010004000802400000024024
:1019B00000000240000402400024F4000100000086
:1019C00010000000000000000000000034030020B0
:1019D0009C03002004040020000000000000000020
:1019E00000000000000000000000000000000000F7
:1019F00000000000000000000000000000000000E7
:101A000000000000000000000000000000000000D6
:101A100000000000000000000000000000000000C6
:101A200000000000000000000000000000000000B6
:101A300000000000000000000000000000000000A6
:101A40000000000000000000000000000000000096
:101A50000000000000000000000000000000000086
:101A60000000000000000000000000000000000076
:101A700001000000000000000E33CDAB34126DE613
:101A8000ECDE05000B00000000000000000000007C
:101A90000000000000000000000000000000000046
:101AA0000000000000000000000000000000000036
:101AB0000000000000000000000000000000000026
:101AC0000000000000000000000000000000000016
:041DF000E4040020E7
:040000050800091DC9
:00000001FF
