:020000040800F2
:100000000000022025110008D1060008D3060008D0
:10001000D5060008D7060008D90600080000000031
:10002000000000000000000000000000DB060008E7
:10003000DD06000800000000DF060008E1060008F9
:100040007511000875110008751100087511000878
:100050007511000875110008E9060008F30600088C
:100060007511000875110008751100087511000858
:100070007511000875110008751100087511000848
:100080007511000875110008751100087511000838
:100090007511000875110008751100087511000828
:1000A0007511000875110008751100087511000818
:1000B0007511000875110008751100087511000808
:1000C00075110008751100087511000875110008F8
:1000D00075110008751100087511000875110008E8
:1000E00075110008751100087511000875110008D8
:1000F00075110008751100087511000875110008C8
:1001000075110008751100087511000875110008B7
:1001100075110008751100087511000875110008A7
:100120007511000875110008751100087511000897
:1001300075110008000000000000000075110008A3
:100140007511000875110008751100087511000877
:100150007511000875110008751100087511000867
:100160007511000875110008751100087511000857
:1001700075110008751100087511000800000000D5
:1001800000000000751100080000000000000000E1
:100190007511000800000000000000007511000843
:1001A00000000000000000000000000075110008C1
:1001B0007511000875110008751100087511000807
:0401C00075110008AD
:1001C40010B5054C237833B9044B13B10448AFF38D
:1001D40000800123237010BD3C04002000000000B7
:1001E4004013000808B5034B1BB103490348AFF3A0
:1001F400008008BD000000004004002040130008F7
:1002040053B94AB9002908BF00281CBF4FF0FF3179
:100214004FF0FF3000F06CB9ADF1080C6DE904CE7D
:1002240000F006F8DDF804E0DDE9022304B07047CD
:100234002DE9F047089E0D4604468E46002B40F0FB
:1002440082808A42174646D9B2FA82F24AB1C2F192
:10025400200105FA02F320FA01F1974041EA030E66
:1002640094404FEA1748230CBEFBF8FCB9B208FBD4
:100274001CEE43EA0E430CFB01F098420AD9FB182A
:100284000CF1FF3580F01681984240F21381ACF1F5
:10029400020C3B441B1AA4B2B3FBF8F008FB103366
:1002A40044EA034400FB01F1A14209D93C1900F1DD
:1002B400FF3380F00181A14240F2FE8002383C44C9
:1002C400641A40EA0C4000211EB1D4400023C6E960
:1002D4000043BDE8F08702B9FFDEB2FA82F2002AD9
:1002E4004FD1CB1B4FEA174E1FFA87F80121B3FBFE
:1002F400FEFC250C0EFB1C3345EA034508FB0CF3FE
:10030400AB4207D97D190CF1FF3002D2AB4200F2A7
:10031400E7808446ED1AA3B2B5FBFEF00EFB105540
:1003240043EA054408FB00F8A04507D93C1900F14D
:10033400FF3302D2A04500F2D7801846A4EB08048C
:1003440040EA0C40C0E78B4208D9002E00F0AF8091
:100354000021C6E900050846BDE8F087B3FA83F139
:1003640000294BD1AB4202D3824200F2B780841AF7
:1003740065EB030301209E46002EAAD0C6E9004E79
:10038400A7E7C2F1200C01FA02F3974020FA0CF01F
:100394004FEA174E21FA0CFC1843BCFBFEF1050C86
:1003A4000EFB11CC1FFA87F845EA0C4501FB08F354
:1003B400AB4204FA02F409D97D1901F1FF3C80F043
:1003C4008B80AB4240F2888002393D44EB1A85B2FF
:1003D400B3FBFEF00EFB103345EA034500FB08F3C4
:1003E400AB4207D97D1900F1FF3C71D2AB426FD902
:1003F40002383D44EB1A40EA014178E7C1F1200C90
:100404008B4022FA0CF71F4320FA0CF405FA01F38F
:100414004FEA174E25FA0CF51C43230CB5FBFEF9E5
:100424001FFA87F80EFB195543EA054509FB08FA3C
:10043400AA4502FA01F200FA01F308D97D1909F17B
:10044400FF3047D2AA4545D9A9F102093D44A5EB9D
:100454000A05A4B2B5FBFEF00EFB105544EA0544B0
:1004640000FB08F8A04507D93C1900F1FF352DD24F
:10047400A0452BD902383C4440EA0940A4EB0804C7
:10048400A0FB02894C45C6464D4619D316D05EB131
:10049400B3EB0E0264EB050404FA0CFCCA404CEA0C
:1004A4000202CC40C6E900240021BDE8F0873146B1
:1004B40030460EE7AC46EDE6184601E74345E6D282
:1004C400B8EB020E69EB07050138E0E72846D3E7ED
:1004D40060468FE78146BAE7614677E708464BE70F
:1004E400ACF1020C3D4415E702383C4426E700BF5A
:1004F400704700BF2DE9F04188B0002403940494B0
:100504000594069407940094364B1A6B42F0040247
:100514001A631A6B02F004020092009A01941A6B97
:1005240042F001021A631A6B02F001020192019A6D
:1005340002941A6B42F002021A631B6B03F002036B
:100544000293029BDFF8A88001224FF478714046A1
:1005540000F074FA244F01224FF48861384600F009
:100564006DFA224E01228021304600F067FA0323FF
:1005740003934FF4041304930125059503A930460E
:1005840000F078F94FF47873039304950595069475
:1005940003A9404600F06EF94FF488630393049571
:1005A4000595069403A9384600F064F98023039363
:1005B40004950595069403A9304600F05BF922469C
:1005C4002146062000F0FEF8062000F02FF922460E
:1005D4002146072000F0F6F8072000F027F908B0BC
:1005E400BDE8F081003802400004024000080240E7
:1005F4000000024072B6FEE700B595B03422002137
:1006040007A800F0DBFD00230293039304930593F2
:1006140006930093194A116C41F080511164126CD5
:1006240002F080520092009A019315490A6822F45C
:10063400404242F480420A600A6802F44042019255
:10064400019A0222079201220A9210220B920D9320
:1006540007A800F045FB68B90F230293002103911A
:1006640004910591069102A800F0FEF920B915B095
:100674005DF804FBFFF7BEFFFFF7BCFF0038024044
:100684000070004008B500F05FF8FFF7B5FFFFF712
:1006940031FFFEE782B0002100910B4B5A6C42F40B
:1006A40080425A645A6C02F480420092009A01918A
:1006B4001A6C42F080521A641B6C03F0805301934D
:1006C400019B02B0704700BF00380240FEE7FEE71E
:1006D400FEE7FEE7FEE770477047704708B500F095
:1006E4004DF808BD08B5012000F0B0F908BD08B503
:1006F400022000F0ABF908BD7047000010B50446B5
:100704000E4B18784FF47A73B3FBF0F30C4A10686D
:10071400B0FBF3F000F098F868B90F2C01D9012070
:100724000AE0002221464FF0FF3000F04BF8054B61
:100734001C60002000E0012010BD00BF0400002068
:10074400000000200800002008B50B4B1A6842F492
:1007540000721A601A6842F480621A601A6842F4DD
:1007640080721A60032000F01BF80F20FFF7C6FF09
:10077400FFF790FF002008BD003C0240034A1168C7
:10078400034B1B780B441360704700BF58040020D0
:1007940004000020014B1868704700BF5804002073
:1007A400074AD36823F4E0631B041B0C000200F423
:1007B400E060034343F0BF6343F40033D360704706
:1007C40000ED00E030B4174BDB68C3F30223C3F140
:1007D4000704042C28BF04241D1D062D18D9033B2F
:1007E4004FF0FF3505FA04F421EA0401994005FAB3
:1007F40003F322EA0303194300280BDB0901C9B2FE
:1008040000F1604000F5614080F8001330BC70478F
:100814000023E5E700F00F000901C9B2024B1954A7
:10082400F4E700BF00ED00E014ED00E0002807DB72
:1008340000F01F02400901239340024A42F820308D
:10084400704700BF00E100E00138B0F1807F0AD2B8
:10085400064B5860064AF02182F823100020986065
:1008640007221A6070470120704700BF10E000E0C3
:1008740000ED00E000230F2B00F2D780F0B482B02B
:100884005DE086685F000324BC4026EA0406CC6869
:10089400BC4034438460466826EA02064C68C4F3CC
:1008A40000129A403243426057E0DC08083450F8A2
:1008B400247003F0070296000F22B24027EA0207D1
:1008C4000A69B2403A4340F824205AE0062200E084
:1008D4000022B2403A430234544E46F82420544A8B
:1008E4009468EA4324EA05064F6817F4801F01D090
:1008F40045EA04064E4CA660E46802EA04064F6822
:1009040017F4001F01D045EA0406494CE660646808
:1009140002EA04064F6817F4003F01D045EA0406D2
:10092400434C6660246822404E6816F4803F01D030
:1009340045EA04023E4C226001330F2B72D8012297
:100944009A400C6804EA020532EA0404F4D14C68C3
:1009540004F00304013C012C93D94A6802F0030219
:10096400032A09D0C4685E000322B24024EA0204C8
:100974008A68B2402243C2604A6802F00302022A33
:1009840093D004685E000322B24024EA02044A6859
:1009940002F00302B240224302604A6812F4403F6C
:1009A400CAD000220192234A546C44F48044546413
:1009B400526C02F480420192019A9C08A61C1B4AC4
:1009C40052F8267003F0030296000F22B24027EA81
:1009D4000207194A90423FF47BAF02F580629042CD
:1009E40016D002F58062904214D002F580629042E3
:1009F40012D002F58062904210D002F580629042DB
:100A04000ED002F5806290423FF460AF072260E7A7
:100A140001225EE702225CE703225AE7042258E738
:100A2400052256E702B0F0BC704770470038014019
:100A3400003C014000380240000002400AB18161DC
:100A440070470904816170477047000008B5054B81
:100A54005B69034200D108BD024B5861FFF7F4FF04
:100A6400F9E700BF003C0140002800F09B8070B50E
:100A74000D4604464F4B1B6803F00F038B4208D20C
:100A8400CBB24C4A1370136803F00F038B4240F04F
:100A94008B80236813F0020F17D013F0040F04D0D7
:100AA400454A936843F4E0539360236813F0080FB6
:100AB40004D0414A936843F4604393603E4A936888
:100AC40023F0F003A1680B439360236813F0010F34
:100AD40032D06368012B21D09A1E012A25D9364AC7
:100AE400126812F0020F61D033498A6822F00302BF
:100AF40013438B60FFF74EFE06462F4B9B6803F0B3
:100B04000C036268B3EB820F16D0FFF743FE801B21
:100B140041F288339842F0D9032042E0264A126811
:100B240012F4003FE0D101203BE0234A126812F0A6
:100B3400007FD9D1012034E01E4B1B6803F00F0362
:100B4400AB4207D9EAB21B4B1A701B6803F00F03C0
:100B5400AB422DD1236813F0040F06D0164A9368D4
:100B640023F4E053E1680B439360236813F0080F08
:100B740007D0114A936823F46043216943EAC1030F
:100B8400936000F021F80C4B9B68C3F303130B4AEA
:100B9400D35CD8400A4B18600A4B1868FFF7AEFDC7
:100BA400002070BD012070470120FAE70120F8E71A
:100BB4000120F6E7003C02400038024058130008C8
:100BC4000000002008000020F8B5424B9B6803F0A9
:100BD4000C03082B07D00C2B41D0042B01D03E482A
:100BE400F8BD3E48FCE73B4B5A6802F03F025B68A5
:100BF40013F4800F12D0374B5968C1F388110023C6
:100C04003648A1FB0001FFF7FBFA324B5B68C3F3E4
:100C1400014301335B00B0FBF3F0E1E72D4B5B686C
:100C2400C3F3881358010021C01A61F100018E0139
:100C340046EA906687013C1A66EB0105E90041EA41
:100C44005471E000C01841F100018B0243EA905353
:100C54008402204619460023FFF7D2FAD5E71D4B3C
:100C64005A6802F03F025B6813F4800F10D0194BEE
:100C74005968C1F3881100231848A1FB0001FFF74C
:100C8400BFFA144B5B68C3F30273B0FBF3F0A7E73E
:100C9400104B5B68C3F388135C010025E41A65F10B
:100CA4000005AE0146EA9466A701381B66EB050110
:100CB400CC0044EA5074C500E81844F100018B02EA
:100CC40043EA90538402204619460023FFF798FA1A
:100CD400D7E700BF003802400024F40040787D01CB
:100CE400002800F0018270B582B00446036813F056
:100CF400010F41D0A54B9B6803F00C03042B32D0A9
:100D0400A24B9B6803F00C03082B27D09F4B9B68D6
:100D140003F00C030C2B59D06368B3F5803F5BD010
:100D2400B3F5A02F5ED0994B1A6822F480321A6072
:100D34001A6822F480221A606368002B5CD0FFF7E3
:100D440029FD0546914B1B6813F4003F14D1FFF7AE
:100D540021FD401B6428F5D90320CCE18B4B5B6853
:100D640013F4800FD2D0894B1B6813F4003F03D0D7
:100D74006368002B00F0BA81236813F0020F60D07F
:100D8400824B9B6813F00C0F4AD0804B9B6803F096
:100D94000C03082B3FD07D4B9B6803F00C030C2BFA
:100DA40068D0E368002B74D0794B01221A60FFF7F6
:100DB400F1FC0546754B1B6813F0020F60D1FFF779
:100DC400E9FC401B0228F5D9032094E16F4B5B68D2
:100DD40013F4800FA0D0C6E76C4A136843F4803341
:100DE4001360A9E7694B1A6842F480221A601A68F2
:100DF40042F480321A609FE7FFF7CCFC0546634B50
:100E04001B6813F4003FB7D0FFF7C4FC401B6428F1
:100E1400F5D903206FE15D4B5B6813F4800FBAD101
:100E24005A4B1B6813F0020F03D0E368012B40F008
:100E34005F81564A136823F0F803216943EAC1032A
:100E44001360236813F0080F47D06369002B32D076
:100E5400504B01221A60FFF79DFC05464B4B5B6F1C
:100E640013F0020F39D1FFF795FC401B0228F5D986
:100E7400032040E1454B5B6813F4800F91D1CFE729
:100E8400424A136823F0F803216943EAC10313605B
:100E9400D7E73F4B00221A60FFF77CFC05463B4B2B
:100EA4001B6813F0020FCCD0FFF774FC401B022820
:100EB400F5D903201FE1374B00221A60FFF76AFCC3
:100EC4000546324B5B6F13F0020F06D0FFF762FC4E
:100ED400401B0228F5D903200DE1236813F0040F09
:100EE40078D02A4B1B6C13F0805F33D1002301931D
:100EF400264B1A6C42F080521A641B6C03F0805328
:100F04000193019B0125244B1B6813F4807F23D09C
:100F1400A368012B34D0052B40D01C4B1A6F22F050
:100F240001021A671A6F22F004021A67A368002BE1
:100F34003ED0FFF72FFC0646144B1B6F13F0020F35
:100F440047D1FFF727FC801B41F288339842F3D93D
:100F54000320D0E00025D6E70F4A136843F48073DA
:100F64001360FFF717FC06460B4B1B6813F4807FD6
:100F7400CED1FFF70FFC801B0228F5D90320BAE07D
:100F8400024A136F43F001031367CFE700380240AE
:100F940000004742800E4742007000405E4B1A6FCB
:100FA40042F004021A671A6F42F001021A67BDE7A1
:100FB400FFF7F0FB0646584B1B6F13F0020F08D0E7
:100FC400FFF7E8FB801B41F288339842F3D90320F2
:100FD40091E0EDB9A369002B00F08C804E4A926831
:100FE40002F00C02082A54D0022B17D04B4B0022DB
:100FF4001A60FFF7CFFB0446474B1B6813F0007FD2
:1010040045D0FFF7C7FB001B0228F5D9032072E087
:10101400414A136C23F080531364DBE73F4B0022F7
:101024001A60FFF7B7FB05463B4B1B6813F0007FC4
:1010340006D0FFF7AFFB401B0228F5D903205AE086
:10104400E369226A1343626A43EA8213A26A52087A
:10105400013A43EA0243E26A43EA0263226B43EA47
:1010640002732D4A53602D4B01221A60FFF792FB45
:101074000446294B1B6813F0007F06D1FFF78AFB57
:10108400001B0228F5D9032035E0002033E00020BE
:1010940031E0012B31D0204B5B6803F48001E2691D
:1010A40091422CD103F03F02216A8A4229D1616A1C
:1010B40047F6C0721A40B2EB811F24D103F44031C9
:1010C400A26A5208013AB1EB024F1ED103F07062DA
:1010D400E16AB2EB016F1AD103F0E043226BB3EB88
:1010E400027F16D1002006E001207047012002E0B3
:1010F400012000E0002002B070BD0120FBE70120C8
:10110400F9E70120F7E70120F5E70120F3E70120E3
:10111400F1E70120EFE700BF0038024060004742DA
:10112400DFF834D00D480E490E4A002302E0D458AB
:10113400C4500433C4188C42F9D30B4A0B4C00231B
:1011440001E013600432A242FBD3FFF7D5FA00F0AA
:1011540011F8FFF797FA7047000002200000002002
:101164003C040020801300083C040020800400207C
:10117400FEE7000070B50D4E0D4D761BB61006D07F
:10118400002455F8043B01349847A642F9D1094E8E
:10119400094D761B00F0D2F8B61006D0002455F89D
:1011A400043B01349847A642F9D170BD741300087A
:1011B400741300087C13000874130008F0B4860745
:1011C40046D0541E002A3CD0CAB2034601E0013C7A
:1011D40037D303F8012B9D07F9D1032C2AD9CDB2BB
:1011E40045EA05250F2C45EA054534D9A4F110023A
:1011F40022F00F0C03F120071609674403F11002D3
:1012040042E9045542E902551032BA42F8D1721C3F
:1012140014F00C0F03EB021204F00F0613D0331F6B
:1012240023F003030433134442F8045B9342FBD1D9
:1012340006F003042CB1CAB21C4403F8012B9C42EF
:10124400FBD1F0BC704734461346002CF3D1F8E7C9
:1012540014460346C1E71A462646E0E7024B13B19B
:10126400024800F005B87047000000008112000831
:10127400002301461A46184600F01AB838B5084B40
:10128400084D5B1B9C1007D0043B1D44013C55F8E2
:1012940004399847002CF9D1BDE8384000F054B81F
:1012A400801300087C130008704700BF704700BF1C
:1012B4002DE9F047DFF880A00646DAF800009846EA
:1012C4000F469146FFF7F0FF1A4B1B68D3F84841CD
:1012D40024B365681F2D26DC5EB9AB1C0135DAF832
:1012E4000000656044F82370FFF7E0FF0020BDE8CC
:1012F400F08704EB85030121C3F88890D4F8882192
:10130400A9400A43022EC4F88821C3F80881E4D115
:10131400D4F88C311943C4F88C11DEE703F5A674B4
:10132400C3F84841D5E7DAF80000FFF7BFFF4FF0F4
:10133400FF30DCE76813000838040020F8B500BF6C
:10134400F8BC08BC9E467047F8B500BFF8BC08BCA2
:041354009E467047FA
:10135800000000000000000001020304060708095D
:041368001000002051
:08136C00C8EEFF7F0100000044
:0813740061120008E901000804
:04137C00C50100089F
:101380000024F40001000000100000000000000034
:1013900000000000FC02002064030020CC030020B9
:1013A000000000000000000000000000000000003D
:1013B000000000000000000000000000000000002D
:1013C000000000000000000000000000000000001D
:1013D000000000000000000000000000000000000D
:1013E00000000000000000000000000000000000FD
:1013F00000000000000000000000000000000000ED
:1014000000000000000000000000000000000000DC
:1014100000000000000000000000000000000000CC
:1014200000000000000000000000000000000000BC
:1014300000000000000000000100000000000000AB
:101440000E33CDAB34126DE6ECDE05000B00000070
:10145000000000000000000000000000000000008C
:10146000000000000000000000000000000000007C
:10147000000000000000000000000000000000006C
:10148000000000000000000000000000000000005C
:0C17B00000000000000000005C040020AD
:0400000508001125B9
:00000001FF
