:020000040800F2
:1000000000000220C50F0008790F00087B0F0008D0
:100010007D0F00087F0F0008810F0008000000001E
:10002000000000000000000000000000830F000836
:10003000850F000800000000870F0008890F0008E6
:1000400015100008151000081510000815100008FC
:1000500015100008151000081510000815100008EC
:1000600015100008151000081510000815100008DC
:1000700015100008151000081510000815100008CC
:1000800015100008151000081510000815100008BC
:1000900015100008151000081510000815100008AC
:1000A000151000081510000815100008151000089C
:1000B000151000081510000815100008151000088C
:1000C000151000081510000815100008151000087C
:1000D0001510000815100008910F000815100008F1
:1000E000151000081510000815100008151000085C
:1000F000151000081510000815100008151000084C
:10010000151000081510000815100008151000083B
:100110001510000815100008A10F0008B10F000805
:10012000151000081510000815100008151000081B
:100130001510000800000000000000001510000865
:1001400015100008151000081510000815100008FB
:1001500015100008151000081510000815100008EB
:1001600015100008151000081510000815100008DB
:1001700015100008151000081510000800000000F8
:100180000000000015100008000000000000000042
:100190001510000800000000000000001510000805
:1001A0000000000000000000000000001510000822
:1001B000151000081510000815100008151000088B
:0401C000151000080E
:1001C40010B5054C237833B9044B13B10448AFF38D
:1001D40000800123237010BD4404002000000000AF
:1001E4003C28000808B5034B1BB103490348AFF38F
:1001F400008008BD00000000480400203C280008DE
:1002040053B94AB9002908BF00281CBF4FF0FF3179
:100214004FF0FF3000F06CB9ADF1080C6DE904CE7D
:1002240000F006F8DDF804E0DDE9022304B07047CD
:100234002DE9F047089E0D4604468E46002B40F0FB
:1002440082808A42174646D9B2FA82F24AB1C2F192
:10025400200105FA02F320FA01F1974041EA030E66
:1002640094404FEA1748230CBEFBF8FCB9B208FBD4
:100274001CEE43EA0E430CFB01F098420AD9FB182A
:100284000CF1FF3580F01681984240F21381ACF1F5
:10029400020C3B441B1AA4B2B3FBF8F008FB103366
:1002A40044EA034400FB01F1A14209D93C1900F1DD
:1002B400FF3380F00181A14240F2FE8002383C44C9
:1002C400641A40EA0C4000211EB1D4400023C6E960
:1002D4000043BDE8F08702B9FFDEB2FA82F2002AD9
:1002E4004FD1CB1B4FEA174E1FFA87F80121B3FBFE
:1002F400FEFC250C0EFB1C3345EA034508FB0CF3FE
:10030400AB4207D97D190CF1FF3002D2AB4200F2A7
:10031400E7808446ED1AA3B2B5FBFEF00EFB105540
:1003240043EA054408FB00F8A04507D93C1900F14D
:10033400FF3302D2A04500F2D7801846A4EB08048C
:1003440040EA0C40C0E78B4208D9002E00F0AF8091
:100354000021C6E900050846BDE8F087B3FA83F139
:1003640000294BD1AB4202D3824200F2B780841AF7
:1003740065EB030301209E46002EAAD0C6E9004E79
:10038400A7E7C2F1200C01FA02F3974020FA0CF01F
:100394004FEA174E21FA0CFC1843BCFBFEF1050C86
:1003A4000EFB11CC1FFA87F845EA0C4501FB08F354
:1003B400AB4204FA02F409D97D1901F1FF3C80F043
:1003C4008B80AB4240F2888002393D44EB1A85B2FF
:1003D400B3FBFEF00EFB103345EA034500FB08F3C4
:1003E400AB4207D97D1900F1FF3C71D2AB426FD902
:1003F40002383D44EB1A40EA014178E7C1F1200C90
:100404008B4022FA0CF71F4320FA0CF405FA01F38F
:100414004FEA174E25FA0CF51C43230CB5FBFEF9E5
:100424001FFA87F80EFB195543EA054509FB08FA3C
:10043400AA4502FA01F200FA01F308D97D1909F17B
:10044400FF3047D2AA4545D9A9F102093D44A5EB9D
:100454000A05A4B2B5FBFEF00EFB105544EA0544B0
:1004640000FB08F8A04507D93C1900F1FF352DD24F
:10047400A0452BD902383C4440EA0940A4EB0804C7
:10048400A0FB02894C45C6464D4619D316D05EB131
:10049400B3EB0E0264EB050404FA0CFCCA404CEA0C
:1004A4000202CC40C6E900240021BDE8F0873146B1
:1004B40030460EE7AC46EDE6184601E74345E6D282
:1004C400B8EB020E69EB07050138E0E72846D3E7ED
:1004D40060468FE78146BAE7614677E708464BE70F
:1004E400ACF1020C3D4415E702383C4426E700BF5A
:1004F400704700BF2DE9F04188B0002403940494B0
:100504000594069407940094324B1A6B42F001024E
:100514001A631A6B02F001020092009A01941A6B9A
:1005240042F002021A631A6B02F002020192019A6B
:1005340002941A6B42F004021A631B6B03F0040367
:100544000293029B244F22464FF47071384600F008
:100554005FFF224E22464FF48861304600F058FF78
:10056400DFF87C8022468021404600F051FF4FF4A2
:1005740070730393012504950594069403A93846E2
:1005840000F062FE4FF48863039304950594069487
:1005940003A9304600F058FE802303930495059484
:1005A400069403A9404600F04FFE4FF48063039382
:1005B4000494059503A9384600F046FE38230393B6
:1005C4000494059503A9304600F03EFE08B0BDE84A
:1005D400F08100BF003802400000024000040240E5
:1005E4000008024038B5054600240AE000228021B4
:1005F4000D4800F00DFF012240210B4800F008FFD8
:100604000134072C0EDC00224021074800F000FFD3
:10061400802323411D42E9D001228021024800F0B9
:10062400F7FEE8E738BD00BF00000240F0B587B030
:100634000446B84B1868B84BA3FB0023DB0AB74A3F
:10064400A2FB0312120902EB4202A3EBC2024FF413
:10065400616101FB1201B24BA3FB01514D09A3FBE4
:1006640000135B09C3EB0313A0EB8303AD49A1FBA8
:100674000260C008009000EB8000A2EB40020192EF
:10068400A1FB0502D208029202EB8202A5EB420210
:100694000392A1FB0312D208049202EB8202A3EBA1
:1006A400420205920E2C00F085800C2C00F089800B
:1006B400C4B99D4B1A789D4B53F822109C4B9B5CFC
:1006C400012090FBF3F003FB00F3C3F1010306A840
:1006D40000EB820252F8182C9B1A8E4A106803FB16
:1006E40001031360012C78D0022C00F09080042CBC
:1006F40000F0A780052C00F0BE80062C00F0D58009
:10070400082C00F0EC80092C00F022810A2C00F067
:1007140039810D2C00F050817E4B1A688549A1FB6C
:100724000201090C844800FB112119607A4BA3FBD8
:100734000123DB0A794AA2FB0302120902EB4202FB
:10074400A3EBC2024FF4616606FB1216744BA3FBC3
:1007540006067609A3FB01035B09C3EB0313A1EBB4
:1007640083037049A1FB0204E408744D2F5D7448AF
:10077400C77104EB8404A2EB4402AA5C8271BF2417
:100784004471A1FB0672D208AF5C077102EB8202CE
:10079400A6EB4202AA5CC2708470A1FB0312D208C9
:1007A400A95C417002EB8202A3EB4202AB5C0370D2
:1007B40007B0F0BD634801F0B3F9634B00221A702F
:1007C40073E759490A780132604B83FB020303EB58
:1007D4004303A2EB43030B706AE7534B1A78534B62
:1007E40053F82210524B9B5C022090FBF3F003FB66
:1007F40000F3C3F1020306A800EB820252F8182C9E
:100804009B1A444A106803FB010313606CE7464BD0
:100814001A78464B53F82210454B9B5C032090FBFF
:10082400F3F003FB00F3C3F1030306A800EB820219
:1008340052F8182C9B1A374A106803FB0103136003
:1008440055E7394B1A78394B53F82210384B9B5CD7
:10085400042090FBF3F003FB00F3C3F1040306A8A8
:1008640000EB820252F8182C9B1A2A4A106803FBE8
:10087400010313603EE72C4B1A782C4B53F82210DB
:100884002B4B9B5C052090FBF3F003FB00F3C3F1BF
:10089400050306A800EB820252F8182C9B1A1D4A85
:1008A400106803FB0103136027E71F4B1A781F4BE3
:1008B40053F822101E4B9B5C062090FBF3F003FBC5
:1008C40000F3C3F1060306A800EB820252F8182CC9
:1008D4009B1A104A106803FB0103136010E7124BC4
:1008E4001A78124B53F82210114B9B5C072090FB93
:1008F400F3F003FB00F3C3F1070306A800EB820245
:1009040052F8182C9B1A034A106803FB0103136066
:10091400F9E600BF4C050020C5B3A291ABAAAAAA70
:1009240089888888CDCCCCCC630400208C2800082E
:100934008428000807452EC2805101006828000859
:1009440000000020640400204B050020ABAAAA2A62
:10095400214B1A78214B53F82210214B9B5C082021
:1009640090FBF3F003FB00F3C3F1080306A800EBCC
:10097400820252F8182C9B1A1A4A106803FB0103CE
:100984001360C3E6144B1A78144B53F82210144B1B
:100994009B5C092090FBF3F003FB00F3C3F1090314
:1009A40006A800EB820252F8182C9B1A0D4A106814
:1009B40003FB01031360ACE6074B1B78074A52F8AC
:1009C400232006A901EB830353F8183C0549086862
:1009D40003FB12030B609FE6630400208C280008CD
:1009E400842800084C050020F8B504460268494BE9
:1009F4009A4204D02268484B9A423DD0F8BD002266
:100A04004021464800F004FD454B1B78454AD05C24
:100A1400454A1278012A23D0FFF7E4FD404D287897
:100A2400012606FA00F0C0B2FFF7DCFD3246402191
:100A34003A4800F0EDFC2B78334403F007032B70A5
:100A44003A4A138833449BB21380B3F5FA7FD1D367
:100A5400134600221A80364A137873401370C9E78C
:100A6400344A127834498A5C9342D5D1304B1B788E
:100A7400002BD1D1FF20CFE7304A1368013330492E
:100A8400A1FB0301090C2F4800FB113111602E4B0F
:100A9400A3FB0123DB0A2D4AA2FB0302120902EB8A
:100AA4004202A3EBC2024FF4616606FB1216284B06
:100AB400A3FB06067609A3FB01035809C0EB001348
:100AC400A1EB8300234BA3FB0241C908224D6F5CB9
:100AD400144CE77101EB8101A2EB4102AA5CA27103
:100AE400BF216171A3FB0672D208AF5C277102EBD0
:100AF4008202A6EB4202AA5CE270A170A3FB00236F
:100B0400DB08EA5C627003EB8303A0EB4303EB5C5A
:100B1400237073E7001400400010004000040240FA
:100B240062040020000000204B0500206004002027
:100B340008000020630400207C2800084C050020E5
:100B440007452EC280510100C5B3A291ABAAAAAA3F
:100B540089888888CDCCCCCC6828000808B5026880
:100B6400174B9A4200D008BD164B1B78DBB2164ACD
:100B7400D35CDBB20D2B0CD00A2B0AD0114B1B78A3
:100B8400DBB20E2B13D80F4A13780133DBB2137088
:100B94000DE00C4B1B783BB10A4B1B78DBB20B4AC4
:100BA40013700B4B01221A70064B00221A70054B6E
:100BB4001B78012204491944064801F03CFDD2E7A0
:100BC4000044004049050020380500204805002065
:100BD4004A050020F404002072B6FEE700B583B095
:100BE4000023009301930E480E4A026040F23F62D4
:100BF400426083600922C260836101F0FBF850B94E
:100C04000023009301936946054801F01FF920B9B8
:100C140003B05DF804FBFFF7DFFFFFF7DDFF00BF64
:100C2400AC0400200014004000B583B000230093FE
:100C340001930E480E4A026043F67F62426083606D
:100C440040F2E732C260836101F0D4F850B9002366
:100C5400009301936946054801F0F8F820B903B000
:100C64005DF804FBFFF7B8FFFFF7B6FF640400204C
:100C74000010004008B50A480A4B03604FF4E13302
:100C8400436000238360C36003610C22426183617B
:100C9400C36101F04FFA00B908BDFFF79DFF00BF23
:100CA400F40400200044004000B595B03422002133
:100CB40007A801F001FD0023029303930493059315
:100CC40006930093194A116C41F080511164126C1F
:100CD40002F080520092009A019315490A6822F4A6
:100CE400404242F480420A600A6802F4404201929F
:100CF400019A0222079201220A9210220B920D936A
:100D040007A800F0EDFC68B90F23029300210391BA
:100D140004910591069102A800F080FB20B915B05A
:100D24005DF804FBFFF758FFFFF756FF0038024059
:100D34000070004010B500F093F9FFF7B5FFFFF71E
:100D4400D9FBFFF74BFFFFF76FFFFFF793FF334824
:100D540000F0E6FE324800F0E3FE324B1B7801223D
:100D640031491944314801F066FC0FE04FF0FF337C
:100D740005222F492D4801F00CFA06E04FF0FF330D
:100D840003222C49294801F004FA30BF2A4B1B786E
:100D9400002BFAD0284B00221A70234B1B78DBB2AD
:100DA400542BEBD1254B1B78DBB2062BE6D91E491D
:100DB4004A788B7802EB820250000344DBB2103B8A
:100DC400DBB2C8780A7900EB800044002244D2B236
:100DD400103AD2B24879897900EB8000440021446A
:100DE400C9B21039C9B2172BC0D83B2ABED83B2987
:100DF400BCD8C2EB021290004FF4616202FB030301
:100E040019440F4B19600D20FFF710FC4FF0FF330E
:100E140004220C49054801F0BCF9B6E7AC040020F3
:100E2400640400204905002038050020F404002053
:100E34005C280008642800084A05002048050020B2
:100E44004C0500205428000882B0002100910B4B6F
:100E54005A6C42F480425A645A6C02F48042009202
:100E6400009A01911A6C42F080521A641B6C03F0D0
:100E740080530193019B02B0704700BF00380240C9
:100E840000B583B00368184A934205D0174A9342C9
:100E940016D003B05DF804FB00210091144B1A6CCA
:100EA40042F010021A641B6C03F010030093009BC1
:100EB4000A46362000F012F9362000F043F9E8E73C
:100EC400002101910A4B1A6C42F020021A641B6C37
:100ED40003F020030193019B0A46372000F0FEF83B
:100EE400372000F02FF9D4E7001000400014004030
:100EF4000038024010B588B000230393049305938F
:100F0400069307930268194B9A4201D008B010BDAA
:100F14000024019403F5FA331A6C42F400321A6483
:100F24001A6C02F400320192019A02941A6B42F094
:100F340001021A631B6B03F001030293029B0C234F
:100F4400039302230493059403230693072307932F
:100F540003A9074800F078F922462146262000F02C
:100F6400BDF8262000F0EEF8D0E700BF00440040B2
:100F740000000240FEE7FEE7FEE7FEE7FEE77047FB
:100F84007047704708B500F085F808BD08B50248F9
:100F940001F0F4F908BD00BFF404002008B50248CC
:100FA40000F006FE08BD00BF6404002008B5024836
:100FB40000F0FEFD08BD00BFAC0400207047000037
:100FC400DFF834D00D480E490E4A002302E0D4580D
:100FD400C4500433C4188C42F9D30B4A0B4C00237D
:100FE40001E013600432A242FBD3FFF7E7FF01F0F4
:100FF4003FFBFFF79FFE7047000002200000002027
:1010040044040020D428000844040020780500206B
:10101400FEE7000010B504460E4B18784FF47A73BF
:10102400B3FBF0F30C4A1068B0FBF3F000F098F84F
:1010340068B90F2C01D901200AE0002221464FF0A3
:10104400FF3000F04BF8054B1C60002000E001204D
:1010540010BD00BF100000200C0000201400002070
:1010640008B50B4B1A6842F400721A601A6842F40D
:1010740080621A601A6842F480721A60032000F0D9
:101084001BF80F20FFF7C6FFFFF7DEFE002008BDA8
:10109400003C0240034A1168034B1B780B44136065
:1010A400704700BF5005002010000020014B186855
:1010B400704700BF50050020074AD36823F4E0635B
:1010C4001B041B0C000200F4E060034343F0BF6305
:1010D40043F40033D360704700ED00E030B4174BA5
:1010E400DB68C3F30223C3F10704042C28BF0424E0
:1010F4001D1D062D18D9033B4FF0FF3505FA04F4E6
:1011040021EA0401994005FA03F322EA030319438F
:1011140000280BDB0901C9B200F1604000F5614011
:1011240080F8001330BC70470023E5E700F00F009F
:101134000901C9B2024B1954F4E700BF00ED00E005
:1011440014ED00E0002807DB00F01F024009012332
:101154009340024A42F82030704700BF00E100E0AB
:101164000138B0F1807F0AD2064B5860064AF0215C
:1011740082F823100020986007221A60704701202B
:10118400704700BF10E000E000ED00E070B50446D9
:10119400866DFFF78BFF94F83530DBB2022B06D057
:1011A40080236365002384F83430012070BD054634
:1011B4002268136823F0160313602268536923F02E
:1011C40080035361236CE3B12268136823F008039E
:1011D40013602268136823F00103136023681B68FB
:1011E40013F0010F11D0FFF761FF431B052BF5D955
:1011F40020236365032084F83500002384F8343009
:10120400D4E7A36C002BDFD1E3E7E26D3F239340E7
:10121400B360012384F83530002084F83400C5E736
:1012240090F83530DBB2022B03D0802343650120D4
:101234007047052380F835300268136823F00103F2
:10124400136000207047000000230F2B00F2D780AA
:10125400F0B482B05DE086685F000324BC4026EAF7
:101264000406CC68BC4034438460466826EA02061F
:101274004C68C4F300129A403243426057E0DC08E1
:10128400083450F8247003F0070296000F22B2408D
:1012940027EA02070A69B2403A4340F824205AE098
:1012A400062200E00022B2403A430234544E46F88B
:1012B4002420544A9468EA4324EA05064F6817F444
:1012C400801F01D045EA04064E4CA660E46802EA99
:1012D40004064F6817F4001F01D045EA0406494C80
:1012E400E660646802EA04064F6817F4003F01D020
:1012F40045EA0406434C6660246822404E6816F4AE
:10130400803F01D045EA04023E4C226001330F2B9A
:1013140072D801229A400C6804EA020532EA0404F5
:10132400F4D14C6804F00304013C012C93D94A68BD
:1013340002F00302032A09D0C4685E000322B2400B
:1013440024EA02048A68B2402243C2604A6802F076
:101354000302022A93D004685E000322B24024EA06
:1013640002044A6802F00302B240224302604A685F
:1013740012F4403FCAD000220192234A546C44F430
:1013840080445464526C02F480420192019A9C0895
:10139400A61C1B4A52F8267003F0030296000F2283
:1013A400B24027EA0207194A90423FF47BAF02F5A4
:1013B4008062904216D002F58062904214D002F509
:1013C4008062904212D002F58062904210D002F501
:1013D400806290420ED002F5806290423FF460AF8A
:1013E400072260E701225EE702225CE703225AE754
:1013F400042258E7052256E702B0F0BC7047704754
:1014040000380140003C0140003802400000024026
:101414000AB181617047090481617047002800F0B6
:101424009B8070B50D4604464F4B1B6803F00F03B9
:101434008B4208D2CBB24C4A1370136803F00F03EB
:101444008B4240F08B80236813F0020F17D013F007
:10145400040F04D0454A936843F4E053936023682F
:1014640013F0080F04D0414A936843F46043936037
:101474003E4A936823F0F003A1680B43936023680A
:1014840013F0010F32D06368012B21D09A1E012A78
:1014940025D9364A126812F0020F61D033498A689E
:1014A40022F0030213438B60FFF700FE06462F4B26
:1014B4009B6803F00C036268B3EB820F16D0FFF74E
:1014C400F5FD801B41F288339842F0D9032042E0B5
:1014D400264A126812F4003FE0D101203BE0234A7F
:1014E400126812F0007FD9D1012034E01E4B1B6832
:1014F40003F00F03AB4207D9EAB21B4B1A701B6807
:1015040003F00F03AB422DD1236813F0040F06D070
:10151400164A936823F4E053E1680B43936023680D
:1015240013F0080F07D0114A936823F4604321692C
:1015340043EAC103936000F047F80C4B9B68C3F384
:1015440003130B4AD35CD8400A4B18600A4B186843
:10155400FFF760FD002070BD012070470120FAE70D
:101564000120F8E70120F6E7003C02400038024081
:10157400A42800080C00002014000020014B186867
:10158400704700BF0C00002008B5FFF7F7FF044BBD
:101594009B68C3F38223034AD35CD84008BD00BFD1
:1015A40000380240B428000808B5FFF7E7FF044BF1
:1015B4009B68C3F34233034AD35CD84008BD00BFE1
:1015C40000380240B4280008F8B5424B9B6803F089
:1015D4000C03082B07D00C2B41D0042B01D03E4820
:1015E400F8BD3E48FCE73B4B5A6802F03F025B689B
:1015F40013F4800F12D0374B5968C1F388110023BC
:101604003648A1FB0001FEF7FBFD324B5B68C3F3D8
:10161400014301335B00B0FBF3F0E1E72D4B5B6862
:10162400C3F3881358010021C01A61F100018E012F
:1016340046EA906687013C1A66EB0105E90041EA37
:101644005471E000C01841F100018B0243EA905349
:101654008402204619460023FEF7D2FDD5E71D4B30
:101664005A6802F03F025B6813F4800F10D0194BE4
:101674005968C1F3881100231848A1FB0001FEF743
:10168400BFFD144B5B68C3F30273B0FBF3F0A7E731
:10169400104B5B68C3F388135C010025E41A65F101
:1016A4000005AE0146EA9466A701381B66EB050106
:1016B400CC0044EA5074C500E81844F100018B02E0
:1016C40043EA90538402204619460023FEF798FD0E
:1016D400D7E700BF003802400024F40040787D01C1
:1016E400002800F0018270B582B00446036813F04C
:1016F400010F41D0A54B9B6803F00C03042B32D09F
:10170400A24B9B6803F00C03082B27D09F4B9B68CC
:1017140003F00C030C2B59D06368B3F5803F5BD006
:10172400B3F5A02F5ED0994B1A6822F480321A6068
:101734001A6822F480221A606368002B5CD0FFF7D9
:10174400B5FC0546914B1B6813F4003F14D1FFF719
:10175400ADFC401B6428F5D90320CCE18B4B5B68BE
:1017640013F4800FD2D0894B1B6813F4003F03D0CD
:101774006368002B00F0BA81236813F0020F60D075
:10178400824B9B6813F00C0F4AD0804B9B6803F08C
:101794000C03082B3FD07D4B9B6803F00C030C2BF0
:1017A40068D0E368002B74D0794B01221A60FFF7EC
:1017B4007DFC0546754B1B6813F0020F60D1FFF7E3
:1017C40075FC401B0228F5D9032094E16F4B5B683C
:1017D40013F4800FA0D0C6E76C4A136843F4803337
:1017E4001360A9E7694B1A6842F480221A601A68E8
:1017F40042F480321A609FE7FFF758FC0546634BBA
:101804001B6813F4003FB7D0FFF750FC401B64285B
:10181400F5D903206FE15D4B5B6813F4800FBAD1F7
:101824005A4B1B6813F0020F03D0E368012B40F0FE
:101834005F81564A136823F0F803216943EAC10320
:101844001360236813F0080F47D06369002B32D06C
:10185400504B01221A60FFF729FC05464B4B5B6F86
:1018640013F0020F39D1FFF721FC401B0228F5D9F0
:10187400032040E1454B5B6813F4800F91D1CFE71F
:10188400424A136823F0F803216943EAC103136051
:10189400D7E73F4B00221A60FFF708FC05463B4B95
:1018A4001B6813F0020FCCD0FFF700FC401B02288A
:1018B400F5D903201FE1374B00221A60FFF7F6FB2E
:1018C4000546324B5B6F13F0020F06D0FFF7EEFBB9
:1018D400401B0228F5D903200DE1236813F0040FFF
:1018E40078D02A4B1B6C13F0805F33D10023019313
:1018F400264B1A6C42F080521A641B6C03F080531E
:101904000193019B0125244B1B6813F4807F23D092
:10191400A368012B34D0052B40D01C4B1A6F22F046
:1019240001021A671A6F22F004021A67A368002BD7
:101934003ED0FFF7BBFB0646144B1B6F13F0020FA0
:1019440047D1FFF7B3FB801B41F288339842F3D9A8
:101954000320D0E00025D6E70F4A136843F48073D0
:101964001360FFF7A3FB06460B4B1B6813F4807F41
:10197400CED1FFF79BFB801B0228F5D90320BAE0E8
:10198400024A136F43F001031367CFE700380240A4
:1019940000004742800E4742007000405E4B1A6FC1
:1019A40042F004021A671A6F42F001021A67BDE797
:1019B400FFF77CFB0646584B1B6F13F0020F08D051
:1019C400FFF774FB801B41F288339842F3D903205C
:1019D40091E0EDB9A369002B00F08C804E4A926827
:1019E40002F00C02082A54D0022B17D04B4B0022D1
:1019F4001A60FFF75BFB0446474B1B6813F0007F3C
:101A040045D0FFF753FB001B0228F5D9032072E0F1
:101A1400414A136C23F080531364DBE73F4B0022ED
:101A24001A60FFF743FB05463B4B1B6813F0007F2E
:101A340006D0FFF73BFB401B0228F5D903205AE0F0
:101A4400E369226A1343626A43EA8213A26A520870
:101A5400013A43EA0243E26A43EA0263226B43EA3D
:101A640002732D4A53602D4B01221A60FFF71EFBAF
:101A74000446294B1B6813F0007F06D1FFF716FBC1
:101A8400001B0228F5D9032035E0002033E00020B4
:101A940031E0012B31D0204B5B6803F48001E26913
:101AA40091422CD103F03F02216A8A4229D1616A12
:101AB40047F6C0721A40B2EB811F24D103F44031BF
:101AC400A26A5208013AB1EB024F1ED103F07062D0
:101AD400E16AB2EB016F1AD103F0E043226BB3EB7E
:101AE400027F16D1002006E001207047012002E0A9
:101AF400012000E0002002B070BD0120FBE70120BE
:101B0400F9E70120F7E70120F5E70120F3E70120D9
:101B1400F1E70120EFE700BF0038024060004742D0
:101B240090F83D30DBB2012B37D1022380F83D30F1
:101B34000268D36843F00103D3600368194A9342EF
:101B440020D0B3F1804F1DD0A2F57C42934219D02E
:101B540002F58062934215D002F58062934211D05F
:101B640002F5784293420DD002F57052934209D0A7
:101B7400A2F59432934205D01A6842F001021A6029
:101B8400002070479A6802F00702062A07D01A68F4
:101B940042F001021A6000207047012070470020C3
:101BA400704700BF0000014070477047704770479E
:101BB40010B5044603681A6912F0020F11D0DA68EE
:101BC40012F0020F0DD06FF002021A6101230377A5
:101BD40003689B6913F0030F70D0FFF7E6FF00233F
:101BE400237723681A6912F0040F12D0DA6812F00E
:101BF400040F0ED06FF004021A61022323772368C6
:101C04009B6913F4407F5FD02046FFF7CEFF00238B
:101C1400237723681A6912F0080F12D0DA6812F0D9
:101C2400080F0ED06FF008021A610423237723688B
:101C3400DB6913F0030F4ED02046FFF7B6FF0023F5
:101C4400237723681A6912F0100F12D0DA6812F0A1
:101C5400100F0ED06FF010021A6108232377236847
:101C6400DB6913F4407F3DD02046FFF79EFF00233D
:101C7400237723681A6912F0010F03D0DA6812F08F
:101C8400010F36D123681A6912F0800F03D0DA6885
:101C940012F0800F34D123681A6912F0400F03D078
:101CA400DA6812F0400F32D123681A6912F0200F5B
:101CB40003D0DA6812F0200F30D110BDFFF774FFA3
:101CC4002046FFF773FF8AE72046FFF76DFF2046A3
:101CD400FFF76CFF9BE72046FFF766FF2046FFF700
:101CE40065FFACE72046FFF75FFF2046FFF75EFF86
:101CF400BDE76FF001021A612046FEF775FEC1E7E9
:101D04006FF080021A61204600F0E5F8C3E76FF037
:101D140040021A612046FFF74AFFC5E76FF0200230
:101D24001A61204600F0D6F8C7E700000368304A7D
:101D3400904212D0B0F1804F0FD0A2F57C42904275
:101D44000BD002F58062904207D002F58062904287
:101D540003D002F57842904203D123F070034A681D
:101D64001343234A90422AD0B0F1804F27D0A2F5E2
:101D74007C42904223D002F5806290421FD002F54B
:101D8400806290421BD002F57842904217D002F54F
:101D94007052904213D002F5806290420FD002F547
:101DA400806290420BD0A2F59832904207D002F59F
:101DB4008062904203D002F58062904203D123F402
:101DC4004073CA68134323F080034A6913430360D2
:101DD4008B68C3620B688362054B984203D003F59A
:101DE4008063984201D10B69036301234361704707
:101DF4000000014040B310B5044690F83D30F3B103
:101E0400022384F83D30214651F8040BFFF78EFF7E
:101E1400012384F8463084F83E3084F83F3084F857
:101E2400403084F8413084F8423084F8433084F8F8
:101E3400443084F8453084F83D30002010BD80F8EB
:101E44003C30FFF71DF8DBE70120704790F83C3089
:101E5400012B3BD030B4012380F83C30022380F8BE
:101E64003D3003685C689D6824F070040A6822436E
:101E74005A600368164A93421AD0B3F1804F17D0C0
:101E8400A2F57C42934213D002F5806293420FD0B4
:101E940002F5806293420BD002F57842934207D058
:101EA40002F57052934203D0A2F59432934204D1C6
:101EB40025F080054A6815439D60012380F83D3074
:101EC400002380F83C30184630BC7047022070472D
:101ED4000000014070477047026802F10C0353E8A8
:101EE400003F23F490730C3242E800310029F3D10F
:101EF400026802F1140353E8003F23F00103143293
:101F040042E800310029F3D1036B012B05D02023D3
:101F140080F83E30002303637047026802F10C032B
:101F240053E8003F23F010030C3242E8003100294B
:101F3400F3D1ECE790F83D30DBB2212B01D0022045
:101F440070478368B3F5805F17D0036A5A1C026236
:101F54001A7803685A60C38C9BB2013B9BB2C3845A
:101F64004BB90268D36823F08003D3600268D36856
:101F740043F04003D360002070470369002BE4D191
:101F8400036A1B880268C3F308035360036A0233BD
:101F94000362E0E770B504460268136923F4405312
:101FA400C1680B4313618368026913434269134395
:101FB400C2691A430168CB6823F4164323F00C0367
:101FC4001343CB600268536923F4407381690B4364
:101FD40053610368344A934206D002F58062934207
:101FE40002D0FFF7D1FA01E0FFF7DEFAE369B3F5B7
:101FF400004F2AD00026051846EB06012D1846EBA3
:102004000101CB0043EA5573EA001546194663689B
:102014009A009B0F281846EB0101FEF7F1F8234DB7
:10202400A5FB00325109642303FB11031B01323366
:10203400A5FB03235B0903F0F00202EB011203F09A
:102044000F03216813448B6070BD0026051846EB0E
:1020540006012D1846EB0101CB0043EA5573EA0053
:102064001546194662683346921846EB030328184E
:1020740046EB0101FEF7C4F80C4DA5FB00325109F3
:10208400642303FB1103DB003233A5FB03235B0949
:102094005A0002F4F87202EB011203F007032168FC
:1020A40013448B60D0E700BF001001401F85EB5143
:1020B4002DE9F84305460F4616469946DDF820807B
:1020C4002C68246837EA04030CBF01240024B442BA
:1020D4002DD1B8F1FF3FF3D0B8F1000F05D0FEF7D2
:1020E400E5FFA0EB09004045EAD92A6802F10C0398
:1020F40053E8003F23F4D0730C3242E80031002946
:10210400F3D12A6802F1140353E8003F23F00103DA
:10211400143242E800310029F3D1202385F83D3000
:1021240085F83E30002385F83C30032000E0002091
:10213400BDE8F88358B310B5044690F83D300BB3AE
:10214400242384F83D302268D36823F40053D360F9
:102154002046FFF71FFF2268136923F4904313619D
:102164002268536923F02A0353612268D36843F435
:102174000053D36000202064202384F83D3084F889
:102184003E3010BD80F83C30FEF7B4FED8E70120A5
:1021940070472DE9F04182B01E4690F83D30DBB225
:1021A400202B54D104460D469046002953D0002AD2
:1021B40053D090F83C30012B51D0012380F83C30AF
:1021C40000230364212380F83D30FEF76FFF0746A8
:1021D400A4F82480A4F82680A368B3F5805F05D012
:1021E4004FF00008002384F83C3012E0236913B157
:1021F4004FF00008F6E7A8460025F3E738F8023B5D
:102204002268C3F308035360E28C92B2013A92B29B
:10221400E284E38C9BB273B100963B46002280219A
:102224002046FFF745FFE0B9002DE7D015F8012B54
:1022340023685A60E8E700963B4600224021204686
:10224400FFF736FF78B9202384F83D3000E0022000
:1022540002B0BDE8F0810120FAE70120F8E702208E
:10226400F6E70320F4E70320F2E7704708B50168B6
:10227400CA6822F04002CA60202280F83D20FFF79D
:10228400F4FF002008BD704708B5806B0023C385A8
:10229400C384FFF7F8FF08BD704790F83E30DBB207
:1022A400222B67D18368B3F5805F4DD0826AB3F582
:1022B400805F04D0002B54D10369002B51D10368F3
:1022C4005B681370836A01338362C38D9BB2013BE5
:1022D4009BB2C385002B4FD100B583B00268D3688D
:1022E40023F02003D3600268D36823F48073D3609F
:1022F4000268536923F001035361202380F83E30C0
:10230400036B012B33D100230363026802F10C0336
:1023140053E8003F23F010030C3242E80031002957
:10232400F3D103681A6812F0100F06D0002201924C
:102334001A6801925B680193019B818DFFF7ACFFE2
:10234400002003B05DF804FB0269002AAED1826A62
:1023540003685B68C3F308031380836A02338362F0
:10236400B3E703685B6803F07F031370AAE7FEF723
:10237400F5FBE5E7022070470020704730B583B0D5
:10238400044602681368D068516913F00F0505D13B
:1023940013F0200F02D010F0200F19D12DB111F03D
:1023A400010119D110F4907F16D1216B01297DD040
:1023B40013F0800F03D010F0800F40F0158113F05C
:1023C400400F03D010F0400F40F0128103B030BD35
:1023D4002046FFF762FFF9E713F0010F06D010F46F
:1023E400807F03D0226C42F00102226413F0040FB8
:1023F40004D019B1226C42F00202226413F0020FDD
:1024040004D019B1226C42F00402226413F0080FC4
:1024140007D010F0200F00D119B1226C42F008024D
:102424002264226C002AD1D013F0200F02D010F0C5
:10243400200F29D123685B6903F04003226C12F05A
:10244400080F00D163B32046FFF746FD23685B699C
:1024540013F0400F20D0226802F1140353E8003F28
:1024640023F04003143242E800310029F3D1A36B76
:1024740073B1614A1A65A06BFEF7D2FE0028A5D09D
:10248400A06B036D9847A1E72046FFF706FFD1E74D
:102494002046FFF7F8FE99E72046FFF7F4FE95E79C
:1024A4002046FFF7F0FE002323648FE713F0100F9C
:1024B4003FF47EAF10F0100F3FF47AAF0023019386
:1024C4001368019353680193019B536913F0400F00
:1024D40050D0A26B13685B689BB2002B3FF476AFBD
:1024E400A18D99427FF672AFE385D369B3F5807FFE
:1024F40037D0226802F10C0353E8003F23F48073C1
:102504000C3242E800310029F3D1226802F11403AD
:1025140053E8003F23F00103143242E8003100295C
:10252400F3D1226802F1140353E8003F23F040037F
:10253400143242E800310029F3D1202384F83E30DC
:1025440000232363226802F10C0353E8003F23F0C5
:1025540010030C3242E800310029F3D1A06BFEF7DE
:1025640015FEA18DE38D9BB2C91A89B22046FFF7EF
:1025740093FE2BE7A18DE38D9BB2C91A89B2E38D3B
:102584009BB2002B3FF422AF00293FF41FAF226817
:1025940002F10C0353E8003F23F490730C3242E839
:1025A40000300028F3D1226802F1140353E8003FFD
:1025B40023F00103143242E800300028F3D1202331
:1025C40084F83E3000232363226802F10C0353E8AD
:1025D400003F23F010030C3242E800300028F3D10E
:1025E4002046FFF759FEF1E62046FFF7A3FCEDE68F
:1025F4002046FFF73BFEE9E68D22000881628285D2
:10260400C28500230364222280F83E2080F83C30F7
:10261400036923B10268D36843F48073D36002680A
:10262400536943F0010353610268D36843F0200304
:10263400D3600020704708B590F83E30DBB2202B01
:102644000DD171B17AB190F83C30012B0DD001233A
:1026540080F83C3000230363FFF7D0FF00E0022042
:1026640008BD0120FCE70120FAE70220F8E700009A
:1026740070B50D4E0D4D761BB61006D0002455F8DE
:10268400043B01349847A642F9D1094E094D761B03
:1026940000F0D2F8B61006D0002455F8043B0134FB
:1026A4009847A642F9D170BDC8280008C828000878
:1026B400D0280008C8280008F0B4860746D0541E65
:1026C400002A3CD0CAB2034601E0013C37D303F8E8
:1026D400012B9D07F9D1032C2AD9CDB245EA052552
:1026E4000F2C45EA054534D9A4F1100222F00F0C51
:1026F40003F120071609674403F1100242E9045567
:1027040042E902551032BA42F8D1721C14F00C0F8F
:1027140003EB021204F00F0613D0331F23F003035C
:102724000433134442F8045B9342FBD106F00304E0
:102734002CB1CAB21C4403F8012B9C42FBD1F0BC5F
:10274400704734461346002CF3D1F8E71446034689
:10275400C1E71A462646E0E7024B13B1024800F0EF
:1027640005B87047000000007D27000800230146DB
:102774001A46184600F01AB838B5084B084D5B1BCA
:102784009C1007D0043B1D44013C55F8043998477C
:10279400002CF9D1BDE8384000F054B8D428000822
:1027A400D0280008704700BF704700BF2DE9F047EC
:1027B400DFF880A00646DAF8000098460F469146F6
:1027C400FFF7F0FF1A4B1B68D3F8484124B3656840
:1027D4001F2D26DC5EB9AB1C0135DAF800006560FC
:1027E40044F82370FFF7E0FF0020BDE8F08704EB16
:1027F40085030121C3F88890D4F88821A9400A43AD
:10280400022EC4F88821C3F80881E4D1D4F88C31AD
:102814001943C4F88C11DEE703F5A674C3F84841E4
:10282400D5E7DAF80000FFF7BFFF4FF0FF30DCE731
:10283400BC28000840040020F8B500BFF8BC08BC60
:102844009E467047F8B500BFF8BC08BC9E4670476A
:102854004F4B0D0A000000004552520D0A000000C3
:102864003F0D0A00C0F9A4B0999282F88090888341
:10287400C6A1868EBF000000070604030100000005
:10288400030A060A060A0000A08C0000100E0000CD
:10289400580200003C0000000A0000000100000093
:1028A40000000000000000000102030406070809FC
:0C28B400000000000102030418000020D6
:0828C00074D9FF7F0100000044
:0828C8005D270008E90100088A
:0428D000C501000836
:1028D400FFFFFFFFFFFFFFFF010000000024F400E3
:1028E40001000000100000000000000004030020AC
:1028F4006C030020D403002000000000000000004E
:1029040000000000000000000000000000000000C3
:1029140000000000000000000000000000000000B3
:1029240000000000000000000000000000000000A3
:102934000000000000000000000000000000000093
:102944000000000000000000000000000000000083
:102954000000000000000000000000000000000073
:102964000000000000000000000000000000000063
:102974000000000000000000000000000000000053
:102984000000000000000000000000000000000043
:1029940001000000000000000E33CDAB34126DE6E0
:1029A400ECDE05000B000000000000000000000049
:1029B4000000000000000000000000000000000013
:1029C4000000000000000000000000000000000003
:1029D40000000000000000000000000000000000F3
:1029E40000000000000000000000000000000000E3
:042D14005405002042
:0400000508000FC51B
:00000001FF
