:020000040800F2
:1000000000000220551A0008D1190008D319000871
:10001000D5190008D7190008D919000800000000F8
:10002000000000000000000000000000DB190008D4
:10003000DD19000800000000DF190008E1190008C0
:10004000A51A0008A51A0008A51A0008A51A000894
:10005000A51A0008A51A0008A51A0008A51A000884
:10006000A51A0008A51A0008A51A0008A51A000874
:10007000A51A0008A51A0008A51A0008A51A000864
:10008000A51A0008A51A0008E9190008A51A000811
:10009000A51A0008A51A0008A51A0008A51A000844
:1000A000A51A0008A51A0008A51A0008A51A000834
:1000B000A51A0008A51A0008A51A0008A51A000824
:1000C000A51A0008A51A0008A51A0008A51A000814
:1000D000A51A0008A51A0008F9190008A51A0008B1
:1000E000A51A0008A51A0008A51A0008A51A0008F4
:1000F000A51A0008A51A0008A51A0008A51A0008E4
:10010000A51A0008A51A0008A51A0008A51A0008D3
:10011000A51A0008A51A0008A51A0008A51A0008C3
:10012000A51A0008A51A0008A51A0008A51A0008B3
:10013000A51A00080000000000000000A51A000831
:10014000A51A0008A51A0008A51A0008A51A000893
:10015000A51A0008A51A0008A51A0008A51A000883
:10016000A51A0008A51A0008A51A0008A51A000873
:10017000A51A0008A51A0008A51A0008000000002A
:1001800000000000A51A00080000000000000000A8
:10019000A51A00080000000000000000A51A0008D1
:1001A000000000000000000000000000A51A000888
:1001B000A51A0008A51A0008A51A0008A51A000823
:0401C000A51A000874
:1002000010B5054C237833B9044B13B10448AFF350
:1002100000800123237010BDB809002000000000F9
:100220001878000808B5034B1BB103490348AFF326
:10023000008008BD00000000BC09002018780008FC
:1002400081F0004102E000BF83F0004330B54FEA87
:1002500041044FEA430594EA050F08BF90EA020FF4
:100260001FBF54EA000C55EA020C7FEA645C7FEA87
:10027000655C00F0E2804FEA5454D4EB5555B8BFAA
:100280006D420CDD2C4480EA020281EA030382EA1B
:10029000000083EA010180EA020281EA0303362DAD
:1002A00088BF30BD11F0004F4FEA01314FF4801C80
:1002B0004CEA113102D0404261EB410113F0004F92
:1002C0004FEA03334CEA133302D0524263EB430349
:1002D00094EA050F00F0A780A4F10104D5F1200EE7
:1002E0000DDB02FA0EFC22FA05F2801841F1000142
:1002F00003FA0EF2801843FA05F359410EE0A5F116
:1003000020050EF1200E012A03FA0EFC28BF4CF046
:10031000020C43FA05F3C01851EBE37101F00045FC
:1003200007D54FF0000EDCF1000C7EEB00006EEB09
:100330000101B1F5801F1BD3B1F5001F0CD3490893
:100340005FEA30004FEA3C0C04F101044FEA4452EA
:1003500012F5800F80F09A80BCF1004F08BF5FEA71
:10036000500C50F1000041EB045141EA050130BD51
:100370005FEA4C0C404141EB0101013C28BFB1F563
:10038000801FE9D291F0000F04BF01460020B1FAAE
:1003900081F308BF2033A3F10B03B3F120020CDA81
:1003A0000C3208DD02F1140CC2F10C0201FA0CF05F
:1003B00021FA02F10CE002F11402D8BFC2F1200CC4
:1003C00001FA02F120FA0CFCDCBF41EA0C0190407A
:1003D000E41AA2BF01EB0451294330BD6FEA0404C3
:1003E0001F3C1CDA0C340EDC04F11404C4F12002AE
:1003F00020FA04F001FA02F340EA030021FA04F3C0
:1004000045EA030130BDC4F10C04C4F1200220FA16
:1004100002F001FA04F340EA0300294630BD21FA54
:1004200004F0294630BD94F0000F83F4801306BF1A
:1004300081F480110134013D4EE77FEA645C18BF0E
:100440007FEA655C29D094EA050F08BF90EA020FA5
:1004500005D054EA000C04BF1946104630BD91EA9D
:10046000030F1EBF0021002030BD5FEA545C05D1A0
:100470004000494128BF41F0004130BD14F58004DF
:100480003CBF01F5801130BD01F0004545F0FE4153
:1004900041F470014FF0000030BD7FEA645C1ABF88
:1004A000194610467FEA655C1CBF0B46024650EABF
:1004B000013406BF52EA033591EA030F41F40021EB
:1004C00030BD00BF90F0000F04BF0021704730B571
:1004D0004FF4806404F132044FF000054FF0000146
:1004E00050E700BF90F0000F04BF0021704730B507
:1004F0004FF4806404F1320410F0004548BF4042DC
:100500004FF000013EE700BF42004FEAE2014FEA30
:1005100031014FEA02701FBF12F07F4393F07F4F0B
:1005200081F06051704732F07F4208BF704793F00E
:100530007F4F04BF41F40021704730B54FF4607421
:1005400001F0004521F000411CE700BF50EA010224
:1005500008BF704730B54FF000050AE050EA0102CD
:1005600008BF704730B511F0004502D5404261EB3D
:1005700041014FF4806404F132045FEA915C3FF47E
:10058000D8AE4FF003025FEADC0C18BF03325FEA1B
:10059000DC0C18BF033202EBDC02C2F1200300FACC
:1005A00003FC20FA02F001FA03FE40EA0E0021FAF1
:1005B00002F11444BDE600BF80F0004002E000BF3D
:1005C00081F0004142001FBF5FEA410392EA030F3E
:1005D0007FEA226C7FEA236C6AD04FEA1262D2EB88
:1005E0001363C1BFD218414048404140B8BF5B428D
:1005F000192B88BF704710F0004F40F4000020F026
:100600007F4018BF404211F0004F41F4000121F03B
:100610007F4118BF494292EA030F3FD0A2F1010285
:1006200041FA03FC10EB0C00C3F1200301FA03F1C3
:1006300000F0004302D5494260EB4000B0F5000FE6
:1006400013D3B0F1807F06D340084FEA310102F1A5
:100650000102FE2A51D2B1F1004F40EBC25008BF57
:1006600020F0010040EA03007047490040EB000021
:10067000013A28BFB0F5000FEDD2B0FA80FCACF122
:10068000080CB2EB0C0200FA0CF0AABF00EBC2504F
:1006900052421843BCBFD0401843704792F0000F3D
:1006A00081F4000106BF80F400000132013BB5E790
:1006B0004FEA41037FEA226C18BF7FEA236C21D006
:1006C00092EA030F04D092F0000F08BF084670476B
:1006D00090EA010F1CBF0020704712F07F4F04D139
:1006E000400028BF40F00040704712F100723CBF4C
:1006F00000F50000704700F0004343F0FE4040F476
:10070000000070477FEA226216BF08467FEA236333
:100710000146420206BF5FEA412390EA010F40F41E
:10072000800070474FF0000304E000BF10F000436A
:1007300048BF40425FEA000C08BF704743F0964351
:1007400001464FF000001CE050EA010208BF70476C
:100750004FF000030AE000BF50EA010208BF7047F3
:1007600011F0004302D5404261EB41015FEA010C08
:1007700002BF84460146002043F0B64308BFA3F100
:100780008053A3F50003BCFA8CF2083AA3EBC253E2
:1007900010DB01FA02FC634400FA02FCC2F1200201
:1007A000BCF1004F20FA02F243EB020008BF20F038
:1007B0000100704702F1200201FA02FCC2F120029E
:1007C00050EA4C0021FA02F243EB020008BF20EA93
:1007D000DC7070474FF0FF0C1CEAD0521EBF1CEAC1
:1007E000D15392EA0C0F93EA0C0F6FD01A4480EAAF
:1007F000010C400218BF5FEA41211ED04FF0006398
:1008000043EA501043EA5111A0FB01310CF00040C3
:10081000B1F5000F3EBF490041EAD3715B0040EAE9
:10082000010062F17F02FD2A1DD8B3F1004F40EBB9
:10083000C25008BF20F00100704790F0000F0CF08C
:10084000004C08BF49024CEA502040EA51207F3A50
:10085000C2BFD2F1FF0340EAC250704740F400002B
:100860004FF00003013A5DDC12F1190FDCBF00F01C
:1008700000407047C2F10002410021FA02F1C2F1CA
:10088000200200FA02FC5FEA310040F1000053EA66
:100890004C0308BF20EADC70704792F0000F00F0B4
:1008A000004C02BF400010F4000F013AF9D040EABA
:1008B0000C0093F0000F01F0004C02BF490011F44E
:1008C000000F013BF9D041EA0C018FE70CEAD1534C
:1008D00092EA0C0F18BF93EA0C0F0AD030F0004CCC
:1008E00018BF31F0004CD8D180EA010000F0004080
:1008F000704790F0000F17BF90F0004F084691F03E
:10090000000F91F0004F14D092EA0C0F01D1420277
:100910000FD193EA0C0F03D14B0218BF084608D140
:1009200080EA010000F0004040F0FE4040F400008A
:10093000704740F0FE4040F4400070474FF0FF0C1D
:100940001CEAD0521EBF1CEAD15392EA0C0F93EA64
:100950000C0F69D0A2EB030280EA010C49024FEAB6
:10096000402037D04FF0805343EA111143EA10136F
:100970000CF000408B4238BF5B0042F17D024FF427
:10098000000C8B4224BF5B1A40EA0C00B3EB510F02
:1009900024BFA3EB510340EA5C00B3EB910F24BFEB
:1009A000A3EB910340EA9C00B3EBD10F24BFA3EB70
:1009B000D10340EADC001B0118BF5FEA1C1CE0D138
:1009C000FD2A3FF650AF8B4240EBC25008BF20F0EB
:1009D000010070470CF0004C4CEA50207F32C2BF3F
:1009E000D2F1FF0340EAC250704740F400004FF0DC
:1009F0000003013A37E792F0000F00F0004C02BF0D
:100A0000400010F4000F013AF9D040EA0C0093F0D6
:100A1000000F01F0004C02BF490011F4000F013B30
:100A2000F9D041EA0C0195E70CEAD15392EA0C0F98
:100A300008D142027FF47DAF93EA0C0F7FF470AFD0
:100A4000084676E793EA0C0F04D14B023FF44CAF13
:100A500008466EE730F0004C18BF31F0004CCAD1A8
:100A600030F000427FF45CAF31F000437FF43CAFE4
:100A70005FE700BF53B94AB9002908BF00281CBF6F
:100A80004FF0FF314FF0FF3000F06CB9ADF1080CC2
:100A90006DE904CE00F006F8DDF804E0DDE902239C
:100AA00004B070472DE9F047089E0D4604468E4677
:100AB000002B40F082808A42174646D9B2FA82F271
:100AC0004AB1C2F1200105FA02F320FA01F1974080
:100AD00041EA030E94404FEA1748230CBEFBF8FC92
:100AE000B9B208FB1CEE43EA0E430CFB01F098423E
:100AF0000AD9FB180CF1FF3580F01681984240F2BC
:100B00001381ACF1020C3B441B1AA4B2B3FBF8F006
:100B100008FB103344EA034400FB01F1A14209D968
:100B20003C1900F1FF3380F00181A14240F2FE80C8
:100B300002383C44641A40EA0C4000211EB1D44003
:100B40000023C6E90043BDE8F08702B9FFDEB2FA30
:100B500082F2002A4FD1CB1B4FEA174E1FFA87F8BB
:100B60000121B3FBFEFC250C0EFB1C3345EA0345BB
:100B700008FB0CF3AB4207D97D190CF1FF3002D210
:100B8000AB4200F2E7808446ED1AA3B2B5FBFEF05B
:100B90000EFB105543EA054408FB00F8A04507D9B1
:100BA0003C1900F1FF3302D2A04500F2D78018466D
:100BB000A4EB080440EA0C40C0E78B4208D9002EA1
:100BC00000F0AF800021C6E900050846BDE8F087C7
:100BD000B3FA83F100294BD1AB4202D3824200F237
:100BE000B780841A65EB030301209E46002EAAD02D
:100BF000C6E9004EA7E7C2F1200C01FA02F39740C4
:100C000020FA0CF04FEA174E21FA0CFC1843BCFBFB
:100C1000FEF1050C0EFB11CC1FFA87F845EA0C45D6
:100C200001FB08F3AB4204FA02F409D97D1901F182
:100C3000FF3C80F08B80AB4240F2888002393D441B
:100C4000EB1A85B2B3FBFEF00EFB103345EA034509
:100C500000FB08F3AB4207D97D1900F1FF3C71D2CC
:100C6000AB426FD902383D44EB1A40EA014178E7C4
:100C7000C1F1200C8B4022FA0CF71F4320FA0CF430
:100C800005FA01F34FEA174E25FA0CF51C43230C25
:100C9000B5FBFEF91FFA87F80EFB195543EA054527
:100CA00009FB08FAAA4502FA01F200FA01F308D991
:100CB0007D1909F1FF3047D2AA4545D9A9F10209AA
:100CC0003D44A5EB0A05A4B2B5FBFEF00EFB1055A2
:100CD00044EA054400FB08F8A04507D93C1900F197
:100CE000FF352DD2A0452BD902383C4440EA0940BB
:100CF000A4EB0804A0FB02894C45C6464D4619D317
:100D000016D05EB1B3EB0E0264EB050404FA0CFCE2
:100D1000CA404CEA0202CC40C6E900240021BDE8EA
:100D2000F087314630460EE7AC46EDE6184601E75F
:100D30004345E6D2B8EB020E69EB07050138E0E760
:100D40002846D3E760468FE78146BAE7614677E7F2
:100D500008464BE7ACF1020C3D4415E702383C4431
:100D600026E700BF704700BF000000000000000041
:100D700001F0FF01102A2BDB10F0070F08D010F84C
:100D8000013B013A8B422DD010F0070F42B3F6D150
:100D9000F0B441EA012141EA014122F007047FF069
:100DA00000070023F0E80256083C85EA010586EAC0
:100DB000010685FA47F5A3FA87F586FA47F6A5FAFC
:100DC00087F68EB9EED1F0BC01F0FF0102F0070208
:100DD00032B110F8013B013A83EA010313B1F8D1B3
:100DE0000020704701387047002D06BF3546033894
:100DF000073815F0010F07D1013015F4807F02BFCD
:100E0000013015F4C03F0130F0BC0138704700BF1D
:100E1000844641EA000313F003036DD1403A41D305
:100E200051F8043B40F8043B51F8043B40F8043BC4
:100E300051F8043B40F8043B51F8043B40F8043BB4
:100E400051F8043B40F8043B51F8043B40F8043BA4
:100E500051F8043B40F8043B51F8043B40F8043B94
:100E600051F8043B40F8043B51F8043B40F8043B84
:100E700051F8043B40F8043B51F8043B40F8043B74
:100E800051F8043B40F8043B51F8043B40F8043B64
:100E900051F8043B40F8043B51F8043B40F8043B54
:100EA000403ABDD2303211D351F8043B40F8043BF4
:100EB00051F8043B40F8043B51F8043B40F8043B34
:100EC00051F8043B40F8043B103AEDD20C3205D304
:100ED00051F8043B40F8043B043AF9D2043208D0FC
:100EE000D2071CBF11F8013B00F8013B01D30B886E
:100EF00003806046704700BF082A13D38B078DD04C
:100F000010F003038AD0C3F10403D21ADB071CBF1D
:100F100011F8013B00F8013B80D331F8023B20F887
:100F2000023B7BE7043AD9D3013A11F8013B00F8C0
:100F3000013BF9D20B7803704B7843708B78837048
:100F40006046704700000000000000000000000044
:100F50000000000000000000000000000000000091
:100F60000000000000000000000000000000000081
:100F70000000000000000000000000000000000071
:100F800090F800F06DE9024520F007016FF0000CC9
:100F900010F0070491F820F040F049804FF0000471
:100FA0006FF00700D1E9002391F840F000F108004C
:100FB00082FA4CF2A4FA8CF283FA4CF3A2FA8CF384
:100FC0004BBBD1E9022382FA4CF200F10800A4FAEB
:100FD0008CF283FA4CF3A2FA8CF3E3B9D1E904233F
:100FE00082FA4CF200F10800A4FA8CF283FA4CF376
:100FF000A2FA8CF37BB9D1E9062301F1200182FA30
:101000004CF200F10800A4FA8CF283FA4CF3A2FA35
:101010008CF3002BC6D0002A04BF04301A4612BA43
:10102000B2FA82F2FDE8024500EBD2007047D1E946
:10103000002304F00305C4F100004FEAC50514F0D5
:10104000040F91F840F00CFA05F562EA05021CBFA6
:1010500063EA050362464FF00004A9E770B54FF05C
:10106000FF0C4CF4E06C1CEA11541DBF1CEA135534
:1010700094EA0C0F95EA0C0F00F0DEF82C4481EA9C
:10108000030621EA4C5123EA4C5350EA013518BFBC
:1010900052EA033541F4801143F4801338D0A0FBA9
:1010A00002CE4FF00005E1FB02E506F00042E0FB56
:1010B00003E54FF00006E1FB03569CF0000F18BF5C
:1010C0004EF0010EA4F1FF04B6F5007F64F5407404
:1010D00004D25FEA4E0E6D4146EB060642EAC62197
:1010E00041EA55514FEAC52040EA5E504FEACE2E04
:1010F000B4F1FD0C88BFBCF5E06F1ED8BEF1004F07
:1011000008BF5FEA500E50F1000041EB045170BD82
:1011100006F0004646EA010140EA020081EA0301C6
:10112000B4EB5C04C2BFD4EB0C0541EA045170BDC2
:1011300041F480114FF0000E013C00F3AB8014F13C
:10114000360FDEBF002001F0004170BDC4F1000485
:10115000203C35DA0C341BDC04F11404C4F1200506
:1011600000FA05F320FA04F001FA05F240EA020061
:1011700001F0004221F0004110EBD37021FA04F697
:1011800042EB06015EEA430E08BF20EAD37070BD51
:10119000C4F10C04C4F1200500FA04F320FA05F0B0
:1011A00001FA04F240EA020001F0004110EBD370B2
:1011B00041F100015EEA430E08BF20EAD37070BD22
:1011C000C4F1200500FA05F24EEA020E20FA04F3FB
:1011D00001FA05F243EA020321FA04F001F00041AA
:1011E00021FA04F220EA020000EBD3705EEA430E1B
:1011F00008BF20EAD37070BD94F0000F0FD101F04A
:101200000046400041EB010111F4801F08BF013C82
:10121000F7D041EA060195F0000F18BF704703F0C0
:101220000046520043EB030313F4801F08BF013D47
:10123000F7D043EA0603704794EA0C0F0CEA135503
:1012400018BF95EA0C0F0CD050EA410618BF52EABD
:101250004306D1D181EA030101F000414FF00000C3
:1012600070BD50EA410606BF1046194652EA4306D1
:1012700019D094EA0C0F02D150EA013613D195EA45
:101280000C0F05D152EA03361CBF104619460AD18D
:1012900081EA030101F0004141F0FE4141F4700197
:1012A0004FF0000070BD41F0FE4141F4780170BD87
:1012B00070B54FF0FF0C4CF4E06C1CEA11541DBFEC
:1012C0001CEA135594EA0C0F95EA0C0F00F0A7F8EE
:1012D000A4EB050481EA030E52EA03354FEA01311B
:1012E00000F088804FEA03334FF0805545EA13132E
:1012F00043EA12634FEA022245EA111545EA1065F6
:101300004FEA00260EF000419D4208BF964244F18C
:10131000FD0404F5407402D25B084FEA3202B61AAB
:1013200065EB03055B084FEA32024FF480104FF47F
:10133000002CB6EB020E75EB030E22BFB61A7546F3
:1013400040EA0C005B084FEA3202B6EB020E75EB86
:10135000030E22BFB61A754640EA5C005B084FEAEE
:101360003202B6EB020E75EB030E22BFB61A7546BB
:1013700040EA9C005B084FEA3202B6EB020E75EBC6
:10138000030E22BFB61A754640EADC0055EA060E87
:1013900018D04FEA051545EA16754FEA06164FEACA
:1013A000C30343EA52734FEAC2025FEA1C1CC0D176
:1013B00011F4801F0BD141EA00014FF000004FF003
:1013C000004CB6E711F4801F04BF01430020B4F1C4
:1013D000FD0C88BFBCF5E06F3FF6AFAEB5EB030C7C
:1013E00004BFB6EB020C5FEA500C50F1000041EB79
:1013F000045170BD0EF0004E4EEA113114EB5C0446
:10140000C2BFD4EB0C0541EA045170BD41F4801118
:101410004FF0000E013C90E645EA060E8DE60CEA20
:10142000135594EA0C0F08BF95EA0C0F3FF43BAF3D
:1014300094EA0C0F0AD150EA01347FF434AF95EAF4
:101440000C0F7FF425AF104619462CE795EA0C0FD8
:1014500006D152EA03353FF4FDAE1046194622E7A5
:1014600050EA410618BF52EA43067FF4C5AE50EA7F
:1014700041047FF40DAF52EA43057FF4EBAE12E76F
:101480004FF0FF3C06E000BF4FF0010C02E000BF50
:101490004FF0010C4DF804CD4FEA410C7FEA6C5C33
:1014A0004FEA430C18BF7FEA6C5C1BD001B050EAD6
:1014B000410C0CBF52EA430C91EA030F02BF90EAC1
:1014C000020F0020704710F1000F91EA030F58BF80
:1014D000994208BF90422CBFD8176FEAE37040F0E2
:1014E000010070474FEA410C7FEA6C5C02D150EA80
:1014F000013C07D14FEA430C7FEA6C5CD6D152EA3B
:10150000033CD3D05DF8040B704700BF84461046FF
:1015100062468C461946634600E000BF01B5FFF7FE
:10152000B7FF002848BF10F1000F01BD4DF808EDCE
:10153000FFF7F4FF0CBF012000205DF808FB00BF9F
:101540004DF808EDFFF7EAFF34BF012000205DF8F9
:1015500008FB00BF4DF808EDFFF7E0FF94BF012046
:1015600000205DF808FB00BF4DF808EDFFF7CEFF47
:1015700094BF012000205DF808FB00BF4DF808ED86
:10158000FFF7C4FF34BF012000205DF808FB00BF57
:101590004FEA410C7FEA6C5C02D150EA013C0AD16F
:1015A0004FEA430C7FEA6C5C02D152EA033C02D161
:1015B0004FF0000070474FF0010070474FEA4102C2
:1015C00012F5001215D211D56FF47873B3EB625295
:1015D00012D94FEAC12343F0004343EA505311F0BC
:1015E000004F23FA02F018BF404270474FF000004E
:1015F000704750EA013005D111F0004008BF6FF08C
:10160000004070474FF00000704700BF82B00021DB
:1016100000910B4B1A6B42F004021A631A6B02F032
:1016200004020092009A01911A6B42F001021A63BF
:101630001B6B03F001030193019B02B0704700BFD5
:10164000003802400268104B9A4200D0704710B533
:1016500082B000F0E9FBFFF765F80C49FFF7BAF834
:101660000B49FFF76BF90B4CFEF74EFFCDE900017C
:10167000094A2021204601F0CDFF82B221460748C9
:1016800001F05FFD02B010BD002001403333534034
:1016900000F07F45A80A002030780008640A002086
:1016A00072B6FEE700B585B0002300930193029364
:1016B00003931548154A0260436083600361037613
:1016C00080F820304FF08052C2624FF0C0628262D8
:1016D000C3600122C26180F83030426100F0D0FA6C
:1016E00068B90A23009301230193002302936946FA
:1016F000054800F03FFC20B905B05DF804FBFFF79A
:10170000CFFFFFF7CDFF00BFD4090020002001402C
:1017100000B587B0002302930393049305930093CD
:10172000019315484FF08042026043F67F624260A9
:10173000836040F2F312C2600361836101F0ECFA4E
:1017400098B94FF48053029302A90B4801F01BFB98
:1017500068B920230093002301936946064801F0ED
:1017600091FB30B907B05DF804FBFFF799FFFFF775
:1017700097FFFFF795FF00BF1C0A002008B50C4833
:101780000C4B03604FF4E13343604FF480538360AC
:101790000023C3604FF4806202610C2242618361C6
:1017A000C36101F09FFC00B908BDFFF779FF00BFDE
:1017B000640A00200044004000B595B034220021A6
:1017C00007A801F0D7FE0023029303930493059327
:1017D00006930093194A116C41F080511164126C08
:1017E00002F080520092009A019315490A6822F48F
:1017F000404242F480420A600A6802F44042019288
:10180000019A0222079201220A9210220B920D9352
:1018100007A800F091FF68B90F23029300210391FC
:1018200004910591069102A800F024FE20B915B09C
:101830005DF804FBFFF734FFFFF732FF003802408A
:101840000070004008B500F055F9FFF7B5FFFFF74D
:10185000DDFEFFF727FFFFF75BFFFFF78FFF034872
:1018600001F0B8F9024800F037FAFEE71C0A002040
:10187000D409002082B0002100910B4B5A6C42F435
:1018800080425A645A6C02F480420092009A01919C
:101890001A6C42F080521A641B6C03F0805301935F
:1018A000019B02B0704700BF0038024010B588B0FD
:1018B000002303930493059306930793026803F1AF
:1018C000804303F590339A4201D008B010BD002444
:1018D000019403F58C335A6C42F480725A645A6C4A
:1018E00002F480720192019A02941A6B42F004028F
:1018F0001A631B6B03F004030293029B01230393FF
:1019000003230493059403A9054800F0CFFC224665
:101910002146122000F014FC122000F045FCD4E710
:10192000000802400368B3F1804F00D0704782B0D6
:1019300000230193054B1A6C42F001021A641B6CE0
:1019400003F001030193019B02B07047003802408D
:1019500010B588B00023039304930593069307936F
:101960000268194B9A4201D008B010BD00240194BE
:1019700003F5FA331A6C42F400321A641A6C02F45A
:1019800000320192019A02941A6B42F001021A632A
:101990001B6B03F001030293029B0C2303930223AE
:1019A00004930594032306930723079303A9074889
:1019B00000F07CFC22462146262000F0C1FB2620B8
:1019C00000F0F2FBD0E700BF0044004000000240FE
:1019D000FEE7FEE7FEE7FEE7FEE770477047704769
:1019E00008B500F0A1F808BD08B5024800F021FADA
:1019F00008BD00BFD409002008B5024801F050FC22
:101A000008BD00BF640A002010B503460C4A0D490A
:101A10000D48006840B10C4800680344521A9342D4
:101A200006D8094A136010BD0748084C0460F2E765
:101A300001F076FD0C2303604FF0FF30F3E700BFA9
:101A40000000022000040000C80A0020300B002023
:101A500070470000DFF834D00D480E490E4A0023CD
:101A600002E0D458C4500433C4188C42F9D30B4A52
:101A70000B4C002301E013600432A242FBD3FFF7BA
:101A8000E7FF01F053FDFFF7DDFE70470000022085
:101A900000000020B8090020FC7A0008B8090020E6
:101AA0002C0B0020FEE7000010B504460E4B187802
:101AB0004FF47A73B3FBF0F30C4A1068B0FBF3F009
:101AC00000F080FB68B90F2C01D901200AE0002248
:101AD00021464FF0FF3000F033FB054B1C60002027
:101AE00000E0012010BD00BF040000200000002025
:101AF0000800002008B50B4B1A6842F400721A6007
:101B00001A6842F480621A601A6842F480721A609D
:101B1000032000F003FB0F20FFF7C6FFFFF7AAFE2C
:101B2000002008BD003C0240034A1168034B1B78AB
:101B30000B441360704700BFCC0A00200400002053
:101B4000014B1868704700BFCC0A00204A4B5A6806
:101B500022F440325A605A6841680A435A60026867
:101B6000536823F48073536002685368016943EA41
:101B7000012353600268536823F040735360026886
:101B8000536881680B4353600268936823F40063D1
:101B9000936002689368C1680B439360826A374B15
:101BA0009A4257D00268936823F07063936002688A
:101BB0009368816A0B4393600268936823F04053F3
:101BC000936002689368C16A0B43936002689368EC
:101BD00023F00203936002689368017E43EA4103A5
:101BE000936090F82030002B3FD00268536843F494
:101BF000006353600268536823F4604353600168D4
:101C00004B68426A013A43EA42334B600268D36A46
:101C100023F47003D3620168CB6AC269013A43EAD4
:101C20000253CB620268936823F4007393600268E6
:101C3000936890F8301043EA4123936002689368F8
:101C400023F48063936002689368416943EA8123C7
:101C5000936070470268936823F070639360026832
:101C6000936823F040539360B0E70268536823F40D
:101C700000635360CAE700BF002301400100000F6A
:101C800038B310B50446036C43B1236C13F0100F46
:101C90000BD00120002384F83C3010BDFFF706FE76
:101CA0000023636484F83C30EFE7236C23F488530B
:101CB00023F0020343F0020323642046FFF746FFAC
:101CC00000206064236C23F0030343F001032364CA
:101CD000E0E701207047000082B00023019390F8F4
:101CE0003C30012B00F09080012380F83C300368E9
:101CF0009A6812F0010F13D19A6842F001029A60BB
:101D0000444B1B68444AA2FB03239B0C03EB430395
:101D1000019302E0019B013B0193019B002BF9D150
:101D20000268936813F0010F63D0036C23F4E0633F
:101D300023F0010343F480730364536813F4806F4A
:101D400005D0036C23F4405343F480530364036CC5
:101D500013F4805F22D0436C23F006034364002316
:101D600080F83C306FF0220313600268536843F040
:101D7000806343F020035360284B5B6813F01F0F10
:101D800027D10368264A934211D002F5807293420C
:101D900007D0244A934214D0002033E00023436448
:101DA000DDE702F50072526812F01F0FF1D19A6858
:101DB00012F0405F2AD19A6842F080429A60002077
:101DC00020E002F58072526812F0100FEFD0002070
:101DD00018E00368124A934201D0002012E09A688A
:101DE00012F0405F14D19A6842F080429A6000205D
:101DF00008E0036C43F010030364436C43F00103F9
:101E00004364002002B070470220FBE70020F9E79E
:101E10000020F7E70000002083DE1B430023014081
:101E200000200140002201400368D86C70477047D1
:101E3000704770B5044603681E685D6816F0020FAF
:101E40002FD005F0200262B3026C12F0100F03D104
:101E5000026C42F4007202649A6812F0405F19D179
:101E6000227EBAB9DA6A12F4700F03D09A6812F4BB
:101E7000806F0FD15A6822F020025A60236C23F43D
:101E800080732364236C13F4805F03D1236C43F0CD
:101E9000010323642046FFF7D5FB23686FF012028D
:101EA0001A6005F0800316F0040F37D0002B35D0F0
:101EB000236C13F0100F03D1236C43F400532364FD
:101EC00023689A6812F4401F21D19A6B12F4401FC4
:101ED00003D09A6812F4806F19D15A6812F4806F97
:101EE00015D19A6812F0405F11D1227E7AB95A68F2
:101EF00022F080025A60236C23F480532364236C05
:101F000013F4807F03D1236C43F001032364204644
:101F100000F002F923686FF00C021A6005F040032C
:101F200016F0010F05D023B123681B6813F0010FD1
:101F300006D105F0806516F0200F00D065B970BDA0
:101F4000236C43F4803323642046FFF770FF23683B
:101F50006FF001021A60ECE7636C43F00203636404
:101F600023686FF020051D602046FFF761FF23689E
:101F70001D60E4E730B482B00023019390F83C3058
:101F8000012B00F0BD80012380F83C300B68092B49
:101F90003ED90568EA689BB203EB43031E3B072466
:101FA00004FA03F322EA0303EB600568EA688C682D
:101FB0000B8803EB43031E3B04FA03F31343EB606C
:101FC0004B68062B3AD805686A6B03EB8303053B25
:101FD0001F2404FA03F322EA03036B6305686A6BA8
:101FE0004B6803EB8303053B0C8804FA03F31343AC
:101FF0006B630268434B9A4250D00268414B9A424D
:1020000059D0002380F83C30184602B030BC7047ED
:1020100005682A699BB203EB4303072404FA03F320
:1020200022EA03032B6105682A698C680B8803EB9D
:10203000430304FA03F313432B61C1E70C2B16D8B7
:1020400005682A6B03EB8303233B1F2404FA03F385
:1020500022EA03032B6305682A6B4B6803EB8303B7
:10206000233B0C8804FA03F313432B63C1E7056891
:10207000EA6A03EB8303413B1F2404FA03F322EAD9
:102080000303EB620568EA6A4B6803EB8303413B99
:102090000C8804FA03F31343EB62AAE70B68122BD4
:1020A000ABD1194B5A6822F400025A605A6842F4C4
:1020B00080025A60A1E70B68144A934201D0112BA9
:1020C0009FD1114B5A6822F480025A605A6842F438
:1020D00000025A600A680D4B9A4292D10C4B1B6861
:1020E0000C4AA2FB03239B0C03EB83035B000193CD
:1020F00002E0019B013B0193019B002BF9D180E79A
:10210000022082E70020014000230140120000105D
:102110000000002083DE1B4370470000074AD3689D
:1021200023F4E0631B041B0C000200F4E060034393
:1021300043F0BF6343F40033D360704700ED00E029
:1021400030B4174BDB68C3F30223C3F10704042C3C
:1021500028BF04241D1D062D18D9033B4FF0FF3561
:1021600005FA04F421EA0401994005FA03F322EA8E
:102170000303194300280BDB0901C9B200F16040D9
:1021800000F5614080F8001330BC70470023E5E79C
:1021900000F00F000901C9B2024B1954F4E700BF67
:1021A00000ED00E014ED00E0002807DB00F01F0266
:1021B000400901239340024A42F82030704700BF93
:1021C00000E100E00138B0F1807F0AD2064B586090
:1021D000064AF02182F823100020986007221A6036
:1021E00070470120704700BF10E000E000ED00E004
:1021F00070B50446866DFFF7A3FC94F83530DBB26A
:10220000022B06D080236365002384F8343001203C
:1022100070BD05462268136823F016031360226818
:10222000536923F080035361236CE3B12268136880
:1022300023F0080313602268136823F0010313607E
:1022400023681B6813F0010F11D0FFF779FC431BC3
:10225000052BF5D920236365032084F8350000237E
:1022600084F83430D4E7A36C002BDFD1E3E7E26DD0
:102270003F239340B360012384F83530002084F875
:102280003400C5E790F83530DBB2022B03D0802351
:10229000436501207047052380F8353002681368D4
:1022A00023F00103136000207047000000230F2B70
:1022B00000F2D780F0B482B05DE086685F0003244E
:1022C000BC4026EA0406CC68BC40344384604668BF
:1022D00026EA02064C68C4F300129A403243426078
:1022E00057E0DC08083450F8247003F00702960029
:1022F0000F22B24027EA02070A69B2403A4340F887
:1023000024205AE0062200E00022B2403A43023480
:10231000544E46F82420544A9468EA4324EA0506B9
:102320004F6817F4801F01D045EA04064E4CA660A2
:10233000E46802EA04064F6817F4001F01D045EA7A
:102340000406494CE660646802EA04064F6817F424
:10235000003F01D045EA0406434C666024682240F1
:102360004E6816F4803F01D045EA04023E4C2260DC
:1023700001330F2B72D801229A400C6804EA02053F
:1023800032EA0404F4D14C6804F00304013C012C4B
:1023900093D94A6802F00302032A09D0C4685E0098
:1023A0000322B24024EA02048A68B2402243C26097
:1023B0004A6802F00302022A93D004685E000322F6
:1023C000B24024EA02044A6802F00302B240224307
:1023D00002604A6812F4403FCAD000220192234AA8
:1023E000546C44F480445464526C02F48042019270
:1023F000019A9C08A61C1B4A52F8267003F003029F
:1024000096000F22B24027EA0207194A90423FF491
:102410007BAF02F58062904216D002F58062904256
:1024200014D002F58062904212D002F58062904290
:1024300010D002F5806290420ED002F58062904288
:102440003FF460AF072260E701225EE702225CE70B
:1024500003225AE7042258E7052256E702B0F0BCEF
:102460007047704700380140003C0140003802408E
:1024700000000240002800F09B8070B50D46044625
:102480004F4B1B6803F00F038B4208D2CBB24C4A70
:102490001370136803F00F038B4240F08B802368A6
:1024A00013F0020F17D013F0040F04D0454A9368BD
:1024B00043F4E0539360236813F0080F04D0414ABB
:1024C000936843F4604393603E4A936823F0F003BB
:1024D000A1680B439360236813F0010F32D0636847
:1024E000012B21D09A1E012A25D9364A126812F0F2
:1024F000020F61D033498A6822F0030213438B60D4
:10250000FFF71EFB06462F4B9B6803F00C03626827
:10251000B3EB820F16D0FFF713FB801B41F2883319
:102520009842F0D9032042E0264A126812F4003F94
:10253000E0D101203BE0234A126812F0007FD9D19C
:10254000012034E01E4B1B6803F00F03AB4207D998
:10255000EAB21B4B1A701B6803F00F03AB422DD17C
:10256000236813F0040F06D0164A936823F4E0534F
:10257000E1680B439360236813F0080F07D0114AFA
:10258000936823F46043216943EAC103936000F038
:1025900047F80C4B9B68C3F303130B4AD35CD8403A
:1025A0000A4B18600A4B1868FFF77EFA002070BDCE
:1025B000012070470120FAE70120F8E70120F6E743
:1025C000003C02400038024044780008000000202F
:1025D00008000020014B1868704700BF0000002071
:1025E00008B5FFF7F7FF044B9B68C3F38223034A48
:1025F000D35CD84008BD00BF0038024054780008C2
:1026000008B5FFF7E7FF044B9B68C3F34233034A67
:10261000D35CD84008BD00BF0038024054780008A1
:10262000F8B5424B9B6803F00C03082B07D00C2B2A
:1026300041D0042B01D03E48F8BD3E48FCE73B4B5F
:102640005A6802F03F025B6813F4800F12D0374BD8
:102650005968C1F3881100233648A1FB0001FEF739
:1026600009FA324B5B68C3F3014301335B00B0FBF3
:10267000F3F0E1E72D4B5B68C3F3881358010021A9
:10268000C01A61F100018E0146EA906687013C1A8A
:1026900066EB0105E90041EA5471E000C01841F120
:1026A00000018B0243EA905384022046194600231E
:1026B000FEF7E0F9D5E71D4B5A6802F03F025B6870
:1026C00013F4800F10D0194B5968C1F388110023FF
:1026D0001848A1FB0001FEF7CDF9144B5B68C3F36A
:1026E0000273B0FBF3F0A7E7104B5B68C3F38813EA
:1026F0005C010025E41A65F10005AE0146EA946626
:10270000A701381B66EB0501CC0044EA5074C500F4
:10271000E81844F100018B0243EA905384022046FA
:1027200019460023FEF7A6F9D7E700BF003802409C
:102730000024F40040787D01002800F0018270B58B
:1027400082B00446036813F0010F41D0A54B9B688B
:1027500003F00C03042B32D0A24B9B6803F00C0354
:10276000082B27D09F4B9B6803F00C030C2B59D0F0
:102770006368B3F5803F5BD0B3F5A02F5ED0994B73
:102780001A6822F480321A601A6822F480221A60D1
:102790006368002B5CD0FFF7D3F90546914B1B68AB
:1027A00013F4003F14D1FFF7CBF9401B6428F5D98F
:1027B0000320CCE18B4B5B6813F4800FD2D0894BA4
:1027C0001B6813F4003F03D06368002B00F0BA814C
:1027D000236813F0020F60D0824B9B6813F00C0F3C
:1027E0004AD0804B9B6803F00C03082B3FD07D4BF5
:1027F0009B6803F00C030C2B68D0E368002B74D0AB
:10280000794B01221A60FFF79BF90546754B1B684F
:1028100013F0020F60D1FFF793F9401B0228F5D99E
:10282000032094E16F4B5B6813F4800FA0D0C6E7E0
:102830006C4A136843F480331360A9E7694B1A6844
:1028400042F480221A601A6842F480321A609FE7CC
:10285000FFF776F90546634B1B6813F4003FB7D0CA
:10286000FFF76EF9401B6428F5D903206FE15D4B3B
:102870005B6813F4800FBAD15A4B1B6813F0020F38
:1028800003D0E368012B40F05F81564A136823F0C0
:10289000F803216943EAC1031360236813F0080FAA
:1028A00047D06369002B32D0504B01221A60FFF7EA
:1028B00047F905464B4B5B6F13F0020F39D1FFF719
:1028C0003FF9401B0228F5D9032040E1454B5B68E6
:1028D00013F4800F91D1CFE7424A136823F0F80335
:1028E000216943EAC1031360D7E73F4B00221A6016
:1028F000FFF726F905463B4B1B6813F0020FCCD0BF
:10290000FFF71EF9401B0228F5D903201FE1374BC2
:1029100000221A60FFF714F90546324B5B6F13F083
:10292000020F06D0FFF70CF9401B0228F5D903204F
:102930000DE1236813F0040F78D02A4B1B6C13F0C1
:10294000805F33D100230193264B1A6C42F08052F2
:102950001A641B6C03F080530193019B0125244BE7
:102960001B6813F4807F23D0A368012B34D0052B80
:1029700040D01C4B1A6F22F001021A671A6F22F026
:1029800004021A67A368002B3ED0FFF7D9F8064669
:10299000144B1B6F13F0020F47D1FFF7D1F8801BC8
:1029A00041F288339842F3D90320D0E00025D6E7DE
:1029B0000F4A136843F480731360FFF7C1F80646AB
:1029C0000B4B1B6813F4807FCED1FFF7B9F8801B47
:1029D0000228F5D90320BAE0024A136F43F001033D
:1029E0001367CFE70038024000004742800E47429D
:1029F000007000405E4B1A6F42F004021A671A6FB3
:102A000042F001021A67BDE7FFF79AF80646584BF5
:102A10001B6F13F0020F08D0FFF792F8801B41F2F2
:102A200088339842F3D9032091E0EDB9A369002BD4
:102A300000F08C804E4A926802F00C02082A54D0B2
:102A4000022B17D04B4B00221A60FFF779F804468F
:102A5000474B1B6813F0007F45D0FFF771F8001B50
:102A60000228F5D9032072E0414A136C23F0805309
:102A70001364DBE73F4B00221A60FFF761F805465D
:102A80003B4B1B6813F0007F06D0FFF759F8401B43
:102A90000228F5D903205AE0E369226A1343626AE7
:102AA00043EA8213A26A5208013A43EA0243E26A05
:102AB00043EA0263226B43EA02732D4A53602D4BB3
:102AC00001221A60FFF73CF80446294B1B6813F0FB
:102AD000007F06D1FFF734F8001B0228F5D9032048
:102AE00035E0002033E0002031E0012B31D0204BD5
:102AF0005B6803F48001E26991422CD103F03F024C
:102B0000216A8A4229D1616A47F6C0721A40B2EB43
:102B1000811F24D103F44031A26A5208013AB1EB7B
:102B2000024F1ED103F07062E16AB2EB016F1AD15D
:102B300003F0E043226BB3EB027F16D1002006E0E6
:102B400001207047012002E0012000E0002002B0D7
:102B500070BD0120FBE70120F9E70120F7E7012024
:102B6000F5E70120F3E70120F1E70120EFE700BFDF
:102B7000003802406000474230B4036A056A25F01D
:102B800001050562846924F0F00444EA021423F08C
:102B90000A030B438461036230BC704730B4056A9A
:102BA00025F0100505628469036A24F4704444EA40
:102BB000023423F0A00343EA01138461036230BCB2
:102BC0007047836823F070030B4343F0070383606F
:102BD0007047000090F83D30DBB2012B32D1022368
:102BE00080F83D300368194A934220D0B3F1804FFA
:102BF0001DD0A2F57C42934219D002F58062934227
:102C000015D002F58062934211D002F578429342CA
:102C10000DD002F57052934209D0A2F5943293423E
:102C200005D01A6842F001021A60002070479A68C5
:102C300002F00702062A07D01A6842F001021A6061
:102C400000207047012070470020704700000140BD
:102C50000368304A904212D0B0F1804F0FD0A2F5F5
:102C60007C4290420BD002F58062904207D002F580
:102C70008062904203D002F57842904203D123F063
:102C800070034A681343234A90422AD0B0F1804F20
:102C900027D0A2F57C42904223D002F58062904278
:102CA0001FD002F5806290421BD002F5784290421C
:102CB00017D002F57052904213D002F58062904214
:102CC0000FD002F5806290420BD0A2F5983290426C
:102CD00007D002F58062904203D002F580629042F4
:102CE00003D123F44073CA68134323F080034A6975
:102CF000134303608B68C3620B688362054B984281
:102D000003D003F58063984201D10B69036301236B
:102D1000436170470000014040B310B5044690F88D
:102D20003D30F3B1022384F83D30214651F8040BC5
:102D3000FFF78EFF012384F8463084F83E3084F894
:102D40003F3084F8403084F8413084F8423084F8D1
:102D5000433084F8443084F8453084F83D30002016
:102D600010BD80F83C30FEF7DDFDDBE70120704749
:102D700010B4846824F47F4442EA03220A432243C5
:102D8000826010BC704790F83C30012B78D010B5B1
:102D90000446012380F83C30022380F83D3002686D
:102DA000936823F47F4323F0770393600B68602BD1
:102DB0004CD029D8402B54D00CD9502B22D1CA68E2
:102DC00049680068FFF7D8FE50212068FFF7F9FE38
:102DD000002005E0202B0DD009D9302B0AD001208E
:102DE000012384F83D30002384F83C3010BD0BB142
:102DF000102B05D119462068FFF7E3FE0020EFE70E
:102E00000120EDE70120EBE7B3F5805F34D0B3F5A7
:102E1000005F0CD1CB684A6889680068FFF7A8FF9B
:102E20002268936843F4804393600020D8E7702BB6
:102E300024D1CB684A6889680068FFF799FF226847
:102E4000936843F0770393600020C9E7CA68496834
:102E50000068FFF7A3FE60212068FFF7B2FE0020A4
:102E6000BEE7CA6849680068FFF786FE402120680F
:102E7000FFF7A7FE0020B3E70020B1E70120AFE78E
:102E80000220704790F83C30012B3BD030B4012336
:102E900080F83C30022380F83D3003685C689D6810
:102EA00024F070040A6822435A600368164A934269
:102EB0001AD0B3F1804F17D0A2F57C42934213D0C1
:102EC00002F5806293420FD002F5806293420BD0EC
:102ED00002F57842934207D002F57052934203D034
:102EE000A2F59432934204D125F080054A68154337
:102EF0009D60012380F83D30002380F83C30184667
:102F000030BC70470220704700000140026802F1A7
:102F10000C0353E8003F23F490730C3242E8003175
:102F20000029F3D1026802F1140353E8003F23F0B3
:102F30000103143242E800310029F3D1036B012B65
:102F400005D0202380F83E300023036370470268D9
:102F500002F10C0353E8003F23F010030C3242E867
:102F600000310029F3D1ECE790F83D30DBB2212BA2
:102F700001D0022070478368B3F5805F17D0036AE1
:102F80005A1C02621A7803685A60C38C9BB2013BD8
:102F90009BB2C3844BB90268D36823F08003D3602B
:102FA0000268D36843F04003D36000207047036990
:102FB000002BE4D1036A1B880268C3F30803536043
:102FC000036A02330362E0E770B5044602681369DE
:102FD00023F44053C1680B431361836802691343B0
:102FE00042691343C2691A430168CB6823F416434C
:102FF00023F00C031343CB600268536923F440733E
:1030000081690B4353610368344A934206D002F549
:103010008062934202D0FFF7E3FA01E0FFF7F0FA93
:10302000E369B3F5004F2AD00026051846EB0601E8
:103030002D1846EB0101CB0043EA5573EA00154613
:10304000194663689A009B0F281846EB0101FDF7AB
:1030500011FD234DA5FB00325109642303FB11032D
:103060001B013233A5FB03235B0903F0F00202EBE3
:10307000011203F00F03216813448B6070BD00261A
:10308000051846EB06012D1846EB0101CB0043EA7B
:103090005573EA001546194662683346921846EBA6
:1030A0000303281846EB0101FDF7E4FC0C4DA5FBDA
:1030B00000325109642303FB1103DB003233A5FB0B
:1030C00003235B095A0002F4F87202EB011203F0C9
:1030D0000703216813448B60D0E700BF0010014054
:1030E0001F85EB5158B310B5044690F83D300BB333
:1030F000242384F83D302268D36823F40053D3603E
:103100002046FFF761FF2268136923F4904313619F
:103110002268536923F02A0353612268D36843F479
:103120000053D36000202064202384F83D3084F8CD
:103130003E3010BD80F83C30FEF70AFCD8E7012095
:10314000704790F83D30DBB2202B16D1B9B1C2B137
:1031500090F83C30012B16D001628284C284002397
:103160000364212280F83D2080F83C300168CA6861
:1031700042F08002CA601846704702207047012062
:1031800070470120704702207047704708B50168FA
:10319000CA6822F04002CA60202280F83D20FFF772
:1031A000F4FF002008BD7047704708B5806B00230E
:1031B000C385C384FFF7F8FF08BD704790F83E3021
:1031C000DBB2222B67D18368B3F5805F4DD0826A72
:1031D000B3F5805F04D0002B54D10369002B51D18B
:1031E00003685B681370836A01338362C38D9BB28B
:1031F000013B9BB2C385002B4FD100B583B0026861
:10320000D36823F02003D3600268D36823F480736B
:10321000D3600268536923F001035361202380F8CF
:103220003E30036B012B33D100230363026802F1AC
:103230000C0353E8003F23F010030C3242E8003146
:103240000029F3D103681A6812F0100F06D000228B
:1032500001921A6801925B680193019B818DFFF7CF
:10326000ACFF002003B05DF804FB0269002AAED178
:10327000826A03685B68C3F308031380836A0233BE
:103280008362B3E703685B6803F07F031370AAE708
:10329000FFF789FFE5E70220704700207047000034
:1032A00030B583B0044602681368D068516913F0E2
:1032B0000F0505D113F0200F02D010F0200F19D107
:1032C0002DB111F0010119D110F4907F16D1216BAD
:1032D00001297DD013F0800F03D010F0800F40F053
:1032E000158113F0400F03D010F0400F40F0128111
:1032F00003B030BD2046FFF761FFF9E713F0010F7F
:1033000006D010F4807F03D0226C42F001022264C8
:1033100013F0040F04D019B1226C42F002022264AF
:1033200013F0020F04D019B1226C42F0040222649F
:1033300013F0080F07D010F0200F00D119B1226C44
:1033400042F008022264226C002AD1D013F0200F30
:1033500002D010F0200F29D123685B6903F04003ED
:10336000226C12F0080F00D163B32046FFF7CEFDA8
:1033700023685B6913F0400F20D0226802F1140328
:1033800053E8003F23F04003143242E800310029A3
:10339000F3D1A36B73B1614A1A65A06BFEF772FF9C
:1033A0000028A5D0A06B036D9847A1E72046FFF742
:1033B00005FFD1E72046FFF7F7FE99E72046FFF724
:1033C000F3FE95E72046FFF7EFFE002323648FE727
:1033D00013F0100F3FF47EAF10F0100F3FF47AAFF0
:1033E000002301931368019353680193019B536970
:1033F00013F0400F50D0A26B13685B689BB2002B98
:103400003FF476AFA18D99427FF672AFE385D36921
:10341000B3F5807F37D0226802F10C0353E8003FF8
:1034200023F480730C3242E800310029F3D1226882
:1034300002F1140353E8003F23F00103143242E881
:1034400000310029F3D1226802F1140353E8003F50
:1034500023F04003143242E800310029F3D1202345
:1034600084F83E3000232363226802F10C0353E802
:10347000003F23F010030C3242E800310029F3D161
:10348000A06BFEF7B5FEA18DE38D9BB2C91A89B280
:103490002046FFF792FE2BE7A18DE38D9BB2C91A60
:1034A00089B2E38D9BB2002B3FF422AF00293FF499
:1034B0001FAF226802F10C0353E8003F23F490731E
:1034C0000C3242E800300028F3D1226802F11403E4
:1034D00053E8003F23F00103143242E80030002893
:1034E000F3D1202384F83E3000232363226802F1C5
:1034F0000C0353E8003F23F010030C3242E8003085
:103500000028F3D12046FFF758FEF1E62046FFF7EA
:103510002BFDEDE62046FFF739FEE9E6AB3100086A
:10352000014B1868704700BF0C00002070B50D4EAD
:103530000D4D761BB61006D0002455F8043B01341F
:103540009847A642F9D1094E094D761B04F064F95B
:10355000B61006D0002455F8043B01349847A64223
:10356000F9D170BDF07A0008F07A0008F87A000806
:10357000F07A0008F0B4860746D0541E002A3CD0EA
:10358000CAB2034601E0013C37D303F8012B9D0783
:10359000F9D1032C2AD9CDB245EA05250F2C45EAED
:1035A000054534D9A4F1100222F00F0C03F12007D5
:1035B0001609674403F1100242E9045542E9025535
:1035C0001032BA42F8D1721C14F00C0F03EB021245
:1035D00004F00F0613D0331F23F003030433134406
:1035E00042F8045B9342FBD106F003042CB1CAB24B
:1035F0001C4403F8012B9C42FBD1F0BC70473446BD
:103600001346002CF3D1F8E714460346C1E71A46E7
:103610002646E0E70CB430B51F4B00291C689DB06E
:1036200035DB4FF40273ADF814300290069021ABF5
:1036300018D00139209A049107914FF6FF7502A91D
:1036400020460193ADF8165000F028F8421C01DA2C
:103650008B232360029B00221A701DB0BDE830400E
:1036600002B0704704910791209A01934FF6FF75BD
:1036700002A92046ADF8165000F010F8431C01DAFC
:103680008B2323601DB0BDE8304002B070478B2310
:1036900023604FF0FF30F5E70C0000202DE9F04FDC
:1036A000D5B08B4617460D93814602F0C3FE0368E2
:1036B00016931846FDF764FCBBF80C3015901E06F7
:1036C00004D5DBF81030002B00F0F9870023CDE99A
:1036D0002933CDE91833CDE91A33119317930893A1
:1036E0002BAB289398463B78CDF82CB000210022D4
:1036F000CDE91212002B00F052813C4604E014F890
:10370000013F002B00F0A880252BF8D1E51B40F0ED
:10371000A6802378002B00F04281002309938DF8C6
:1037200083300693661C4FF0FF33647807932B2594
:103730004FF0200A0136A4F120035A2B00F2AD808D
:10374000DFE813F08602AB00AB008002AB00AB00F9
:10375000AB006A00AB00AB00E401F501AB00EF0188
:103760009502AB008F025B005B005B005B005B00BF
:103770005B005B005B005B00AB00AB00AB00AB0031
:10378000AB00AB00AB004001AB008701B8024001C9
:1037900040014001AB00AB00AB00AB007A02AB00D4
:1037A000AB00F901AB00AB00AB009501AB006A02C6
:1037B000AB00AB009E07AB00AB00AB00AB00AB00B7
:1037C000AB00AB00AB004001AB008701BB01400187
:1037D000400140012C02BB018400AB004D02AB0054
:1037E0003502970756028400AB00950182009A07C4
:1037F000AB00AB007507AB008200A4F130030022E0
:1038000016F8014B02EB820203EB4202A4F13003F3
:10381000092BF5D909928EE7484602F00BFE436862
:103820001A931846FDF7ACFB034648461C461B930B
:1038300002F000FE8268189234B1189B23B1189BE5
:103840001B78002B41F06D81347873E7069B347848
:1038500043F0200306936DE7E51B00F0A080DDE94F
:10386000293201332A44072BCDE92932C8F80070E8
:10387000C8F8045006DC08F10808089A23782A449E
:10388000089247E70B9928AA484603F053FC002802
:1038900041F0BD830DF1AC08EFE70E96002C7ED011
:1038A00000231A464FF0010A8DF8EC408DF8833062
:1038B0000C9207920F9214921092CDF828A03BAF71
:1038C000069B069913F0020318BF0AF1020A11F0D1
:1038D000840B05D10999A1EB0A06002E00F3AD83F4
:1038E0002A9D72B1299A013201350DF1830001211F
:1038F000072ACDE92925C8E9000100F3DE8308F194
:1039000008086BB1299B0133023521A90222072B3C
:10391000CDE92935C8E9001200F3DD8308F1080874
:10392000BBF1800F00F09482079B0A9A9E1A002E2A
:1039300000F3D382069BDE0500F12E82299B0A9AB2
:10394000C8F8007001331544072B2A95C8F80420E5
:10395000299300F3528308F10808069B580705D500
:10396000099BA3EB0A04002C00F3C883DDE90832AD
:103970005245ACBF9B1853440893002D40F0E6829B
:10398000002329930C9B1BB10C99484602F04EFC76
:103990000DF1AC080E9F3B78002B7FF4AEAE2A9B56
:1039A000DDF82CB0002B41F08482BBF80C3013F012
:1039B000400F089B18BF4FF0FF330893089855B08D
:1039C000BDE8F08F0D9B0E96073323F007031946D1
:1039D000F1E80223CDE91223DDE912AB2BF000451B
:1039E0000D91B04B504629464FF0FF32FDF7D0FD08
:1039F000002840F0F384AB4B504629464FF0FF328D
:103A0000FDF7A8FD002840F0E9840022002350467D
:103A10005946FDF795FD002841F05F809DF8832011
:103A2000A14FA24B069800214FF0030A20F080001E
:103A30000C910690472CC8BF1F46CDF828A00791CF
:103A40000F9114911091002A3FF43AAF0AF1010A44
:103A500036E70D9B0E9653F8042B8DF8EC200021D1
:103A60000A464FF0010A0D938DF8831020E70D9D53
:103A70000E9655F8047B00268DF88360002F00F029
:103A80002E86079A1346013300F0E0873146384608
:103A9000FDF76EF90C90002801F02C810C9B079625
:103AA000DA1B0A92334622EAE27A0D959DF88320CA
:103AB0000C930F9314931093C5E7069B0E969D06E7
:103AC00040F101810D9B073323F007031946F1E80C
:103AD00002230D9192469B46002A73F10003C0F227
:103AE0000381079B013300F05C85069B23F0800572
:103AF0005AEA0B0340F09082079B002B40F0938220
:103B00000695002307930A9354AF18E10D9B53F8D1
:103B1000042B0992002A80F24584099A0D9352429F
:103B20000992069B347843F00403069302E6347846
:103B30008DF88350FEE5069B0E9643F01003069326
:103B4000069B990640F1FE830D9B073323F0070384
:103B5000F3E802AB0D93069B23F48065002300225B
:103B60008DF88320079A1146013100F0CD8025F0B1
:103B7000800106915AEA0B0140F04A82002A40F087
:103B80001087002BBDD115F001030A9300F00E84BD
:103B900030238DF84F310DF24F17D0E03478069B6B
:103BA000682C00F0858543F040030693C2E5069B30
:103BB0000E969E0600F1E984069BDD0600F1F7866D
:103BC000069B5C0600F1BE87069B980540F1EF86D8
:103BD0000D9B089953F8042B0D931170DAE6347895
:103BE000069B6C2C00F05D8543F010030693A1E565
:103BF0000D9B0E9647F6300153F8042BADF8841058
:103C000006990D932A4B179341F0020592464FF007
:103C1000000B02237824A2E7069B0E9643F01005C2
:103C2000AF0640F180830D9B073323F00703F3E8D1
:103C300002AB0D93012392E7069B347843F008030F
:103C4000069377E5069B347843F00103069371E50C
:103C50009DF88330002B7FF4F7AD34788DF883A086
:103C600068E5069B347843F08003069362E53246AC
:103C700012F8014B2A2C01F05182A4F13003092BD8
:103C8000164698BF002201F21D8116F8014B02EB87
:103C9000820203EB4202A4F13003092BF5D907920B
:103CA00049E500BFFFFFEF7F6078000864780008F7
:103CB00070780008069B0E9643F010030693069B4F
:103CC0009D063FF5FFAE069BD80640F14E840D9B46
:103CD00053F8042B0D934FEAE27B5B46002A73F105
:103CE00000039246BFF6FDAE079A069DDAF1000A80
:103CF00011464FF02D036BEB4B0B01318DF88330E8
:103D00004FF001037FF433AF012B00F08581022BCC
:103D100054AF22D117984FEA1A130AF00F0143EA61
:103D20000B734FEA1B129A469346435C07F8013D1A
:103D30005AEA0B03EFD154ABDB1B06950A93002321
:103D400007990C930F93149310930A9B9DF883206B
:103D50008B42B8BF0B469A4675E64FEADA0242EA52
:103D60004B724FEADB010AF007038B469246303371
:103D70005AEA0B013A4607F8013DEED1E907DAD5D8
:103D8000302BD8D03023023A07F8013C54AB9B1AB1
:103D900006950A931746D2E7652C40F3EA80DDE9E1
:103DA000120100220023FDF7C1FB002800F0E08192
:103DB000299BCF4AC8F80020013301350122072B87
:103DC000CDE92935C8F8042000F3B48508F10808C6
:103DD000229B119A934280F2E082299B169AC8F89E
:103DE0000020159AC8F8042001331544072B2A95A2
:103DF000299300F3498408F10808119B5C1E002CEC
:103E00007FF7ABAD102C299BDFF8ECB240F3A38514
:103E10005F461026DDF82CB005E008F10808103CDC
:103E2000102C40F3978501331035072BCDE9293548
:103E3000C8E90076F1DD28AA5946484603F07AF928
:103E4000002840F08D80DDE929350DF1AC08E6E76A
:103E5000099BA3EB0A06002E7FF766AD102E299A68
:103E6000DFF894B226DD2946102325465C46DDF8AE
:103E70002CB004E0103E102E08F1080817DD0132C6
:103E80001031072ACDE92921C8E90043F2DD28AA2B
:103E90005946484603F04EF9002861D1103E102ED5
:103EA000DDE929210DF1AC084FF01003E7DCA34652
:103EB0002C460D4601323544072ACDE92925C8F89C
:103EC00000B0C8F8046000F35F85079B0A9A9E1A49
:103ED000002E08F108087FF72DAD102E299ADFF883
:103EE00018B225DD2946102325465C46DDF82CB0A6
:103EF00004E0103E102E08F1080816DD01321031E2
:103F0000072ACDE92921C8E90043F2DD28AA59464C
:103F1000484603F00FF918BB103E102EDDE92921A9
:103F20000DF1AC084FF01003E8DCA3462C460D461B
:103F300001323544072ACDE92925C8F800B0C8F870
:103F4000046000F3E38108F10808F3E40B9928AA60
:103F5000484603F0EFF800283FF412ADDDF82CB02E
:103F60000C9B002B3FF421AD0C99484602F05EF902
:103F70001BE5119B299C012B40F380810134013505
:103F80000123072CCDE92945C8F80070C8F8043092
:103F900000F3E98108F10808159B169A01341D44C5
:103FA000072CCDE92945C8E9002300F3E98108F190
:103FB00008080023DDE912010022FDF7B7FA119B82
:103FC000002840F07881013B013401371D44072C63
:103FD000CDE92945C8F80070C8F8043000F35E81C7
:103FE00008F10808199A0134154424AB072CCDE9CF
:103FF0002945C8E900327FF7AEAC0B9928AA48469C
:1040000003F098F80028A9D12A9D0DF1AC08A4E48A
:10401000012B069D7FF47BAEBBF1000F08BFBAF108
:104020000A0F80F0C6820AF1300A01238DF84FA1F1
:1040300006950A930DF24F1781E6102EDDE929212E
:104040002ADD1C933B4640464F46A04610250B9C5C
:10405000994604E0103E102E00F1080016DD0132F2
:10406000244B1031072ACDE92921C0E90035F1DDC3
:1040700028AA2146384603F05DF8002840F03D8428
:10408000103E102EDDE929212BA8E8DC44461C9BBC
:1040900080464846B946074601321648C8F800002F
:1040A0008D19072ACDE92925C8F8046000F3DE83BD
:1040B0009DF8832008F1080813E40B991C9328AAA3
:1040C000484603F037F800287FF448AF2A9D1C9B30
:1040D0000DF1AC0815E40B9928AA484603F02AF81C
:1040E00000287FF43BAF2A9D0DF1AC0818E400BF17
:1040F000A0780008A4780008B4780008102C299B48
:104100001FDD0B9F102604E0103C102C08F108085E
:1041100017DD0133AF4A1035072BCDE92935C8E942
:104120000026F1DD28AA3946484603F003F80028A6
:1041300040F00D84103C102CDDE929350DF1AC0860
:10414000E7DC0133A34AC8F800202544072BCDE95A
:104150002935C8F804407FF709AC0B9928AA4846CE
:1041600002F0E8FF00287FF4F9AE2A9DFFF7FEBBBE
:10417000229A002A40F38B83DDE910329342A8BFD4
:104180001346002B1C460DDD299BC8F80070013337
:104190002544072B2A95C8F80440299300F3468547
:1041A00008F10808109B002CA8BF1B1B002B1C4605
:1041B00000F3A582109B3B449B46069B590500F1EA
:1041C000C582229B119A934203DB069AD20740F1E3
:1041D000AF84299A1699C8F800101599C8F80410E8
:1041E00001320D44072A2A95299200F3398508F1F6
:1041F0000808119ABC18A4EB0B04D31A9C42A8BF60
:104200001C46002C0DDD299AC8F800B00132254467
:10421000072A2A95C8F80440299200F33A8608F143
:104220000808002CACBF1C1B1C46002C7FF795AB6C
:10423000102C299BDFF8A0B140F38D835F46102638
:10424000DDF82CB005E008F10808103C102C40F314
:10425000818301331035072BCDE92935C8E9007674
:10426000F1DD28AA5946484602F064FF00287FF491
:1042700077AEDDE929350DF1AC08E6E7069BDE07F0
:104280003FF57CAE013401350123072CCDE92945EA
:10429000C8F80070C8F804307FF7A2AE0B9928AABE
:1042A000484602F047FF00287FF458AEDDE9294573
:1042B0000DF1AC0896E65E1E002E7FF793AE102E31
:1042C000DFF814B140F3B883CDF81CA01027CA461C
:1042D000DDF82C9005E008F10808103E102E40F3A0
:1042E000A88301341035072CCDE92945C8E900B76A
:1042F000F1DD28AA4946504602F01CFF002840F094
:10430000E585DDE929450DF1AC08E6E70B9928AA1A
:10431000484602F00FFF00287FF420AE2A9D0DF1E1
:10432000AC08FFF707BB0D9AEE0652F8041B0D927E
:104330004FF001033FD468063AD51FFA81FA4FF0D7
:10434000000B0CE4069BDA063AD4069B5B0640F1B0
:1043500094830D9B53F8042B0D931FFA82FA4FF0B0
:10436000000BFFF7F8BB0B9928AA484602F0E2FEC3
:1043700000287FF4F3ADDDE929450DF1AC080BE62B
:104380000B9928AA484602F0D5FE00287FF4E6AD36
:10439000DDE929450DF1AC080BE6069BD8077FF552
:1043A000DCAA1AE534780D93FFF7C4B954AFC6E41C
:1043B000AA0500F1CF838A464FF0000BFFF7CFBB71
:1043C0000D9B53F8042B0D9392464FF0000BFFF713
:1043D000C2BB00BFA4780008B4780008DDE9120170
:1043E0000B460246FDF7D4F80146002840F002864D
:1043F000612C00F0B785412C00F0AA84079B24F0C3
:1044000020065A1C0A9600F0C683472E00F0AF859E
:10441000DDE91212069BB2F1000A43F48073109397
:104420004FF00003C0F2C8851C930C938B46462EB8
:104430005A46534600F03E84452E40F01F840799AB
:1044400026A84D1C23A90490039122A802210195BE
:1044500002900091484600F027FF07460544069B5E
:104460000F93109B06935846514600220023FDF7F8
:104470005DF8002800F0CE832B46DB1B11930A9BCE
:10448000472B00F099830A9B462B00F04084229B27
:104490001093109B0A9A013B412A229300F0A485B5
:1044A000E2B20021002BB8BF109B8DF89020BABF5C
:1044B000C3F101032D222B22092B8DF8912040F30B
:1044C000AC850DF19F0EDFF868C475468CFB0321A7
:1044D000DA17C2EBA10202EB8201A3EB41011E46F7
:1044E0003031632E284605F8011C134605F1FF35CF
:1044F000ECDC3033DAB2831E9E45294605F8012CE8
:1045000040F22D860DF1920301E011F8012B03F822
:10451000012B8E45F9D10DF1A1030DF192021B1A69
:10452000134424AA9B1A1993119B199A012B1A441C
:104530000A9240F3D5850A9B159A13440A930F9B60
:1045400023F4806600230F93149310930A9B46F480
:104550008072069223EAE37A1C9B002B40F053837F
:104560009DF883200793FFF76EBA069B590640F12A
:1045700093820D9B53F8042B0D930FFA82FA4FEAA6
:10458000EA7B52465B46FFF7A7BA0D9B53F8041B24
:104590000D93089BDD171A462B46C1E90023FFF750
:1045A000F9B9BBF1000F08BFBAF10A0F069DFFF47D
:1045B0003AAD05F4806600230694CDF82890344681
:1045C000C14654AFA8461E46189D09E0FCF752FAB2
:1045D000BBF1000F08BFBAF10A0F1FD382468B460A
:1045E0000A22002350465946FCF744FA94460CF13F
:1045F000300C07F801CC504659460A2200230136F8
:10460000013F002CE2D095F800C06645DED1FF2EB8
:10461000DCD09B4508BF924580F064821895069CCB
:1046200011964546C846DDF82890FFF784BBBB4B82
:104630000E961793069B9F0640F102810D9B073350
:1046400023F00703F3E802AB0D93069AD0070AD5CF
:104650005AEA0B0307D0302342F002028DF885405E
:1046600006928DF88430069B23F480650223FFF7C1
:1046700076BA0E96FFF764BA069D0E96FFF7D0BA8B
:10468000A74B0E961793D5E70B9928AA484602F038
:1046900051FD00287FF462AC2A9D0DF1AC08FFF7B4
:1046A000ACBB43F02003747806930136FFF742B8A1
:1046B00043F40073747806930136FFF73BB840214A
:1046C000484601F0BFFECBF80000CBF810000028F0
:1046D00000F02F854023CBF81430FEF7F7BF079B7F
:1046E0000F97062B28BF06230797149710970C9750
:1046F0003A469A468B4F0D950A93FFF7A4B9102CB2
:10470000299BDFF824B240F3DA812A4610265D4661
:10471000DDF82CB005E008F10808103C102C40F33F
:10472000CC8101331032072BCDE92932C8E900567C
:10473000F1DD28AA5946484602F0FCFC00287FF427
:104740000FACDDE929320DF1AC08E6E7119BCDF89D
:1047500028A04246DDF850801097FB1807935E466C
:10476000DDF86CA0DDF82CB0189F0F9B2946B8F13E
:10477000000F2FD0002B30D1013F08F1FF38299BCB
:104780001A98106001335144072B2A91C2F804A0F3
:10479000299360DC083207983B78841B9C42A8BFB1
:1047A0001C46002C0BDD299B166001332144072B8E
:1047B0002A915460299300F3DB803B780832002C67
:1047C000ACBF1C1B1C46002C0BDC1E440F9BB8F11D
:1047D000000FCFD1002B00F0E1810F9B013B0F9325
:1047E000CDE7102C29981DDD102504E0103C102C7D
:1047F00002F1080216DD01304B4B10310728CDE9DC
:104800002901C2E90035F1DD28AA5946484602F0DF
:1048100091FC00287FF4A4AB103C102CDDE92901A9
:104820002BAAE8DC0130404B136021440728CDE976
:104830002901546000F307823B7808321E44C5E723
:10484000069BDE065DD50D9B53F8042B0D93924617
:104850004FF0000BF9E628AA5946484602F06AFCD8
:1048600000287FF47DAB2A992BAA94E70B991C931F
:1048700028AA484602F05EFC00287FF46FAB9DF842
:1048800083202A9D1C9B0DF1AC08FFF72AB8299BB9
:104890002649C8F80010013301350121072BCDE965
:1048A0002935C8F8041000F32F8108F10808002A00
:1048B00040F08580069B119A03F0010313433FF4F7
:1048C0004CA8299B169AC8F80020159AC8F804200D
:1048D00001331544072B2A95299300F3418108F1F0
:1048E0000808119A01331544072BCDE92935C8E989
:1048F00000727FF730A8FFF780BBB946A346FFF7E9
:104900002FBB069B5D0640F1AA800D9B53F8042B3C
:104910000D931FFA82FA4FF0000B96E670780008AC
:104920008478000898780008B4780008A078000817
:10493000676666660B9928AA484602F0FBFB0028CA
:104940007FF40CAB2A9D0DF1AC08FFF741BABB46D2
:10495000FFF706BBBB4601332544072BC8F800B060
:10496000CDE92935C8F804407EF7F5AFFFF745BB20
:1049700028AA5946484602F0DDFB00287FF4F0AA39
:104980003B782A992BAA1AE70B9928AA484602F0E5
:10499000D1FB00287FF4E2AA2A9D0DF1AC08FEF7B6
:1049A000C3BF012B069D7FF4B2A9FFF73CBB0D9B53
:1049B000089953F8042B11600D93FEF7EBBF299B68
:1049C0001699C8F800101599C8F8041001330D4461
:1049D000072B2A95299300F3C38008F10808002AC1
:1049E000BFF67FAF54421032DFF8C4B680F2A48223
:1049F0002A4610265D46DDF82CB005E008F10808CF
:104A0000103C102C40F3968201331032072BCDE975
:104A10002932C8E90056F1DD28AA5946484602F075
:104A200089FB00287FF49CAADDE929320DF1AC084E
:104A3000E6E7D146DDF81CA001343544072CCDE96A
:104A40002945C8E900B67FF7CBAA27E43846FCF72A
:104A500097FA3346079602460A90FFF724B8069B5A
:104A600013F4007F0D9B53F8042B0D9314BF5FFAD2
:104A700082FA92464FF0000BE7E5069B13F4007FA5
:104A80000D9B53F8042B0D9314BF5FFA82FA9246E4
:104A90004FF0000BFFF75FB8069B13F4007F0D9BF0
:104AA00053F8042B3FF416A94FFA82FA4FEAEA7B37
:104AB0000D9352465B46FFF70FB8AB4615460133E0
:104AC0002544072BCDE92935C8F800B0C8F80440C3
:104AD00054DC08F10808FFF76DBB2D228DF8832008
:104AE000FEF79EBF1B9B1A99FF1A1A46384602F022
:104AF000EDFA6B7803B101350A220023504659467E
:104B00000026FBF7B7FF69E50B9928AA484602F093
:104B100011FB00287FF422AA229A2A9D0DF1AC08ED
:104B2000C5E6069B347843F480630693FEF702BE25
:104B3000119ABC18A4EB0B04D31A9C42A8BF1C46C4
:104B4000FFF76FBB0D9B089953F8042B0D93118051
:104B5000FEF720BF5FFA81FA4FF0000BFEF7FFBFB0
:104B60000B9928AA484602F0E5FA00287FF4F6A936
:104B7000DDE92935229A0DF1AC0830E70B9928AA16
:104B8000484602F0D7FA00287FF4E8A92A9D0DF1E3
:104B9000AC08FFF70FBB0623079339E41897DDE94C
:104BA0001073FB189E42B346DDF828A00D469046D0
:104BB00028BF9B46FFF705BB229B1093D81C02DB46
:104BC000079A934204DD023C24F020030A9360E438
:104BD000DDE910318B42C0F2B1800F9AD20740F16B
:104BE0002B82159A13440A930F9B5B0503D5109BE8
:104BF000002B00F32B820A9B672423EAE37A00232D
:104C00000F931493A8E42D2200238DF8832007939B
:104C1000FEF71CBF269BAB42BFF42FAC30215A1CC1
:104C200026921970269B9D42F9D826E40B9928AA52
:104C3000484602F07FFA00287FF490A92A9D0DF1E2
:104C4000AC08FFF7AFBA28AA5946484602F072FAF4
:104C500000287FF485A93B782A992BAA1E44B5E544
:104C60000B9928AA484602F065FA00287FF476A935
:104C7000229B2A9D0DF1AC08FFF7BBBA26A823A9F9
:104C8000079D0490039122A80221029001950091B2
:104C9000484600F009FB472E074619D1069BDA0764
:104CA00000F11881109A069247220F930A92269BD0
:104CB000FFF7E3BB26A823A9079D0490039122A830
:104CC0000321029001950091484600F0EDFA074655
:104CD000079B462E07EB03057FF4C1AB3B78302BD7
:104CE00000F0F081229B069A0F921D44109B0693C0
:104CF000FFF7B9BBDDF81CA09DF88320CDF828A0F4
:104D000007900D950F9014901090FEF79CBE229A7C
:104D10000F9B1092002A40F3EC81079903F00103E6
:104D20000B4340F08C81109B0A9366240F9B59051E
:104D300000F18D810A9B23EAE37A60E7119B159AC3
:104D40009A18109B0A92002B40F3B4816724EDE778
:104D500030238DF8843058238DF88530069B43F03E
:104D60000205079B632B00F3DB8000230C933BAF12
:104D7000DDE91212069B069543F4817324F02006A8
:104D8000B2F1000A10930A967BDB00238B461C933A
:104D9000612C00F01381412C7FF449AB58465146F9
:104DA00022AA02F049F900224FF07F53FCF756F98E
:104DB0000022002382468B46FCF7B8FB08B1012392
:104DC0002293B54B0F93079B1D94CDE91E973E464A
:104DD0005D1E0F9FCDF8448003E0FCF7A7FB013D6B
:104DE00008BBAE4B002250465946FCF737F98946BE
:104DF0008046FCF7E3FB0446FBF774FB02460B46D8
:104E000040464946FBF720FA17F804C0B5F1FF3FCA
:104E1000B146824606F801CB8B464FF000024FF0B8
:104E20000003A846D9D19E4B1494002250465946FF
:104E300045461F9FDDF84480CDF84490DDE91D49CB
:104E4000FCF79CFB00284FD1954B50465946002259
:104E5000FCF76CFB10B1149BDB0745D4002D2B46EF
:104E600006DB01333344302206F8012BB342FBD179
:104E7000069B0F93F31B1193109B0693FFF7FFBA4A
:104E80000C90DDE9122303F1004A2D2393461C9375
:104E90007EE70B9928AA484602F04CF900287FF4D7
:104EA0005DA8229B119A2A9DD31A0DF1AC08FFF739
:104EB000B8B9484628AA594602F03CF9BBF80C306C
:104EC000FEF775BD00230793FEF735BCCB46D146F0
:104ED000FFF746B8069B0F93079BFD18109B0693A0
:104EE00047230A93FFF7BFBA119B26930F9B16F82F
:104EF000012CD97B8A42334609D1302003F8010CBA
:104F0000269B5A1E269213F8012C9142F6D0392A7C
:104F10000BBF0F9A0132927AD2B203F8012CA7E7A5
:104F2000591C484601F08EFA0746002800F00D8112
:104F30000C901DE7AB46154601332544072BCDE900
:104F40002935C8E900B47FF7CAAC0B9928AA4846AE
:104F500002F0F0F800287FF401A8DDE929350DF111
:104F6000AC08BEE430238DF884307823F4E6002BBF
:104F700008BF01230793069B43F480731093139B90
:104F8000B3F1000AFFF67CAF079E019626AD23A879
:104F9000CDE90305DDE9125622AA0223029200930D
:104FA0002A46334648468B461C9100F07DF9CDF8E1
:104FB00030B00746AB4671E60C9362E7584651465F
:104FC00022AA02F039F800224FF07F53FCF746F88E
:104FD0000022002382468B46FCF7A8FA08B1012381
:104FE0002293304B0F93EEE604F10F02D2B201216F
:104FF000FFF758BA139B2C4F002BB4BF2D229DF8FE
:1050000083202A4BB8BF8DF88320FEF70BBDDDF857
:105010002CB0BBF80C30FEF7CABC002966D1302298
:105020008DF892200DF19302303302F8013B24AB4E
:10503000D31A1993FFF778BA109B0A93D4E5159BFE
:1050400002EB030A51440A9166246FE6672418991B
:105050000B78FF2B75D00025109A284603E001300D
:105060000131FF2B08D0934206DAD21A4B78002B7D
:10507000F5D10B780135F4E71891109214900F9543
:105080000F9A149B0A9913441B9A02FB03130A9369
:1050900023EAE37AFFF760BA847800080000304022
:1050A0000000E03F70780008687800086C7800081D
:1050B000B4780008C3F101031A440A9222EAE27AA2
:1050C00067249CE55846514600220023FCF72EFA3F
:1050D00000287FF407AE079BC3F10103229302E689
:1050E0000F9BD9077FF52BAAFFF725BA0DF1920286
:1050F0009AE703F00106079B56EA030205D14FF039
:10510000010ACDF828A0662479E5159A02F1010A72
:1051100053440A9323EAE37A662470E50D9B74787E
:1051200053F8041B0D93164641EAE1720792FEF70D
:1051300001BB0C23C9F800304FF0FF330893FEF792
:105140003DBC00230F9314939AE7DDF82CB0BBF815
:105150000C3043F04003ABF80C30FEF728BC0223C0
:105160001993FFF7E1B900BF024B13B1024800F0F9
:1051700005B8704700000000616100080023014687
:105180001A46184602F052B82DE9F04F03690E692D
:10519000B34283B0C0F28280013E01F1140700F1F6
:1051A000140A57F826305AF8262001338346B000F7
:1051B00000909A420AEB860007EB86090190B2FB49
:1051C000F3F836D300252A46BC4650465CF8044B1B
:1051D00003681FFA84FE08FB0E554FEA154E240C97
:1051E00008FB04E4ADB2551BA2B2C2EB134215FAA0
:1051F00083F302EB23429BB243EA0243E14540F8CA
:10520000043B4FEA14454FEA2242DFD2009B5AF892
:10521000033073B9019B043B9A4504D307E09A45D8
:1052200006F1FF3603D253F80429002AF7D0CBF851
:105230001060584601F0F2FD00282BDB08F1010850
:105240005046002357F8041B04688AB29A1A0B0CC4
:1052500012FA84F2C3EB144303EB224392B242EA04
:105260000342B94540F8042B4FEA2343EAD25AF8E7
:1052700026200AEB86036AB9043B9A4504D307E06B
:105280009A4506F1FF3603D253F80429002AF7D0D5
:10529000CBF81060404603B0BDE8F08F002003B0AB
:1052A000BDE8F08F000000002DE9F04F016C9BB0CD
:1052B00016461F46CDE90267279D044641B1426C60
:1052C0004A60012393408B6001F0A8FB0023236414
:1052D000B7F10009B4BF012300232B60764BBCBF9C
:1052E00029F00049CDF80C9033EA090300F0AA80B8
:1052F000DDE90223CDE908231046194600220023E8
:10530000FCF714F9824670B1269A01231360289B9A
:10531000002B00F0CB8269481860431E0493049868
:105320001BB0BDE8F08F18AA19ABCDE900322046BA
:10533000DDE9082301F02CFE5FEA1955804640F0B4
:105340009780DDE918B55D4405F23240202840F32E
:105350009D83C0F1400305F2124009FA03F926FAD1
:1053600000F049EA0000FBF7ADF80123013DA1F18F
:10537000F8710D93524B0022FAF766FF48A3D3E968
:105380000023FBF76BFE48A3D3E90023FAF75EFF87
:10539000064628460F46FBF7A5F845A3D3E90023A8
:1053A000FBF75CFE02460B4630463946FAF74EFFE5
:1053B00006460F46FCF702F90022824600233046DB
:1053C0003946FCF7BDF8002840F06382BAF1160FA9
:1053D00000F251823B4B03EBCA03D3E90023DDE922
:1053E0000801FCF7ADF8002872D00023ABEB0505EF
:1053F0000C936B1E0AF1FF3A059300F144820023DF
:105400000793BAF1000F6BDA079BCDF818A0A3EB56
:105410000A030793249B092BCAF1000B4FF0000AE3
:1054200067D8052B40F33083043B24930025249B4D
:10543000023B032B00F27886DFE813F04C044904AA
:1054400040042304269A42F20F73C9F31309136030
:1054500059EA06031CD1289B002B00F05C861A4BEE
:1054600004930833289A049813601BB0BDE8F08FAA
:10547000DDE90812C2F31303084643F07F51DDF85B
:1054800060B0CDF834A0A5F2FF3541F4401171E7CA
:10549000289B002B40F0E4830C4B04933FE700BFB4
:1054A00061436F63A787D23FB3C8608B288AC63F2A
:1054B000FB799F501344D33F0000F07FA178000890
:1054C0000000F83F00790008C8780008C478000898
:1054D000ABEB05056B1E059300F1A4840C900790BF
:1054E000059B5344CDE9053A249B092B4FF0000B53
:1054F00097D94FF0FF360125CDE90A6500232493A3
:105500002593002161641296204601F061FA0E2E67
:105510000490206400F2F680002D00F0F3800699DC
:10552000002940F35384BB4B01F00F0203EBC2038D
:10553000D3E90023CDE90E23CA054FEA211540F136
:10554000EA83B54BDDE90801D3E90823FBF7B0FE98
:10555000CDE9100105F00F054FF0030985B1DDE934
:105560000E01AD4EEB0705D5D6E90023FBF776FD1E
:1055700009F101096D1006F10806F3D1CDE90E011C
:10558000DDE90E23DDE91001FBF792FECDE90E0106
:105590000C9B53B1DDE90E67A04B00223046394623
:1055A000FBF7CEFF002840F03E854846FAF79AFF09
:1055B000DDE90E23FBF752FD994B0022FAF746FE78
:1055C000A1F15073CDE9100111930A9B002B00F05B
:1055D000DF83069B14930A9B13930B9B002B00F015
:1055E000A984139A8B4B8F4903EBC20353E902231F
:1055F0000020FBF75DFEDDE91023FAF725FE0F46DC
:105600000646DDE90E01CDE91067FBF7D7FF074637
:10561000FAF768FF02460B46DDE90E01FAF714FEC1
:10562000049D303702460B4605F8017BDDE9100189
:10563000CDE90E23FBF7A2FF002840F037854FF09D
:105640000009CDE916BACDF85480CA46AB46DDE96B
:105650000E89139F0E94DDE9104524E0BA454CDA1B
:10566000FBF7FCFC704B002204460D4640464946C1
:10567000FBF7F4FC89468046FBF7A0FF0646FAF7E5
:1056800031FF02460B4640464946FAF7DDFD30360B
:105690000BF8016B22462B4680468946FBF750FFEC
:1056A000002840F0FF8442464B465C490020FAF750
:1056B000CBFD22462B46FBF743FF06465A4B0AF129
:1056C000010A002220462946002EC7D0149BDDF88F
:1056D00054800E9C049A06935D4602E0954200F0C9
:1056E000CB84AA4615F8013D392BF7D00133DBB244
:1056F0002B70069B01330693A8E1DDE916BADDF8AD
:1057000054800E9C199B002BC0F29280069A0E2AA0
:1057100000F38E803F4B03EBC203D3E900AB259B24
:10572000002B1ADA0A9B002B17DC40F0B6843F4BA3
:10573000002250465946FBF791FC02460B46DDE934
:105740000801FBF707FFDDF828904D46002800F020
:105750005082259B049FDE4353E2DDE90856524602
:105760005B4628463146FBF7A3FDFBF727FF0746BC
:105770008146FAF7B7FE52465B46FBF76FFC0B46D5
:10578000024631462846FAF75FFD3B460A9F049DD4
:105790003033012F05F8013B00F07E834FF0010903
:1057A000CDF808802E46059417E0FBF781FDFBF746
:1057B00005FF8046FAF796FE52465B46FBF74EFC25
:1057C0000B46024629462046FAF73EFD08F1300313
:1057D000B94506F8013B00F05A83134B0022FBF752
:1057E0003DFC0022002304460D46FBF79FFE844645
:1057F00009F1010952465B4620462946BCF1000FDB
:10580000D3D0DDF80880059C3546069B013306930E
:10581000AA461BE100790008D87800080000F03F94
:1058200000001C400000E03F000024400000144045
:105830000B9A002A40D0249A012A40F38A820A9BBC
:105840005F1EBB4580F26482A7EB0B039A44BB4604
:1058500000270A9B002BC0F24D83059A1146079A38
:10586000194416461A44059107920121204601F079
:105870006FF9054623E00123ABEB05050C936B1E86
:1058800005937FF5BCADC5F1010307930023059394
:10589000B7E55046FAF726FE32463B46FBF746FE92
:1058A00000287FF493AD0AF1FF3A8FE5C54B0493CE
:1058B00004981BB0BDE8F08F079E0B9D5F46002E3D
:1058C0000CDD059A002A09DD0799B2421346A8BFEC
:1058D0003346C91AF61AD31A07910593BBF1000F84
:1058E0001AD00B9B002B00F0B481002F10DD29464D
:1058F0003A46204601F0D8F9424601460546204680
:1059000001F030F9414603462046984601F086F8FA
:10591000BBEB070240F09E810121204601F018F9FF
:10592000BAF1000F814600F3B680249B012B40F3AF
:105930009C8100270120BAF1000F40F0B780059A42
:10594000104410F01F0000F09680C0F12003042BDB
:1059500040F3E583079BC0F11C0003440244079316
:1059600006440592079B002B05DD41461A4620465A
:1059700001F0EAF98046059B002B05DD49461A46F1
:10598000204601F0E1F981460C9B002B40F0468156
:105990000A9B002B40F318810B9B002B40F0988052
:1059A000069B01330693049FDDF828A0012603E03F
:1059B00001F03EF80136804649464046FFF7E4FBD9
:1059C000564500F1300C07F801CB41464FF000037B
:1059D0004FF00A022046EBDB0A9BCDF808C0002BF3
:1059E000C8BF9B46049BD8BF4FF0010B9B440026C9
:1059F00041460122204601F0A7F94946804601F0C0
:105A00000DFA002840F393811BF8013C049A0BF136
:105A1000FF3B04E05A4500F095811BF8013D392B0E
:105A20000BF1010AF6D001338BF8003049462046CD
:105A300000F0F4FF55B12EB1AE4203D031462046FE
:105A400000F0ECFF2946204600F0E8FF41462046E2
:105A500000F0E4FF00238AF80030269B1A46069BDC
:105A60001360289B002B3FF45AAC0498C3F800A0A5
:105A70001BB0BDE8F08F1C20079B03440793059BD8
:105A80000344064405936DE70125D0E4C0F12000EE
:105A900006FA00F067E401465246204601F004F998
:105AA000249B012B814640F3BF810027D9F8103099
:105AB00009EB8303186900F0FBFFC0F120003EE70B
:105AC000249B022B00F31E83129BCDF818A00A938F
:105AD000069B01330693002E00F31381002F40F044
:105AE000F5812F46029B2499049E03F001020C923B
:105AF0000A430B920A9A731E1A440892494640467A
:105B0000FFF742FB29468346404601F087F94946A4
