:020000040800F2
:1000000000000220011E0008C10A0008C30A0008FF
:10001000C50A0008C70A0008C90A00080000000055
:10002000000000000000000000000000CB0A0008F3
:10003000CD0A000800000000CF0A0008D10A00081D
:10004000511E0008511E0008511E0008511E0008D4
:10005000511E0008511E0008511E0008511E0008C4
:10006000511E0008511E0008511E0008511E0008B4
:10007000511E0008511E0008511E0008511E0008A4
:10008000511E0008511E0008511E0008511E000894
:10009000511E0008511E0008511E0008511E000884
:1000A000511E0008D90A0008511E0008511E000800
:1000B000511E0008511E0008511E0008511E000864
:1000C000511E0008511E0008511E0008511E000854
:1000D000511E0008511E0008511E0008511E000844
:1000E000511E0008511E0008511E0008511E000834
:1000F000511E0008511E0008511E0008511E000824
:10010000511E0008511E0008511E0008511E000813
:10011000511E0008511E0008511E0008511E000803
:10012000511E0008511E0008511E0008511E0008F3
:10013000511E00080000000000000000511E0008D1
:10014000511E0008511E0008511E0008511E0008D3
:10015000511E0008511E0008511E0008511E0008C3
:10016000511E0008511E0008511E0008511E0008B3
:10017000511E0008511E0008511E0008000000001A
:1001800000000000511E00080000000000000000F8
:10019000511E00080000000000000000511E000871
:1001A000000000000000000000000000511E0008D8
:1001B000511E0008511E0008511E0008511E000863
:0401C000511E0008C4
:1001C40010B5054C237833B9044B13B10448AFF38D
:1001D40000800123237010BD3C04002000000000B7
:1001E4001C20000808B5034B1BB103490348AFF3B7
:1001F400008008BD00000000400400201C2000080E
:1002040053B94AB9002908BF00281CBF4FF0FF3179
:100214004FF0FF3000F06CB9ADF1080C6DE904CE7D
:1002240000F006F8DDF804E0DDE9022304B07047CD
:100234002DE9F047089E0D4604468E46002B40F0FB
:1002440082808A42174646D9B2FA82F24AB1C2F192
:10025400200105FA02F320FA01F1974041EA030E66
:1002640094404FEA1748230CBEFBF8FCB9B208FBD4
:100274001CEE43EA0E430CFB01F098420AD9FB182A
:100284000CF1FF3580F01681984240F21381ACF1F5
:10029400020C3B441B1AA4B2B3FBF8F008FB103366
:1002A40044EA034400FB01F1A14209D93C1900F1DD
:1002B400FF3380F00181A14240F2FE8002383C44C9
:1002C400641A40EA0C4000211EB1D4400023C6E960
:1002D4000043BDE8F08702B9FFDEB2FA82F2002AD9
:1002E4004FD1CB1B4FEA174E1FFA87F80121B3FBFE
:1002F400FEFC250C0EFB1C3345EA034508FB0CF3FE
:10030400AB4207D97D190CF1FF3002D2AB4200F2A7
:10031400E7808446ED1AA3B2B5FBFEF00EFB105540
:1003240043EA054408FB00F8A04507D93C1900F14D
:10033400FF3302D2A04500F2D7801846A4EB08048C
:1003440040EA0C40C0E78B4208D9002E00F0AF8091
:100354000021C6E900050846BDE8F087B3FA83F139
:1003640000294BD1AB4202D3824200F2B780841AF7
:1003740065EB030301209E46002EAAD0C6E9004E79
:10038400A7E7C2F1200C01FA02F3974020FA0CF01F
:100394004FEA174E21FA0CFC1843BCFBFEF1050C86
:1003A4000EFB11CC1FFA87F845EA0C4501FB08F354
:1003B400AB4204FA02F409D97D1901F1FF3C80F043
:1003C4008B80AB4240F2888002393D44EB1A85B2FF
:1003D400B3FBFEF00EFB103345EA034500FB08F3C4
:1003E400AB4207D97D1900F1FF3C71D2AB426FD902
:1003F40002383D44EB1A40EA014178E7C1F1200C90
:100404008B4022FA0CF71F4320FA0CF405FA01F38F
:100414004FEA174E25FA0CF51C43230CB5FBFEF9E5
:100424001FFA87F80EFB195543EA054509FB08FA3C
:10043400AA4502FA01F200FA01F308D97D1909F17B
:10044400FF3047D2AA4545D9A9F102093D44A5EB9D
:100454000A05A4B2B5FBFEF00EFB105544EA0544B0
:1004640000FB08F8A04507D93C1900F1FF352DD24F
:10047400A0452BD902383C4440EA0940A4EB0804C7
:10048400A0FB02894C45C6464D4619D316D05EB131
:10049400B3EB0E0264EB050404FA0CFCCA404CEA0C
:1004A4000202CC40C6E900240021BDE8F0873146B1
:1004B40030460EE7AC46EDE6184601E74345E6D282
:1004C400B8EB020E69EB07050138E0E72846D3E7ED
:1004D40060468FE78146BAE7614677E708464BE70F
:1004E400ACF1020C3D4415E702383C4426E700BF5A
:1004F400704700BF82B0002100910B4B1A6B42F091
:1005040001021A631A6B02F001020092009A01912F
:100514001A6B42F002021A631B6B03F0020301938D
:10052400019B02B0704700BF003802400268294BAB
:100534009A4200D0704730B4274B1B88274A15686D
:1005440005FB03F1264CA4FB01214809C3F5FA720B
:1005540002FB05F2A4FB021252092249097801297F
:1005640022D002292BD0A1B101339BB21A4A1380A5
:10057400B3F5FA7F0BD3134600221A8001311A4BCC
:1005840083FB012303EB4303CB1A164A137030BCDD
:100594007047164C24686263154A12685063154A02
:1005A400126800205063DFE7114C24686263114A2B
:1005B400126850630D4A126800205063D4E70D4C52
:1005C40024686263094A12685063094A1268002069
:1005D4005063C9E7000001405A04002000000020D5
:1005E400D34D62105804002056555555EC04002094
:1005F40034050020A404002072B6FEE700B587B0DD
:1006040000230293039304930593009301931448E6
:10061400144A026043F67F62426083600922C2602A
:1006240003614361836101F087F990B94FF480530A
:10063400029302A90A4801F088FA60B900230093E2
:1006440001936946064801F093FB30B907B05DF8A1
:1006540004FBFFF7D1FFFFF7CFFFFFF7CDFF00BF8C
:100664005C0400200000014000B58FB000230A9311
:100674000B930C930D9308930993019302930393A3
:1006840004930593069307931E481F4A02609F2212
:100694004260836040F2E732C2600361836101F02B
:1006A4004BF920BB4FF480530A930AA9154801F073
:1006B4004CFAF0B9134801F06BF9E0B90023089340
:1006C400099308A90F4801F053FBB0B960230193C3
:1006D400002202920392059201A90A4801F0BCF992
:1006E40068B9084800F07EF90FB05DF804FBFFF725
:1006F40083FFFFF781FFFFF77FFFFFF77DFFFFF722
:100704007BFF00BFEC0400200004004000B58FB064
:1007140000230A930B930C930D930893099301936D
:100724000293039304930593069307931E481F4A69
:1007340002609F224260836040F2E732C26003613C
:10074400836101F0F9F820BB4FF480530A930AA99E
:10075400154801F0FAF9F0B9134801F019F9E0B9B4
:1007640000230893099308A90F4801F001FBB0B9CD
:1007740060230193002202920392059201A90A4880
:1007840001F06AF968B9084800F02CF90FB05DF877
:1007940004FBFFF731FFFFF72FFFFFF72DFFFFF7F4
:1007A4002BFFFFF729FF00BF34050020000800409D
:1007B40000B589B000230193029303930493059336
:1007C400069307931448154A02609F22426083608F
:1007D40040F2E732C2600361836101F0ADF8A0B971
:1007E4000D4801F0D5F890B96023019300220292DC
:1007F4000392059201A9084801F02EF948B9064868
:1008040000F0F0F809B05DF804FBFFF7F5FEFFF720
:10081400F3FEFFF7F1FE00BFA40400200020004017
:1008240000B595B03422002107A801F035FB002360
:10083400029303930493059306930093194A116C4E
:1008440041F080511164126C02F080520092009ABF
:10085400019315490A6822F4404242F480420A6036
:100864000A6802F440420192019A0222079201228C
:100874000A9210220B920D9307A800F011FC68B99C
:100884000F2302930021039104910591069102A87C
:1008940000F0CAFA20B915B05DF804FBFFF7ACFE0E
:1008A400FFF7AAFE003802400070004008B500F0CF
:1008B40041F9FFF7B5FFFFF71DFEFFF79FFEFFF7B6
:1008C400D3FEFFF723FFFFF773FF0021074801F072
:1008D400CDF90021064801F0C9F90021054801F0CD
:1008E400C5F9054800F0BEFEFEE700BFEC04002099
:1008F40034050020A40400205C04002082B0002100
:1009040000910B4B5A6C42F480425A645A6C02F4C4
:1009140080420092009A01911A6C42F080521A644B
:100924001B6C03F080530193019B02B0704700BF1E
:100934000038024000B585B00368254A93420BD0C5
:10094400244A93421CD0244A934226D0234A9342F9
:1009540030D005B05DF804FB00210091204B5A6CA7
:1009640042F001025A645B6C03F001030093009BA4
:100974000A46192000F01CF9192000F04DF9E8E7A7
:1009840000230193164B1A6C42F002021A641B6C8A
:1009940003F002030193019BDBE700230293104B56
:1009A4001A6C42F004021A641B6C03F004030293F1
:1009B400029BCEE700230393094B1A6C42F4807226
:1009C4001A641B6C03F480730393039BC1E700BF99
:1009D40000000140000400400008004000200040E6
:1009E4000038024000B589B00023039304930593B3
:1009F4000693079303682C4A934208D02B4A9342E8
:100A04001ED02B4A934234D009B05DF804FB002376
:100A1400009302F50D32116B41F001011163126B69
:100A240002F001020092009A4022039202220492F0
:100A340005930693079203A91E4800F011F9E3E712
:100A44000023019302F50C32116B41F00201116392
:100A5400126B02F002020192019A402203920222D6
:100A6400049205930693079203A9134800F0F8F83B
:100A7400CAE70023029302F50632116B41F001012B
:100A84001163126B02F001020292029A8022039215
:100A940002220492059306930923079303A90548A8
:100AA40000F0DEF8B0E700BF00040040000800409A
:100AB400002000400000024000040240FEE7FEE780
:100AC400FEE7FEE7FEE770477047704708B500F0A1
:100AD4004BF808BD08B5024800F00DFE08BD00BF84
:100AE4005C0400207047000010B504460E4B1878D3
:100AF4004FF47A73B3FBF0F30C4A1068B0FBF3F0D5
:100B040000F098F868B90F2C01D901200AE00022FE
:100B140021464FF0FF3000F04BF8054B1C600020DD
:100B240000E0012010BD00BF0800002004000020E8
:100B34000C00002008B50B4B1A6842F400721A60CE
:100B44001A6842F480621A601A6842F480721A6069
:100B5400032000F01BF80F20FFF7C6FFFFF7CEFEBF
:100B6400002008BD003C0240034A1168034B1B7877
:100B74000B441360704700BF7C0500200800002070
:100B8400014B1868704700BF7C050020074AD368F2
:100B940023F4E0631B041B0C000200F4E060034335
:100BA40043F0BF6343F40033D360704700ED00E0CB
:100BB40030B4174BDB68C3F30223C3F10704042CDE
:100BC40028BF04241D1D062D18D9033B4FF0FF3503
:100BD40005FA04F421EA0401994005FA03F322EA30
:100BE4000303194300280BDB0901C9B200F160407B
:100BF40000F5614080F8001330BC70470023E5E73E
:100C040000F00F000901C9B2024B1954F4E700BF08
:100C140000ED00E014ED00E0002807DB00F01F0207
:100C2400400901239340024A42F82030704700BF34
:100C340000E100E00138B0F1807F0AD2064B586031
:100C4400064AF02182F823100020986007221A60D7
:100C540070470120704700BF10E000E000ED00E0A5
:100C640000230F2B00F2D780F0B482B05DE08668D9
:100C74005F000324BC4026EA0406CC68BC4034432D
:100C84008460466826EA02064C68C4F300129A405F
:100C94003243426057E0DC08083450F8247003F013
:100CA400070296000F22B24027EA02070A69B240FF
:100CB4003A4340F824205AE0062200E00022B240E1
:100CC4003A430234544E46F82420544A9468EA4382
:100CD40024EA05064F6817F4801F01D045EA04068C
:100CE4004E4CA660E46802EA04064F6817F4001F3D
:100CF40001D045EA0406494CE660646802EA040649
:100D04004F6817F4003F01D045EA0406434C66607F
:100D1400246822404E6816F4803F01D045EA04025C
:100D24003E4C226001330F2B72D801229A400C688A
:100D340004EA020532EA0404F4D14C6804F0030422
:100D4400013C012C93D94A6802F00302032A09D01A
:100D5400C4685E000322B24024EA02048A68B240F6
:100D64002243C2604A6802F00302022A93D0046854
:100D74005E000322B24024EA02044A6802F003023D
:100D8400B240224302604A6812F4403FCAD00022B3
:100D94000192234A546C44F480445464526C02F427
:100DA40080420192019A9C08A61C1B4A52F82670A4
:100DB40003F0030296000F22B24027EA0207194A01
:100DC40090423FF47BAF02F58062904216D002F568
:100DD4008062904214D002F58062904212D002F5F3
:100DE4008062904210D002F5806290420ED002F5EB
:100DF400806290423FF460AF072260E701225EE721
:100E040002225CE703225AE7042258E7052256E748
:100E140002B0F0BC7047704700380140003C01400C
:100E24000038024000000240002800F09B8070B5AA
:100E34000D4604464F4B1B6803F00F038B4208D248
:100E4400CBB24C4A1370136803F00F038B4240F08B
:100E54008B80236813F0020F17D013F0040F04D013
:100E6400454A936843F4E0539360236813F0080FF2
:100E740004D0414A936843F4604393603E4A9368C4
:100E840023F0F003A1680B439360236813F0010F70
:100E940032D06368012B21D09A1E012A25D9364A03
:100EA400126812F0020F61D033498A6822F00302FB
:100EB40013438B60FFF764FE06462F4B9B6803F0D9
:100EC4000C036268B3EB820F16D0FFF759FE801B48
:100ED40041F288339842F0D9032042E0264A12684E
:100EE40012F4003FE0D101203BE0234A126812F0E3
:100EF400007FD9D1012034E01E4B1B6803F00F039F
:100F0400AB4207D9EAB21B4B1A701B6803F00F03FC
:100F1400AB422DD1236813F0040F06D0164A936810
:100F240023F4E053E1680B439360236813F0080F44
:100F340007D0114A936823F46043216943EAC1034B
:100F4400936000F021F80C4B9B68C3F303130B4A26
:100F5400D35CD8400A4B18600A4B1868FFF7C4FDED
:100F6400002070BD012070470120FAE70120F8E756
:100F74000120F6E7003C024000380240342000081B
:100F8400040000200C000020F8B5424B9B6803F0DD
:100F94000C03082B07D00C2B41D0042B01D03E4866
:100FA400F8BD3E48FCE73B4B5A6802F03F025B68E1
:100FB40013F4800F12D0374B5968C1F38811002302
:100FC4003648A1FB0001FFF71BF9324B5B68C3F302
:100FD400014301335B00B0FBF3F0E1E72D4B5B68A9
:100FE400C3F3881358010021C01A61F100018E0176
:100FF40046EA906687013C1A66EB0105E90041EA7E
:101004005471E000C01841F100018B0243EA90538F
:101014008402204619460023FFF7F2F8D5E71D4B5A
:101024005A6802F03F025B6813F4800F10D0194B2A
:101034005968C1F3881100231848A1FB0001FFF788
:10104400DFF8144B5B68C3F30273B0FBF3F0A7E75C
:10105400104B5B68C3F388135C010025E41A65F147
:101064000005AE0146EA9466A701381B66EB05014C
:10107400CC0044EA5074C500E81844F100018B0226
:1010840043EA90538402204619460023FFF7B8F838
:10109400D7E700BF003802400024F40040787D0107
:1010A400002800F0018270B582B00446036813F092
:1010B400010F41D0A54B9B6803F00C03042B32D0E5
:1010C400A24B9B6803F00C03082B27D09F4B9B6813
:1010D40003F00C030C2B59D06368B3F5803F5BD04D
:1010E400B3F5A02F5ED0994B1A6822F480321A60AF
:1010F4001A6822F480221A606368002B5CD0FFF720
:101104003FFD0546914B1B6813F4003F14D1FFF7D4
:1011140037FD401B6428F5D90320CCE18B4B5B6879
:1011240013F4800FD2D0894B1B6813F4003F03D013
:101134006368002B00F0BA81236813F0020F60D0BB
:10114400824B9B6813F00C0F4AD0804B9B6803F0D2
:101154000C03082B3FD07D4B9B6803F00C030C2B36
:1011640068D0E368002B74D0794B01221A60FFF732
:1011740007FD0546754B1B6813F0020F60D1FFF79E
:10118400FFFC401B0228F5D9032094E16F4B5B68F8
:1011940013F4800FA0D0C6E76C4A136843F480337D
:1011A4001360A9E7694B1A6842F480221A601A682E
:1011B40042F480321A609FE7FFF7E2FC0546634B76
:1011C4001B6813F4003FB7D0FFF7DAFC401B642818
:1011D400F5D903206FE15D4B5B6813F4800FBAD13E
:1011E4005A4B1B6813F0020F03D0E368012B40F045
:1011F4005F81564A136823F0F803216943EAC10367
:101204001360236813F0080F47D06369002B32D0B2
:10121400504B01221A60FFF7B3FC05464B4B5B6F42
:1012240013F0020F39D1FFF7ABFC401B0228F5D9AC
:10123400032040E1454B5B6813F4800F91D1CFE765
:10124400424A136823F0F803216943EAC103136097
:10125400D7E73F4B00221A60FFF792FC05463B4B51
:101264001B6813F0020FCCD0FFF78AFC401B022846
:10127400F5D903201FE1374B00221A60FFF780FCE9
:101284000546324B5B6F13F0020F06D0FFF778FC74
:10129400401B0228F5D903200DE1236813F0040F45
:1012A40078D02A4B1B6C13F0805F33D10023019359
:1012B400264B1A6C42F080521A641B6C03F0805364
:1012C4000193019B0125244B1B6813F4807F23D0D9
:1012D400A368012B34D0052B40D01C4B1A6F22F08D
:1012E40001021A671A6F22F004021A67A368002B1E
:1012F4003ED0FFF745FC0646144B1B6F13F0020F5C
:1013040047D1FFF73DFC801B41F288339842F3D963
:101314000320D0E00025D6E70F4A136843F4807316
:101324001360FFF72DFC06460B4B1B6813F4807FFC
:10133400CED1FFF725FC801B0228F5D90320BAE0A3
:10134400024A136F43F001031367CFE700380240EA
:1013540000004742800E4742007000405E4B1A6F07
:1013640042F004021A671A6F42F001021A67BDE7DD
:10137400FFF706FC0646584B1B6F13F0020F08D00C
:10138400FFF7FEFB801B41F288339842F3D9032018
:1013940091E0EDB9A369002B00F08C804E4A92686D
:1013A40002F00C02082A54D0022B17D04B4B002217
:1013B4001A60FFF7E5FB0446474B1B6813F0007FF8
:1013C40045D0FFF7DDFB001B0228F5D9032072E0AE
:1013D400414A136C23F080531364DBE73F4B002234
:1013E4001A60FFF7CDFB05463B4B1B6813F0007FEB
:1013F40006D0FFF7C5FB401B0228F5D903205AE0AD
:10140400E369226A1343626A43EA8213A26A5208B6
:10141400013A43EA0243E26A43EA0263226B43EA83
:1014240002732D4A53602D4B01221A60FFF7A8FB6B
:101434000446294B1B6813F0007F06D1FFF7A0FB7D
:10144400001B0228F5D9032035E0002033E00020FA
:1014540031E0012B31D0204B5B6803F48001E26959
:1014640091422CD103F03F02216A8A4229D1616A58
:1014740047F6C0721A40B2EB811F24D103F4403105
:10148400A26A5208013AB1EB024F1ED103F0706216
:10149400E16AB2EB016F1AD103F0E043226BB3EBC4
:1014A400027F16D1002006E001207047012002E0EF
:1014B400012000E0002002B070BD0120FBE7012004
:1014C400F9E70120F7E70120F5E70120F3E7012020
:1014D400F1E70120EFE700BF003802406000474217
:1014E40030B4036A23F001030362056A4268846925
:1014F40024F073040B681C4325F002058B682B430E
:10150400104DA84203D005F58065A84205D123F00B
:101514000803CD682B4323F004030A4DA84203D0EB
:1015240005F58065A84205D122F440724D69154342
:101534008A692A43426084614A684263036230BC18
:10154400704700BF0000014030B4036A23F4807385
:101554000362036A4268C46924F073040D682C436F
:1015640023F400738D6843EA0523124DA84203D087
:1015740005F58065A84206D123F40063CD6843EAEB
:10158400052323F480630B4DA84203D005F5806541
:10159400A84207D122F440524D6942EA05128D69EE
:1015A40042EA05124260C4614A68C263036230BC05
:1015B400704700BF0000014030B4036A23F4805335
:1015C4000362036A4468C26922F4E6420D6842EA8F
:1015D400052223F400538D6843EA0533094DA842DC
:1015E40003D005F58065A84204D124F480444D69F4
:1015F40044EA85144460C2614A680264036230BCF0
:10160400704700BF0000014030B4036A056A25F04A
:1016140001050562846924F0F00444EA021423F00D
:101624000A030B438461036230BC704730B4056A1B
:1016340025F0100505628469036A24F4704444EAC1
:10164400023423F0A00343EA01138461036230BC33
:101654007047836823F070030B4343F007038360F0
:101664007047000090F83D30DBB2012B37D10223E4
:1016740080F83D300268D36843F00103D360036807
:10168400194A934220D0B3F1804F1DD0A2F57C4279
:10169400934219D002F58062934215D002F580621C
:1016A400934211D002F5784293420DD002F5705264
:1016B400934209D0A2F59432934205D01A6842F0BD
:1016C40001021A60002070479A6802F00702062A95
:1016D40007D01A6842F001021A6000207047012006
:1016E40070470020704700BF0000014070477047FA
:1016F40070477047704710B5044603681A6912F0C2
:10170400020F11D0DA6812F0020F0DD06FF002024E
:101714001A610123037703689B6913F0030F70D0E8
:10172400FFF7E6FF0023237723681A6912F0040FFA
:1017340012D0DA6812F0040F0ED06FF004021A61AE
:101744000223237723689B6913F4407F5FD02046EC
:10175400FFF7CEFF0023237723681A6912F0080FDE
:1017640012D0DA6812F0080F0ED06FF008021A6176
:10177400042323772368DB6913F0030F4ED020463C
:10178400FFF7B6FF0023237723681A6912F0100FBE
:1017940012D0DA6812F0100F0ED06FF010021A6136
:1017A400082323772368DB6913F4407F3DD0204668
:1017B400FFF79EFF0023237723681A6912F0010FB5
:1017C40003D0DA6812F0010F36D123681A6912F0D7
:1017D400800F03D0DA6812F0800F34D123681A69BD
:1017E40012F0400F03D0DA6812F0400F32D12368B0
:1017F4001A6912F0200F03D0DA6812F0200F30D1EA
:1018040010BDFFF774FF2046FFF773FF8AE72046F9
:10181400FFF76DFF2046FFF76CFF9BE72046FFF7BD
:1018240066FF2046FFF765FFACE72046FFF75FFF42
:101834002046FFF75EFFBDE76FF001021A61204604
:10184400FEF774FEC1E76FF080021A61204600F0D3
:10185400D4FAC3E76FF040021A612046FFF74AFF4B
:10186400C5E76FF020021A61204600F0C5FAC7E709
:101874000368304A904212D0B0F1804F0FD0A2F5E5
:101884007C4290420BD002F58062904207D002F570
:101894008062904203D002F57842904203D123F053
:1018A40070034A681343234A90422AD0B0F1804F10
:1018B40027D0A2F57C42904223D002F58062904268
:1018C4001FD002F5806290421BD002F5784290420C
:1018D40017D002F57052904213D002F58062904204
:1018E4000FD002F5806290420BD0A2F5983290425C
:1018F40007D002F58062904203D002F580629042E4
:1019040003D123F44073CA68134323F080034A6964
:10191400134303608B68C3620B688362054B984270
:1019240003D003F58063984201D10B69036301235B
:10193400436170470000014040B310B5044690F87D
:101944003D30F3B1022384F83D30214651F8040BB5
:10195400FFF78EFF012384F8463084F83E3084F884
:101964003F3084F8403084F8413084F8423084F8C1
:10197400433084F8443084F8453084F83D30002006
:1019840010BD80F83C30FEF7D5FFDBE7012070473F
:1019940040B310B5044690F83D30F3B1022384F807
:1019A4003D30214651F8040BFFF762FF012384F810
:1019B400463084F83E3084F83F3084F8403084F870
:1019C400413084F8423084F8433084F8443084F859
:1019D400453084F83D30002010BD80F83C30FFF7DE
:1019E40085FEDBE70120704730B4036A23F010035F
:1019F4000362036A4468826922F4E6420D6842EA9B
:101A0400052223F020038D6843EA0513114DA842F3
:101A140003D005F58065A84206D123F08003CD6884
:101A240043EA051323F040030A4DA84203D005F509
:101A34008065A84207D124F440644D6944EA8504D2
:101A44008D6944EA8504446082614A688263036262
:101A540030BC70470000014038B590F83C30012B91
:101A640066D004460D46012380F83C300C2A5AD82F
:101A7400DFE802F0075959591B5959593059595936
:101A840044000068FFF72CFD2268936943F00803C3
:101A940093612268936923F0040393612268936934
:101AA40029690B43936100203EE00068FFF79CFF27
:101AB4002268936943F4006393612268936923F471
:101AC4008063936122689369296943EA01239361DE
:101AD400002029E00068FFF737FD2268D36943F04E
:101AE4000803D3612268D36923F00403D361226815
:101AF400D36929690B43D361002015E00068FFF71F
:101B04005BFD2268D36943F40063D3612268D3691F
:101B140023F48063D3612268D369296943EA0123EA
:101B2400D361002000E00120002384F83C3038BD5C
:101B34000220FCE710B4846824F47F4442EA0322C0
:101B44000A432243826010BC704790F83C30012B5A
:101B540078D010B50446012380F83C30022380F885
:101B64003D300268936823F47F4323F07703936046
:101B74000B68602B4CD029D8402B54D00CD9502B57
:101B840022D1CA6849680068FFF73EFD50212068E9
:101B9400FFF75FFD002005E0202B0DD009D9302B85
:101BA4000AD00120012384F83D30002384F83C301E
:101BB40010BD0BB1102B05D119462068FFF749FD64
:101BC4000020EFE70120EDE70120EBE7B3F5805FAC
:101BD40034D0B3F5005F0CD1CB684A6889680068DB
:101BE400FFF7A8FF2268936843F4804393600020C2
:101BF400D8E7702B24D1CB684A6889680068FFF75E
:101C040099FF2268936843F0770393600020C9E743
:101C1400CA6849680068FFF709FD60212068FFF77A
:101C240018FD0020BEE7CA6849680068FFF7ECFCAD
:101C340040212068FFF70DFD0020B3E70020B1E745
:101C44000120AFE70220704710B401F01F01012307
:101C540003FA01F4036A23EA04030362036A02FA3F
:101C640001F10B43036210BC7047000010B5044639
:101C74000846002942D194F83E30DBB2013B18BF3C
:101C84000123002B6ED1002851D1022384F83E3069
:101C9400012201462068FFF7D7FF2368334A9342A5
:101CA40003D002F58062934203D15A6C42F400429D
:101CB4005A6423682D4A934249D0B3F1804F46D0E9
:101CC400A2F57C42934242D002F5806293423ED018
:101CD40002F5806293423AD002F57842934236D0BC
:101CE40002F57052934232D0A2F5943293422ED030
:101CF4001A6842F001021A60002032E0042908D078
:101D040008290DD094F84130DBB2013B18BF012300
:101D1400B7E794F83F30DBB2013B18BF0123B0E7CB
:101D240094F84030DBB2013B18BF0123A9E7042833
:101D340005D0082807D0022384F84130A8E70223FD
:101D440084F83F30A4E7022384F84030A0E79A687F
:101D540002F00702062A07D01A6842F001021A604C
:101D6400002010BD0120FCE70020FAE7000001403C
:101D740090F83C30012B3BD030B4012380F83C3048
:101D8400022380F83D3003685C689D6824F0700489
:101D94000A6822435A600368164A93421AD0B3F180
:101DA400804F17D0A2F57C42934213D002F5806293
:101DB40093420FD002F5806293420BD002F5784231
:101DC400934207D002F57052934203D0A2F59432A5
:101DD400934204D125F080054A6815439D60012390
:101DE40080F83D30002380F83C30184630BC704702
:101DF400022070470000014070477047DFF834D07C
:101E04000D480E490E4A002302E0D458C45004334E
:101E1400C4188C42F9D30B4A0B4C002301E0136025
:101E24000432A242FBD3FEF75DFE00F011F8FEF788
:101E34003DFD704700000220000000203C0400200B
:101E44005C2000083C040020A4050020FEE70000FC
:101E540070B50D4E0D4D761BB61006D0002455F806
:101E6400043B01349847A642F9D1094E094D761B2B
:101E740000F0D2F8B61006D0002455F8043B013423
:101E84009847A642F9D170BD5020000850200008A0
:101E94005820000850200008F0B4860746D0541E8D
:101EA400002A3CD0CAB2034601E0013C37D303F810
:101EB400012B9D07F9D1032C2AD9CDB245EA05257A
:101EC4000F2C45EA054534D9A4F1100222F00F0C79
:101ED40003F120071609674403F1100242E904558F
:101EE40042E902551032BA42F8D1721C14F00C0FB8
:101EF40003EB021204F00F0613D0331F23F0030385
:101F04000433134442F8045B9342FBD106F0030408
:101F14002CB1CAB21C4403F8012B9C42FBD1F0BC87
:101F2400704734461346002CF3D1F8E714460346B1
:101F3400C1E71A462646E0E7024B13B1024800F017
:101F440005B87047000000005D1F0008002301462B
:101F54001A46184600F01AB838B5084B084D5B1BF2
:101F64009C1007D0043B1D44013C55F804399847A4
:101F7400002CF9D1BDE8384000F054B85C200008CA
:101F840058200008704700BF704700BF2DE9F04794
:101F9400DFF880A00646DAF8000098460F4691461E
:101FA400FFF7F0FF1A4B1B68D3F8484124B3656868
:101FB4001F2D26DC5EB9AB1C0135DAF80000656024
:101FC40044F82370FFF7E0FF0020BDE8F08704EB3E
:101FD40085030121C3F88890D4F88821A9400A43D5
:101FE400022EC4F88821C3F80881E4D1D4F88C31D6
:101FF4001943C4F88C11DEE703F5A674C3F848410D
:10200400D5E7DAF80000FFF7BFFF4FF0FF30DCE759
:102014004420000838040020F8B500BFF8BC08BC10
:102024009E467047F8B500BFF8BC08BC9E46704792
:102034000000000000000000010203040607080974
:042044001000002068
:08204800ECE1FF7F0100000044
:082050003D1F0008E901000832
:04205800C5010008B6
:10205C00E80300000024F400010000001000000060
:10206C0000000000FC02002064030020CC030020D0
:10207C000000000000000000000000000000000054
:10208C000000000000000000000000000000000044
:10209C000000000000000000000000000000000034
:1020AC000000000000000000000000000000000024
:1020BC000000000000000000000000000000000014
:1020CC000000000000000000000000000000000004
:1020DC0000000000000000000000000000000000F4
:1020EC0000000000000000000000000000000000E4
:1020FC0000000000000000000000000000000000D4
:10210C0000000000000000000100000000000000C2
:10211C000E33CDAB34126DE6ECDE05000B00000087
:10212C0000000000000000000000000000000000A3
:10213C000000000000000000000000000000000093
:10214C000000000000000000000000000000000083
:10215C000000000000000000000000000000000073
:0C248C000000000000000000800500209F
:0400000508001E01D0
:00000001FF
