:020000040800F2
:1000000000000220350B0008E90A0008EB0A00088E
:10001000ED0A0008EF0A0008F10A000800000000DD
:10002000000000000000000000000000F30A0008CB
:10003000F50A000800000000F70A0008F90A0008A5
:10004000850B0008850B0008850B0008850B000850
:10005000850B0008850B0008850B0008850B000840
:10006000850B0008850B0008850B0008850B000830
:10007000850B0008850B0008850B0008850B000820
:10008000850B0008850B0008850B0008850B000810
:10009000850B0008850B0008850B0008850B000800
:1000A000850B0008850B0008850B0008850B0008F0
:1000B000850B0008850B0008850B0008850B0008E0
:1000C000850B0008850B0008850B0008850B0008D0
:1000D000850B0008850B0008010B0008850B000844
:1000E000850B0008850B0008850B0008850B0008B0
:1000F000850B0008850B0008850B0008850B0008A0
:10010000850B0008850B0008850B0008850B00088F
:10011000850B0008850B0008110B0008210B000857
:10012000850B0008850B0008850B0008850B00086F
:10013000850B00080000000000000000850B00088F
:10014000850B0008850B0008850B0008850B00084F
:10015000850B0008850B0008850B0008850B00083F
:10016000850B0008850B0008850B0008850B00082F
:10017000850B0008850B0008850B000800000000B7
:1001800000000000850B00080000000000000000D7
:10019000850B00080000000000000000850B00082F
:1001A000000000000000000000000000850B0008B7
:1001B000850B0008850B0008850B0008850B0008DF
:0401C000850B0008A3
:1001C40010B5054C237833B9044B13B10448AFF38D
:1001D40000800123237010BD4404002000000000AF
:1001E4005022000808B5034B1BB103490348AFF381
:1001F400008008BD000000004804002050220008D0
:1002040053B94AB9002908BF00281CBF4FF0FF3179
:100214004FF0FF3000F06CB9ADF1080C6DE904CE7D
:1002240000F006F8DDF804E0DDE9022304B07047CD
:100234002DE9F047089E0D4604468E46002B40F0FB
:1002440082808A42174646D9B2FA82F24AB1C2F192
:10025400200105FA02F320FA01F1974041EA030E66
:1002640094404FEA1748230CBEFBF8FCB9B208FBD4
:100274001CEE43EA0E430CFB01F098420AD9FB182A
:100284000CF1FF3580F01681984240F21381ACF1F5
:10029400020C3B441B1AA4B2B3FBF8F008FB103366
:1002A40044EA034400FB01F1A14209D93C1900F1DD
:1002B400FF3380F00181A14240F2FE8002383C44C9
:1002C400641A40EA0C4000211EB1D4400023C6E960
:1002D4000043BDE8F08702B9FFDEB2FA82F2002AD9
:1002E4004FD1CB1B4FEA174E1FFA87F80121B3FBFE
:1002F400FEFC250C0EFB1C3345EA034508FB0CF3FE
:10030400AB4207D97D190CF1FF3002D2AB4200F2A7
:10031400E7808446ED1AA3B2B5FBFEF00EFB105540
:1003240043EA054408FB00F8A04507D93C1900F14D
:10033400FF3302D2A04500F2D7801846A4EB08048C
:1003440040EA0C40C0E78B4208D9002E00F0AF8091
:100354000021C6E900050846BDE8F087B3FA83F139
:1003640000294BD1AB4202D3824200F2B780841AF7
:1003740065EB030301209E46002EAAD0C6E9004E79
:10038400A7E7C2F1200C01FA02F3974020FA0CF01F
:100394004FEA174E21FA0CFC1843BCFBFEF1050C86
:1003A4000EFB11CC1FFA87F845EA0C4501FB08F354
:1003B400AB4204FA02F409D97D1901F1FF3C80F043
:1003C4008B80AB4240F2888002393D44EB1A85B2FF
:1003D400B3FBFEF00EFB103345EA034500FB08F3C4
:1003E400AB4207D97D1900F1FF3C71D2AB426FD902
:1003F40002383D44EB1A40EA014178E7C1F1200C90
:100404008B4022FA0CF71F4320FA0CF405FA01F38F
:100414004FEA174E25FA0CF51C43230CB5FBFEF9E5
:100424001FFA87F80EFB195543EA054509FB08FA3C
:10043400AA4502FA01F200FA01F308D97D1909F17B
:10044400FF3047D2AA4545D9A9F102093D44A5EB9D
:100454000A05A4B2B5FBFEF00EFB105544EA0544B0
:1004640000FB08F8A04507D93C1900F1FF352DD24F
:10047400A0452BD902383C4440EA0940A4EB0804C7
:10048400A0FB02894C45C6464D4619D316D05EB131
:10049400B3EB0E0264EB050404FA0CFCCA404CEA0C
:1004A4000202CC40C6E900240021BDE8F0873146B1
:1004B40030460EE7AC46EDE6184601E74345E6D282
:1004C400B8EB020E69EB07050138E0E72846D3E7ED
:1004D40060468FE78146BAE7614677E708464BE70F
:1004E400ACF1020C3D4415E702383C4426E700BF5A
:1004F400704700BF2DE9F04188B0002403940494B0
:100504000594069407940094324B1A6B42F001024E
:100514001A631A6B02F001020092009A01941A6B9A
:1005240042F002021A631A6B02F002020192019A6B
:1005340002941A6B42F004021A631B6B03F0040367
:100544000293029B244F22464FF47071384600F008
:1005540017FD224E22464FF48861304600F010FD0C
:10056400DFF87C8022468021404600F009FD4FF4EC
:1005740070730393012504950594069403A93846E2
:1005840000F01AFC4FF488630393049505940694D1
:1005940003A9304600F010FC8023039304950594CE
:1005A400069403A9404600F007FC4FF480630393CC
:1005B4000494059503A9384600F0FEFB3823039301
:1005C4000494059503A9304600F0F6FB08B0BDE895
:1005D400F08100BF003802400000024000040240E5
:1005E4000008024038B5054600240AE000228021B4
:1005F4000D4800F0C5FC012240210B4800F0C0FC6E
:100604000134072C0EDC00224021074800F0B8FC1E
:10061400802323411D42E9D001228021024800F0B9
:10062400AFFCE8E738BD00BF000002400368294A78
:10063400934203D0284A93423BD0704770B5274D6C
:1006440000224021284600F09BFC254C2378254AB3
:10065400D05CFFF7C7FF2078012606FA00F0C0B28D
:10066400FFF7C0FF32464021284600F089FC23787A
:10067400334403F00703237070BD1A4BFF219954D0
:100684000132072A17DC184B1B789918174B187876
:1006940091FBF0F300FB1313D9B21548007888429C
:1006A400EBD90B461349CB5C1349C95C0D4B9954E8
:1006B400E6E70022E5E70C480378104A92F90020A7
:1006C40013440A4A11780B4493FBF1F201FB1233F1
:1006D4000370704700140040001000400004024002
:1006E40060040020000000203A0500204805002096
:1006F400460500203C050020682200080800002070
:100704003C2816D03E2818D00D281AD00A2818D014
:10071400A0F13003DBB2092B41D8214A1278092A0F
:1007240039D810B4541C1E490C701E498B54002334
:1007340028E01D4BFF221A7070471B4B01221A70D0
:100744007047174B1B78A3B1184A13700233184A29
:100754001370184B00221A70174B1B686FF00102BC
:100764001A61DA6842F00102DA601A6842F00102A2
:100774001A600B4B00221A7070475A1C0F498C5C8C
:10078400CC541346062BF8DD30380D4B1A5C0B4B5A
:10079400DA7110BC70470B4B01221A707047704716
:1007A400470500203C0500200800002046050020E5
:1007B400480500203A0500206404002000000020C1
:1007C40068220008390500200268074B9A4200D0CD
:1007D400704710B5054C2078FFF792FF012221469F
:1007E400034801F032FC10BD0044004038050020ED
:1007F400F404002072B6FEE700B583B00023009332
:1008040001930E480E4A026040F23F6242608360E8
:100814000922C260836101F0A5F850B90023009356
:1008240001936946054801F0C9F820B903B05DF8A1
:1008340004FBFFF7DFFFFFF7DDFF00BFAC04002080
:100844000014004000B583B00023009301930E48C8
:100854000E4A026043F67F624260836040F2F31204
:10086400C260836101F07EF850B9002300930193C4
:100874006946054801F0A2F820B903B05DF804FB0D
:10088400FFF7B8FFFFF7B6FF640400200010004034
:1008940008B50A480A4B03604FF4E1334360002370
:1008A4008360C36003610C2242618361C36101F010
:1008B400B7F900B908BDFFF79DFF00BFF40400209D
:1008C4000044004000B595B03422002107A801F08F
:1008D400FDFB002302930393049305930693009373
:1008E400194A116C41F080511164126C02F080526B
:1008F4000092009A019315490A6822F4404242F496
:1009040080420A600A6802F440420192019A02227B
:10091400079201220A9210220B920D9307A800F06D
:1009240097FC68B90F230293002103910491059168
:10093400069102A800F02AFB20B915B05DF804FB6B
:10094400FFF758FFFFF756FF0038024000700040E1
:1009540008B500F03DF9FFF7B5FFFFF7CBFDFFF752
:100964004BFFFFF76FFFFFF793FF01220E490F487C
:1009740001F06BFB0E4800F08BFE0E4B1B68DA682F
:1009840022F00102DA60196A41F21112114208D10F
:10099400196A40F24442114203D11A6822F001025A
:1009A4001A6030BFFDE700BF38050020F4040020C2
:1009B400AC0400206404002082B0002100910B4BA1
:1009C4005A6C42F480425A645A6C02F48042009297
:1009D400009A01911A6C42F080521A641B6C03F065
:1009E40080530193019B02B0704700BF003802405E
:1009F40000B583B00368184A934205D0174A93425E
:100A040016D003B05DF804FB00220092144B196C5D
:100A140041F0100119641B6C03F010030093009B58
:100A24000221362000F012F9362000F043F9E8E7FD
:100A3400002101910A4B1A6C42F020021A641B6CCB
:100A440003F020030193019B0A46372000F0FEF8CF
:100A5400372000F02FF9D4E70010004000140040C4
:100A64000038024010B588B0002303930493059323
:100A7400069307930268194B9A4201D008B010BD3F
:100A84000024019403F5FA331A6C42F400321A6418
:100A94001A6C02F400320192019A02941A6B42F029
:100AA40001021A631B6B03F001030293029B0C23E4
:100AB40003930223049305940323069307230793C4
:100AC40003A9074800F078F922460121262000F006
:100AD400BDF8262000F0EEF8D0E700BF0044004047
:100AE40000000240FEE7FEE7FEE7FEE7FEE7704790
:100AF4007047704708B500F085F808BD08B502488E
:100B040001F046F908BD00BFF404002008B502480E
:100B140000F006FE08BD00BF6404002008B50248CA
:100B240000F0FEFD08BD00BFAC04002070470000CB
:100B3400DFF834D00D480E490E4A002302E0D458A1
:100B4400C4500433C4188C42F9D30B4A0B4C002311
:100B540001E013600432A242FBD3FFF7E7FF01F088
:100B640091FAFFF7F5FE7047000002200000002014
:100B740044040020A422000844040020740500203A
:100B8400FEE7000010B504460E4B18784FF47A7354
:100B9400B3FBF0F30C4A1068B0FBF3F000F098F8E4
:100BA40068B90F2C01D901200AE0002221464FF038
:100BB400FF3000F04BF8054B1C60002000E00120E2
:100BC40010BD00BF100000200C0000201400002005
:100BD40008B50B4B1A6842F400721A601A6842F4A2
:100BE40080621A601A6842F480721A60032000F06E
:100BF4001BF80F20FFF7C6FFFFF7DEFE002008BD3D
:100C0400003C0240034A1168034B1B780B441360F9
:100C1400704700BF4C05002010000020014B1868ED
:100C2400704700BF4C050020074AD36823F4E063F3
:100C34001B041B0C000200F4E060034343F0BF6399
:100C440043F40033D360704700ED00E030B4174B39
:100C5400DB68C3F30223C3F10704042C28BF042474
:100C64001D1D062D18D9033B4FF0FF3505FA04F47A
:100C740021EA0401994005FA03F322EA0303194324
:100C840000280BDB0901C9B200F1604000F56140A6
:100C940080F8001330BC70470023E5E700F00F0034
:100CA4000901C9B2024B1954F4E700BF00ED00E09A
:100CB40014ED00E0002807DB00F01F0240090123C7
:100CC4009340024A42F82030704700BF00E100E040
:100CD4000138B0F1807F0AD2064B5860064AF021F1
:100CE40082F823100020986007221A6070470120C0
:100CF400704700BF10E000E000ED00E070B504466E
:100D0400866DFFF78BFF94F83530DBB2022B06D0EB
:100D140080236365002384F83430012070BD0546C8
:100D24002268136823F0160313602268536923F0C2
:100D340080035361236CE3B12268136823F0080332
:100D440013602268136823F00103136023681B688F
:100D540013F0010F11D0FFF761FF431B052BF5D9E9
:100D640020236365032084F83500002384F834309D
:100D7400D4E7A36C002BDFD1E3E7E26D3F2393407C
:100D8400B360012384F83530002084F83400C5E7CB
:100D940090F83530DBB2022B03D080234365012069
:100DA4007047052380F835300268136823F0010387
:100DB400136000207047000000230F2B00F2D7803F
:100DC400F0B482B05DE086685F000324BC4026EA8C
:100DD4000406CC68BC4034438460466826EA0206B4
:100DE4004C68C4F300129A403243426057E0DC0876
:100DF400083450F8247003F0070296000F22B24022
:100E040027EA02070A69B2403A4340F824205AE02C
:100E1400062200E00022B2403A430234544E46F81F
:100E24002420544A9468EA4324EA05064F6817F4D8
:100E3400801F01D045EA04064E4CA660E46802EA2D
:100E440004064F6817F4001F01D045EA0406494C14
:100E5400E660646802EA04064F6817F4003F01D0B4
:100E640045EA0406434C6660246822404E6816F442
:100E7400803F01D045EA04023E4C226001330F2B2F
:100E840072D801229A400C6804EA020532EA04048A
:100E9400F4D14C6804F00304013C012C93D94A6852
:100EA40002F00302032A09D0C4685E000322B240A0
:100EB40024EA02048A68B2402243C2604A6802F00B
:100EC4000302022A93D004685E000322B24024EA9B
:100ED40002044A6802F00302B240224302604A68F4
:100EE40012F4403FCAD000220192234A546C44F4C5
:100EF40080445464526C02F480420192019A9C082A
:100F0400A61C1B4A52F8267003F0030296000F2217
:100F1400B24027EA0207194A90423FF47BAF02F538
:100F24008062904216D002F58062904214D002F59D
:100F34008062904212D002F58062904210D002F595
:100F4400806290420ED002F5806290423FF460AF1E
:100F5400072260E701225EE702225CE703225AE7E8
:100F6400042258E7052256E702B0F0BC70477047E8
:100F740000380140003C01400038024000000240BB
:100F84000AB181617047090481617047002800F04B
:100F94009B8070B50D4604464F4B1B6803F00F034E
:100FA4008B4208D2CBB24C4A1370136803F00F0380
:100FB4008B4240F08B80236813F0020F17D013F09C
:100FC400040F04D0454A936843F4E05393602368C4
:100FD40013F0080F04D0414A936843F460439360CC
:100FE4003E4A936823F0F003A1680B43936023689F
:100FF40013F0010F32D06368012B21D09A1E012A0D
:1010040025D9364A126812F0020F61D033498A6832
:1010140022F0030213438B60FFF700FE06462F4BBA
:101024009B6803F00C036268B3EB820F16D0FFF7E2
:10103400F5FD801B41F288339842F0D9032042E049
:10104400264A126812F4003FE0D101203BE0234A13
:10105400126812F0007FD9D1012034E01E4B1B68C6
:1010640003F00F03AB4207D9EAB21B4B1A701B689B
:1010740003F00F03AB422DD1236813F0040F06D005
:10108400164A936823F4E053E1680B4393602368A2
:1010940013F0080F07D0114A936823F460432169C1
:1010A40043EAC103936000F047F80C4B9B68C3F319
:1010B40003130B4AD35CD8400A4B18600A4B1868D8
:1010C400FFF760FD002070BD012070470120FAE7A2
:1010D4000120F8E70120F6E7003C02400038024016
:1010E400742200080C00002014000020014B186832
:1010F400704700BF0C00002008B5FFF7F7FF044B52
:101104009B68C3F38223034AD35CD84008BD00BF65
:10111400003802408422000808B5FFF7E7FF044BBB
:101124009B68C3F34233034AD35CD84008BD00BF75
:101134000038024084220008F8B5424B9B6803F053
:101144000C03082B07D00C2B41D0042B01D03E48B4
:10115400F8BD3E48FCE73B4B5A6802F03F025B682F
:1011640013F4800F12D0374B5968C1F38811002350
:101174003648A1FB0001FFF743F8324B5B68C3F329
:10118400014301335B00B0FBF3F0E1E72D4B5B68F7
:10119400C3F3881358010021C01A61F100018E01C4
:1011A40046EA906687013C1A66EB0105E90041EACC
:1011B4005471E000C01841F100018B0243EA9053DE
:1011C4008402204619460023FFF71AF8D5E71D4B81
:1011D4005A6802F03F025B6813F4800F10D0194B79
:1011E4005968C1F3881100231848A1FB0001FFF7D7
:1011F40007F8144B5B68C3F30273B0FBF3F0A7E783
:10120400104B5B68C3F388135C010025E41A65F195
:101214000005AE0146EA9466A701381B66EB05019A
:10122400CC0044EA5074C500E81844F100018B0274
:1012340043EA90538402204619460023FEF7E0FF58
:10124400D7E700BF003802400024F40040787D0155
:10125400002800F0018270B582B00446036813F0E0
:10126400010F41D0A54B9B6803F00C03042B32D033
:10127400A24B9B6803F00C03082B27D09F4B9B6861
:1012840003F00C030C2B59D06368B3F5803F5BD09B
:10129400B3F5A02F5ED0994B1A6822F480321A60FD
:1012A4001A6822F480221A606368002B5CD0FFF76E
:1012B400B5FC0546914B1B6813F4003F14D1FFF7AE
:1012C400ADFC401B6428F5D90320CCE18B4B5B6853
:1012D40013F4800FD2D0894B1B6813F4003F03D062
:1012E4006368002B00F0BA81236813F0020F60D00A
:1012F400824B9B6813F00C0F4AD0804B9B6803F021
:101304000C03082B3FD07D4B9B6803F00C030C2B84
:1013140068D0E368002B74D0794B01221A60FFF780
:101324007DFC0546754B1B6813F0020F60D1FFF777
:1013340075FC401B0228F5D9032094E16F4B5B68D0
:1013440013F4800FA0D0C6E76C4A136843F48033CB
:101354001360A9E7694B1A6842F480221A601A687C
:1013640042F480321A609FE7FFF758FC0546634B4E
:101374001B6813F4003FB7D0FFF750FC401B6428F0
:10138400F5D903206FE15D4B5B6813F4800FBAD18C
:101394005A4B1B6813F0020F03D0E368012B40F093
:1013A4005F81564A136823F0F803216943EAC103B5
:1013B4001360236813F0080F47D06369002B32D001
:1013C400504B01221A60FFF729FC05464B4B5B6F1B
:1013D40013F0020F39D1FFF721FC401B0228F5D985
:1013E400032040E1454B5B6813F4800F91D1CFE7B4
:1013F400424A136823F0F803216943EAC1031360E6
:10140400D7E73F4B00221A60FFF708FC05463B4B29
:101414001B6813F0020FCCD0FFF700FC401B02281E
:10142400F5D903201FE1374B00221A60FFF7F6FBC2
:101434000546324B5B6F13F0020F06D0FFF7EEFB4D
:10144400401B0228F5D903200DE1236813F0040F93
:1014540078D02A4B1B6C13F0805F33D100230193A7
:10146400264B1A6C42F080521A641B6C03F08053B2
:101474000193019B0125244B1B6813F4807F23D027
:10148400A368012B34D0052B40D01C4B1A6F22F0DB
:1014940001021A671A6F22F004021A67A368002B6C
:1014A4003ED0FFF7BBFB0646144B1B6F13F0020F35
:1014B40047D1FFF7B3FB801B41F288339842F3D93D
:1014C4000320D0E00025D6E70F4A136843F4807365
:1014D4001360FFF7A3FB06460B4B1B6813F4807FD6
:1014E400CED1FFF79BFB801B0228F5D90320BAE07D
:1014F400024A136F43F001031367CFE70038024039
:1015040000004742800E4742007000405E4B1A6F55
:1015140042F004021A671A6F42F001021A67BDE72B
:10152400FFF77CFB0646584B1B6F13F0020F08D0E5
:10153400FFF774FB801B41F288339842F3D90320F0
:1015440091E0EDB9A369002B00F08C804E4A9268BB
:1015540002F00C02082A54D0022B17D04B4B002265
:101564001A60FFF75BFB0446474B1B6813F0007FD0
:1015740045D0FFF753FB001B0228F5D9032072E086
:10158400414A136C23F080531364DBE73F4B002282
:101594001A60FFF743FB05463B4B1B6813F0007FC3
:1015A40006D0FFF73BFB401B0228F5D903205AE085
:1015B400E369226A1343626A43EA8213A26A520805
:1015C400013A43EA0243E26A43EA0263226B43EAD2
:1015D40002732D4A53602D4B01221A60FFF71EFB44
:1015E4000446294B1B6813F0007F06D1FFF716FB56
:1015F400001B0228F5D9032035E0002033E0002049
:1016040031E0012B31D0204B5B6803F48001E269A7
:1016140091422CD103F03F02216A8A4229D1616AA6
:1016240047F6C0721A40B2EB811F24D103F4403153
:10163400A26A5208013AB1EB024F1ED103F0706264
:10164400E16AB2EB016F1AD103F0E043226BB3EB12
:10165400027F16D1002006E001207047012002E03D
:10166400012000E0002002B070BD0120FBE7012052
:10167400F9E70120F7E70120F5E70120F3E701206E
:10168400F1E70120EFE700BF003802406000474265
:1016940090F83D30DBB2012B37D1022380F83D3086
:1016A4000268D36843F00103D3600368194A934284
:1016B40020D0B3F1804F1DD0A2F57C42934219D0C3
:1016C40002F58062934215D002F58062934211D0F4
:1016D40002F5784293420DD002F57052934209D03C
:1016E400A2F59432934205D01A6842F001021A60BE
:1016F400002070479A6802F00702062A07D01A6889
:1017040042F001021A600020704701207047002057
:10171400704700BF00000140704770477047704732
:1017240010B5044603681A6912F0020F11D0DA6882
:1017340012F0020F0DD06FF002021A610123037739
:1017440003689B6913F0030F70D0FFF7E6FF0023D3
:10175400237723681A6912F0040F12D0DA6812F0A2
:10176400040F0ED06FF004021A610223237723685A
:101774009B6913F4407F5FD02046FFF7CEFF002320
:10178400237723681A6912F0080F12D0DA6812F06E
:10179400080F0ED06FF008021A6104232377236820
:1017A400DB6913F0030F4ED02046FFF7B6FF00238A
:1017B400237723681A6912F0100F12D0DA6812F036
:1017C400100F0ED06FF010021A61082323772368DC
:1017D400DB6913F4407F3DD02046FFF79EFF0023D2
:1017E400237723681A6912F0010F03D0DA6812F024
:1017F400010F36D123681A6912F0800F03D0DA681A
:1018040012F0800F34D123681A6912F0400F03D00C
:10181400DA6812F0400F32D123681A6912F0200FEF
:1018240003D0DA6812F0200F30D110BDFFF774FF37
:101834002046FFF773FF8AE72046FFF76DFF204637
:10184400FFF76CFF9BE72046FFF766FF2046FFF794
:1018540065FFACE72046FFF75FFF2046FFF75EFF1A
:10186400BDE76FF001021A612046FEF7DFFEC1E713
:101874006FF080021A61204600F0E5F8C3E76FF0CC
:1018840040021A612046FFF74AFFC5E76FF02002C5
:101894001A61204600F0D6F8C7E700000368304A12
:1018A400904212D0B0F1804F0FD0A2F57C4290420A
:1018B4000BD002F58062904207D002F5806290421C
:1018C40003D002F57842904203D123F070034A68B2
:1018D4001343234A90422AD0B0F1804F27D0A2F577
:1018E4007C42904223D002F5806290421FD002F5E0
:1018F400806290421BD002F57842904217D002F5E4
:101904007052904213D002F5806290420FD002F5DB
:10191400806290420BD0A2F59832904207D002F533
:101924008062904203D002F58062904203D123F496
:101934004073CA68134323F080034A691343036066
:101944008B68C3620B688362054B984203D003F52E
:101954008063984201D10B6903630123436170479B
:101964000000014040B310B5044690F83D30F3B197
:10197400022384F83D30214651F8040BFFF78EFF13
:10198400012384F8463084F83E3084F83F3084F8EC
:10199400403084F8413084F8423084F8433084F88D
:1019A400443084F8453084F83D30002010BD80F880
:1019B4003C30FFF71DF8DBE70120704790F83C301E
:1019C400012B3BD030B4012380F83C30022380F853
:1019D4003D3003685C689D6824F070040A68224303
:1019E4005A600368164A93421AD0B3F1804F17D055
:1019F400A2F57C42934213D002F5806293420FD049
:101A040002F5806293420BD002F57842934207D0EC
:101A140002F57052934203D0A2F59432934204D15A
:101A240025F080054A6815439D60012380F83D3008
:101A3400002380F83C30184630BC704702207047C1
:101A44000000014070477047026802F10C0353E83C
:101A5400003F23F490730C3242E800310029F3D1A3
:101A6400026802F1140353E8003F23F00103143227
:101A740042E800310029F3D1036B012B05D0202368
:101A840080F83E30002303637047026802F10C03C0
:101A940053E8003F23F010030C3242E800310029E0
:101AA400F3D1ECE790F83D30DBB2212B01D00220DA
:101AB40070478368B3F5805F17D0036A5A1C0262CB
:101AC4001A7803685A60C38C9BB2013B9BB2C384EF
:101AD4004BB90268D36823F08003D3600268D368EB
:101AE40043F04003D360002070470369002BE4D126
:101AF400036A1B880268C3F308035360036A023352
:101B04000362E0E770B504460268136923F44053A6
:101B1400C1680B4313618368026913434269134329
:101B2400C2691A430168CB6823F4164323F00C03FB
:101B34001343CB600268536923F4407381690B43F8
:101B440053610368344A934206D002F5806293429B
:101B540002D0FFF7D1FA01E0FFF7DEFAE369B3F54B
:101B6400004F2AD00026051846EB06012D1846EB37
:101B74000101CB0043EA5573EA0015461946636830
:101B84009A009B0F281846EB0101FEF739FB234D01
:101B9400A5FB00325109642303FB11031B013233FB
:101BA400A5FB03235B0903F0F00202EB011203F02F
:101BB4000F03216813448B6070BD0026051846EBA3
:101BC40006012D1846EB0101CB0043EA5573EA00E8
:101BD4001546194662683346921846EB03032818E3
:101BE40046EB0101FEF70CFB0C4DA5FB003251093D
:101BF400642303FB1103DB003233A5FB03235B09DE
:101C04005A0002F4F87202EB011203F00703216890
:101C140013448B60D0E700BF001001401F85EB51D7
:101C240058B310B5044690F83D300BB3242384F820
:101C34003D302268D36823F40053D3602046FFF775
:101C440061FF2268136923F4904313612268536986
:101C540023F02A0353612268D36843F40053D3600A
:101C640000202064202384F83D3084F83E3010BDE9
:101C740080F83C30FEF7F6FED8E701207047704745
:101C840008B50168CA6822F04002CA60202280F8C0
:101C94003D20FFF7F4FF002008BD704708B5806BB6
:101CA4000023C385C384FFF7F8FF08BD704790F88D
:101CB4003E30DBB2222B67D18368B3F5805F4DD011
:101CC400826AB3F5805F04D0002B54D10369002BE2
:101CD40051D103685B681370836A01338362C38DD7
:101CE4009BB2013B9BB2C385002B4FD100B583B09F
:101CF4000268D36823F02003D3600268D36823F416
:101D04008073D3600268536923F001035361202375
:101D140080F83E30036B012B33D100230363026848
:101D240002F10C0353E8003F23F010030C3242E8A5
:101D340000310029F3D103681A6812F0100F06D09D
:101D4400002201921A6801925B680193019B818DC4
:101D5400FFF7ACFF002003B05DF804FB0269002A22
:101D6400AED1826A03685B68C3F308031380836A95
:101D740002338362B3E703685B6803F07F03137085
:101D8400AAE7FEF721FDE5E702207047002070472F
:101D940030B583B0044602681368D068516913F003
:101DA4000F0505D113F0200F02D010F0200F19D128
:101DB4002DB111F0010119D110F4907F16D1216BCE
:101DC40001297DD013F0800F03D010F0800F40F074
:101DD400158113F0400F03D010F0400F40F0128132
:101DE40003B030BD2046FFF762FFF9E713F0010F9F
:101DF40006D010F4807F03D0226C42F001022264EA
:101E040013F0040F04D019B1226C42F002022264D0
:101E140013F0020F04D019B1226C42F004022264C0
:101E240013F0080F07D010F0200F00D119B1226C65
:101E340042F008022264226C002AD1D013F0200F51
:101E440002D010F0200F29D123685B6903F040030E
:101E5400226C12F0080F00D163B32046FFF7F4FDA3
:101E640023685B6913F0400F20D0226802F1140349
:101E740053E8003F23F04003143242E800310029C4
:101E8400F3D1A36B73B1614A1A65A06BFEF780FFAF
:101E94000028A5D0A06B036D9847A1E72046FFF763
:101EA40006FFD1E72046FFF7F8FE99E72046FFF743
:101EB400F4FE95E72046FFF7F0FE002323648FE746
:101EC40013F0100F3FF47EAF10F0100F3FF47AAF11
:101ED400002301931368019353680193019B536991
:101EE40013F0400F50D0A26B13685B689BB2002BB9
:101EF4003FF476AFA18D99427FF672AFE385D36943
:101F0400B3F5807F37D0226802F10C0353E8003F19
:101F140023F480730C3242E800310029F3D12268A3
:101F240002F1140353E8003F23F00103143242E8A2
:101F340000310029F3D1226802F1140353E8003F71
:101F440023F04003143242E800310029F3D1202366
:101F540084F83E3000232363226802F10C0353E823
:101F6400003F23F010030C3242E800310029F3D182
:101F7400A06BFEF7C3FEA18DE38D9BB2C91A89B293
:101F84002046FFF793FE2BE7A18DE38D9BB2C91A80
:101F940089B2E38D9BB2002B3FF422AF00293FF4BA
:101FA4001FAF226802F10C0353E8003F23F490733F
:101FB4000C3242E800300028F3D1226802F1140305
:101FC40053E8003F23F00103143242E800300028B4
:101FD400F3D1202384F83E3000232363226802F1E6
:101FE4000C0353E8003F23F010030C3242E80030A6
:101FF4000028F3D12046FFF759FEF1E62046FFF70B
:1020040051FDEDE62046FFF73BFEE9E6A11C000882
:1020140081628285C28500230364222280F83E20E7
:1020240080F83C30036923B10268D36843F48073B9
:10203400D3600268536943F0010353610268D368B3
:1020440043F02003D3600020704708B590F83E3079
:10205400DBB2202B0DD171B17AB190F83C30012B59
:102064000DD0012380F83C3000230363FFF7D0FF39
:1020740000E0022008BD0120FCE70120FAE702206D
:10208400F8E7000070B50D4E0D4D761BB61006D066
:10209400002455F8043B01349847A642F9D1094E6F
:1020A400094D761B00F0D2F8B61006D0002455F87E
:1020B400043B01349847A642F9D170BD9822000828
:1020C40098220008A022000898220008F0B486078D
:1020D40046D0541E002A3CD0CAB2034601E0013C5B
:1020E40037D303F8012B9D07F9D1032C2AD9CDB29C
:1020F40045EA05250F2C45EA054534D9A4F110021B
:1021040022F00F0C03F120071609674403F11002B3
:1021140042E9045542E902551032BA42F8D1721C20
:1021240014F00C0F03EB021204F00F0613D0331F4C
:1021340023F003030433134442F8045B9342FBD1BA
:1021440006F003042CB1CAB21C4403F8012B9C42D0
:10215400FBD1F0BC704734461346002CF3D1F8E7AA
:1021640014460346C1E71A462646E0E7024B13B17C
:10217400024800F005B870470000000091210008F3
:10218400002301461A46184600F01AB838B5084B21
:10219400084D5B1B9C1007D0043B1D44013C55F8C3
:1021A40004399847002CF9D1BDE8384000F054B800
:1021B400A4220008A0220008704700BF704700BF97
:1021C4002DE9F047DFF880A00646DAF800009846CB
:1021D4000F469146FFF7F0FF1A4B1B68D3F84841AE
:1021E40024B365681F2D26DC5EB9AB1C0135DAF813
:1021F4000000656044F82370FFF7E0FF0020BDE8AD
:10220400F08704EB85030121C3F88890D4F8882172
:10221400A9400A43022EC4F88821C3F80881E4D1F6
:10222400D4F88C311943C4F88C11DEE703F5A67495
:10223400C3F84841D5E7DAF80000FFF7BFFF4FF0D5
:10224400FF30DCE78C22000840040020F8B500BF12
:10225400F8BC08BC9E467047F8B500BFF8BC08BC83
:042264009E467047DB
:10226800C0F9A4B0999282F88090FFFF00000000A6
:10227800000000000102030406070809000000002E
:0822880001020304180000200C
:08229000A4DFFF7F0100000044
:0822980071210008E9010008B2
:0422A000C50100086C
:1022A400FFFFFFFFFFFFFFFF010000000024F40019
:1022B40001000000100000000000000004030020E2
:1022C4006C030020D4030020000000000000000084
:1022D40000000000000000000000000000000000FA
:1022E40000000000000000000000000000000000EA
:1022F40000000000000000000000000000000000DA
:1023040000000000000000000000000000000000C9
:1023140000000000000000000000000000000000B9
:1023240000000000000000000000000000000000A9
:102334000000000000000000000000000000000099
:102344000000000000000000000000000000000089
:102354000000000000000000000000000000000079
:1023640001000000000000000E33CDAB34126DE616
:10237400ECDE05000B00000000000000000000007F
:102384000000000000000000000000000000000049
:102394000000000000000000000000000000000039
:1023A4000000000000000000000000000000000029
:1023B4000000000000000000000000000000000019
:0426E400500500207D
:0400000508000B35AF
:00000001FF
